:1000000010C02AC029C028C027C026C0CFC124C024
:1000100023C022C021C020C01FC01EC01DC01CC0E4
:100020001BC011241FBECFE5D2E0DEBFCDBF10E064
:10003000A0E6B0E0ECE8FEE002C005900D92A2362A
:10004000B107D9F721E0A2E6B0E001C01D92A537C3
:10005000B207E1F7C0D118C7D3CF5F9BFECF8CB1F9
:1000600008955D9BFECF8CB908950F931F93CF9396
:10007000DF938C01C1E7D0E0CE018157904080171B
:1000800091071CF4EADF8993F7CFDF91CF911F919D
:100090000F910895CF93DF93C1E7D0E0DEDF89931E
:1000A0008111FCCFDF91CF9108953A9A949A959A55
:1000B000969A089515BA14BA18BA1BBA8FEF87BB6F
:1000C0008ABB08959BBB88BB0895FCDF94989598E4
:1000D000000000000000000083B3959A949A0895F0
:1000E000CF93DF93D62FC42FEDDF8FEF84BBD5BB2B
:1000F0009698C13009F4949800000000C13009F4CA
:10010000949A969A15BA14BADF91CF91089515BAB8
:1001100014BAD8DF9598000000000000000083B3F7
:10012000959A0895CF93C62F2FEF24BBCBDFC5BB85
:1001300080917201813449F4399800000000000078
:10014000000000000000399A15C0823559F43A9831
:100150009698000000000000000000000000969A41
:100160003A9A08C0969800000000000000000000C5
:100170000000969A15BA14BACF9108951F93CF93A1
:10018000DF93EC01162F60916700809165009091DC
:100190006600C8DF60916B008091690090916A00F1
:1001A000C1DF60916F0080916D0090916E00BADFA9
:1001B000612FCE01B7DF8AE18A95F1F700C015BA49
:1001C00014BACE01A4DF811751F0CE01A0DF9AE16D
:1001D0009A95F1F700C0909162009130A1F7DF91FC
:1001E000CF911F9108951F93CF93DF93EC01162FAA
:1001F00080916400813061F440E06091630080E0B0
:1002000091E26EDF87EC90E00197F1F700C000000B
:1002100060916700809165009091660083DF609136
:100220006B008091690090916A007CDF60916F00A3
:1002300080916D0090916E0075DF612FCE0172DFAD
:1002400087EE93E00197F1F700C0000015BA14BAE9
:100250003A9887EC90E00197F1F700C000003A9AD5
:1002600087EC90E00197F1F700C00000DF91CF919B
:100270001F910895FF920F931F93CF93DF93EC018B
:10028000162FFF24FA94F4BA01E20BBB18BA81E0EE
:1002900085BB969800000000969A60916700809157
:1002A0006500909166003EDF60916B00809169006F
:1002B00090916A0037DF60916F0080916D0090919E
:1002C0006E0030DFF4BA0BBB18BA8091630085BBB7
:1002D000969800000000969A612FCE0123DF85E3F7
:1002E0008A95F1F7000015BA14BACE0110DF811714
:1002F00051F0CE010CDF9AE19A95F1F700C0909190
:1003000062009130A1F7DF91CF911F910F91FF9083
:100310000895109262001DBC1CBC8EB583608EBD1A
:100320000895109262001DBC1CBC1EBC93980895D9
:1003300080916200811104C0F4DF81E392DE939822
:10034000089584B7877F84BF88E181BD11BCADDE8D
:1003500081B3886781BB329A389A82B3846882BB42
:1003600015BA14BA18BA17BA1BBA1ABA3A982FEFB4
:1003700080E792E0215080409040E1F700C000000B
:100380003A9A939A2FEF89E698E121508040904065
:10039000E1F700C00000939819B8539A549A89B7AE
:1003A000806889BF1DBC1CBC789408951F920F9271
:1003B0000FB60F9211248F939F9392B388E08927F1
:1003C00082BB81E0809362009F918F910F900FBE5E
:1003D0000F901F901895CF93DF93CDB7DEB7A097FE
:1003E0000FB6F894DEBF0FBECDBFABDF412C512C52
:1003F000320148E1842E1E0121E2220E311C55DE1D
:100400002CDE80937101833421F48091600029DE19
:1004100005C0873429F44EDE1092640082DFEFCFEE
:10042000813459F437DE40E150E060E070E081E76C
:1004300090E06BD32B013C01E2CF8235E9F43ADE48
:1004400081E380937101809171018133C1F6939AA8
:1004500000E010E0C801840D951D37DE02DE0F5F5D
:100460001F4F00341105B1F780E4480E511C611C88
:10047000711C9398F2DDE5CF8135A1F41BDE939AD0
:1004800000E010E0C801840D951D1FDEEADD0F5F5E
:100490001F4F011590E41907A9F7E0E45E0E611CF7
:1004A000711CB6C28735F1F405DE80E490E0DDDD35
:1004B000939A01E710E0E12CF12CF80161918F0192
:1004C000C701840D951D41E00BDEFFEFEF1AFF0A17
:1004D00020E4E216F10489F780E4480E511C611C07
:1004E000711C6CC08234E1F4E5DDD4DD40E150E004
:1004F00060E070E081E790E008D36B017C01ADDD46
:1005000080937101823409F07ACFC4DD81E790E0F5
:100510000DD48093630040E0682FC601E1DD6FCF0A
:10052000803549F49ADD80937201813409F067CFF8
:10053000319A399A64CF8E3421F481E0809364003B
:100540005ECF853421F505E610E0A4DD40E150E002
:1005500060E070E081E790E0D8D2F80171836083B9
:1005600081E37FDD97DD40E150E060E070E081E70E
:1005700090E0CBD2F8017383628381E372DD0C5F7C
:100580001F4F81E790E080179107F9F638CF863446
:10059000C9F480DD40E150E060E070E081E790E088
:1005A000B4D26B017C0176DD40E150E060E070E0A8
:1005B00081E790E0AAD2939AC601B4DD939881E3D3
:1005C00050DD1DCF843531F08B3709F03FC000E09E
:1005D00011E002C000E410E0C80147DD9ADE939A02
:1005E0008091640031E7E32E30E0F32EC12CD12C52
:1005F000811116C0F70161917F016F3F21F0C601A3
:10060000840D951DBBDDFFEFCF1ADF0A0C151D050C
:1006100089F710C0FFEFCF1ADF0A0C151D0551F046
:10062000F70161917F016F3FA9F3C601840D951D0C
:1006300021DEF0CF2FEF421A520A620A720A0150ED
:100640001109400E511E611C711C2DC2893509F023
:100650004EC080E290E009DD5CDE939A6AEA8AEAA5
:100660009AE060DD65E585E595E05CDD720165E2B7
:10067000C20158DD6FE1C20155DD85E08A95F1F7D1
:10068000000001E710E0C12CD12CF80161918F012D
:10069000C7018C0D9D1D46DDFFEFCF1ADF0A20E25A
:1006A000C216D10491F780E2480E511C611C711CE6
:1006B000C201809769E236DDEFE1F3E03197F1F7AF
:1006C00000C00000820101501109C80120DD909195
:1006D0009000891709F4E7C1C80119DDFAE1FA951C
:1006E000F1F700C090916200913089F7DCC1853547
:1006F00009F063C080E091E0B8DC0BDE939A91E7EB
:10070000E92E90E0F92E28E0922ECE0101966C01A0
:10071000FC01D7018D918193E215F305D9F76AEABF
:100720008AEA9AE0FFDC65E585E595E0FBDC5201AD
:1007300065E2C201F7DC6FE1C201F4DC25E02A9535
:10074000F1F7000000E010E0F60161916F01C501D2
:10075000800F911FE7DC0F5F1F4F00321105A1F7DB
:10076000F0E24F0E511C611C711CC201809769E2BE
:10077000D9DC8FE193E00197F1F700C0000082011E
:1007800001501109C801C3DC98A1891751F0C801B3
:10079000BEDC9AE19A95F1F700C090916200913029
:1007A00099F780916200813009F47DC19A94E0E26A
:1007B000EE0EF11C9110A9CF76C18A34F9F480E4D1
:1007C00090E053DCA6DD939A01E710E0E12CF12CD8
:1007D000F80161918F016F3F21F0C701840D951DD4
:1007E00002DDFFEFEF1AFF0A20E4E216F10481F7C1
:1007F00080E4480E511C611C711C55C1883509F0FC
:1008000049C080E091E031DC84DD939A69EA8AEAAC
:100810009AE088DC66E585E595E084DC720166E2B5
:10082000C20180DC6FEFC2017DDCE7ECF0E03197C4
:10083000F1F700C0000001E710E0C12CD12CF80155
:1008400061918F01C6018E0D9F1D6CDCFFEFCF1AE9
:10085000DF0AC11421E0D20691F78FEF581A680A17
:10086000780AC2019A956AE25DDC820101501109A1
:10087000C8014DDC90917001891709F414C1C801B9
:1008800046DC9AE19A95F1F700C0909162009130B0
:1008900089F709C18A3709F0BDC080E890E0E5DB3F
:1008A000939A69E080E291E03DDC6AEA81E291E0BE
:1008B00039DC65E582E291E035DC65EA8FE391E0C1
:1008C00031DCEAE1EA95F1F700C061E180E291E014
:1008D00029DC65EA8FE391E025DCFAE1FA95F1F78E
:1008E00000C061E080E091E21DDC2AE12A95F1F789
:1008F00000C06FE080E291E015DC65E585E291E003
:1009000011DC65E586E291E00DDC6AEA87E291E0C0
:1009100009DC65EA8FE391E005DC8AE18A95F1F76D
:1009200000C06FE080E291E0FDDB6AE285E291E0E9
:10093000F9DB6AEA86E291E0F5DB65E587E291E0C2
:10094000F1DB65EA8FE391E0EDDB9AE19A95F1F74F
:1009500000C06FE080E291E0E5DB65E585E291E0D3
:10096000E1DB65E586E291E0DDDB60EA87E291E0CC
:10097000D9DB65EA8FE391E0D5DBEAE1EA95F1F7AF
:1009800000C040E06091630080E091E2A9DBFAE101
:10099000FA95F1F700C060E180E291E0C3DB65EA1F
:1009A0008FE391E0BFDB2AE12A95F1F700C068E010
:1009B00080E291E0B7DB65EA8FE391E0B3DB8AE1A7
:1009C0008A95F1F700C001E710E081EF90E0801711
:1009D000910779F0F80161918F01C201A3DBFAE17F
:1009E000FA95F1F700C02FEF421A520A620A720A12
:1009F000ECCF6FEFD301C2010197A109B10992DBDE
:100A0000EFE3FCE93197F1F700C0000081E329DB57
:100A10009398F5CC893709F048C080E290E025DB57
:100A2000939A820168EEC2017DDB73DCC8016FDB43
:100A3000803821F0809162008130C1F7809162009E
:100A40008111DDCC66DC6FE1C8016CDB81E7E82E4B
:100A500080E0F82EC12CD12CF70161917F01C601F5
:100A6000800F911F5FDBFFEFCF1ADF0A20E2C21673
:100A7000D10491F780E2480E511C611C711C820167
:100A80000052110960EDC8014DDBEFE0F3E0319752
:100A9000F1F700C00000C8013ADB803821F08091F6
:100AA00062008130C1F744DCAACC883611F484E6B8
:100AB00087CD863511F487E183CD8B3251F400E088
:100AC00010E481E3CEDA80E3CCDA01501109C9F7F2
:100AD00096CC8A3209F093CCDDDA40E150E060E058
:100AE00070E081E790E011D0613E754E874091053E
:100AF00009F085CC84B7877F84BF81BC2CE021BD01
:100B00008FEF9FEF0197F1F77ACCA0E0B0E0EAE831
:100B1000F5E078C15C016B017A016115710519F08E
:100B2000FB0191838083E114F10429F0C70102974E
:100B3000839708F0E2C0E5012196F5011081812F2D
:100B400090E011D1892B11F05E01F5CF1D3229F40F
:100B50002196F501118101E007C01B3221F4E50166
:100B60002296F501118100E0E114F10409F1F0E1B0
:100B7000EF16F10429F43EC010E3E114F10421F171
:100B800028E0E216F10401F154F4E2E0EE16F1047B
:100B900021F5812C912CA12CB0E4BB2E3DC0FAE0B4
:100BA000EF16F10439F020E1E216F104B1F42FC0A0
:100BB000103311F1FAE0EF2EF12CACEC8A2E982CC8
:100BC000A82CACE0BA2E28C078E0E72EF12C812CBE
:100BD000912CA12CE0E1BE2E1FC060E070E080E00F
:100BE00090E897010F2C000C440B550BDED0490107
:100BF0005A0112C0103359F488818F7D883509F06D
:100C0000BBCF19812296026080E1E82EF12C812C65
:100C1000912CA12C68E0B62E40E060E070E0CB01A2
:100C200027010F2C000C66087708FE0150ED352EC9
:100C3000310E29E0231570F42FEB210F2A3118F41F
:100C400039EC332E06C02FE9210F2A3110F529EA9D
:100C5000322E310E232D30E02E153F05D4F447FD02
:100C600015C086169706A806B90668F0A30192017A
:100C70008DD0630D711D811D911D61307105810540
:100C800020E8920710F04FEF01C041E0219610815B
:100C9000CCCF202F2170C114D10471F0442329F04E
:100CA0002197F601D183C08307C001FF19C02297A5
:100CB000F601D183C08314C047FF12C0222329F05C
:100CC00060E070E080E090E804C06FEF7FEF8FEFAE
:100CD0009FE722E230E0309374012093730109C052
:100CE000222381F090958095709561957F4F8F4F6D
:100CF0009F4F462F372F282F12C040E030E020E0D2
:100D000090E00DC097FFF5CF82E290E090937401E0
:100D1000809373016FEF7FEF8FEF9FE7EACF642F30
:100D2000732F822FCDB7DEB7E1E188C0FC018827A1
:100D30009927E89421912032E9F3293010F02E30E0
:100D4000C8F32B3239F02D3231F4689403C013D03C
:100D5000820F911D219120532A30C8F31EF49095E3
:100D600081959F4F089591110EC0803219F08950DE
:100D70008550D0F708957AE0979F902D879F802D1A
:100D8000910D11240895992788270895DB018F93E9
:100D90009F932DD0BF91AF91A29F800D911DA39FD6
:100DA000900DB29F900D11240895A1E21A2EAA1B56
:100DB000BB1BFD010DC0AA1FBB1FEE1FFF1FA2170B
:100DC000B307E407F50720F0A21BB30BE40BF50B08
:100DD000661F771F881F991F1A9469F76095709591
:100DE000809590959B01AC01BD01CF01089540D045
:100DF000A59F900DB49F900DA49F800D911D11246F
:100E000008952F923F924F925F926F927F928F92AE
:100E10009F92AF92BF92CF92DF92EF92FF920F9389
:100E20001F93CF93DF93CDB7DEB7CA1BDB0B0FB693
:100E3000F894DEBF0FBECDBF09942A883988488850
:100E40005F846E847D848C849B84AA84B984C884E6
:100E5000DF80EE80FD800C811B81AA81B981CE0FDD
:100E6000D11D0FB6F894DEBF0FBECDBFED010895C2
:100E7000A29FB001B39FC001A39F01D0B29F700D8C
:0C0E8000811D1124911D0895F894FFCFEE
:020E8C00010063
:00000001FF
