:1000000010C02AC029C028C027C026C00EC424C0E2
:1000100023C022C021C020C01FC01EC01DC01CC0E4
:100020001BC011241FBECFE5D2E0DEBFCDBF10E064
:10003000A0E6B0E0E0E6FBE102C005900D92A2363A
:10004000B107D9F721E0A2E6B0E001C01D92AF37B9
:10005000B207E1F7FFD382CDD3CF5F9BFECF8CB148
:1000600008955D9BFECF8CB908950F931F93CF9396
:10007000DF938C01C3E7D0E0CE0183579040801717
:1000800091071CF4EADF8993F7CFDF91CF911F919D
:100090000F910895CF93DF93C3E7D0E0DEDF89931C
:1000A0008111FCCFDF91CF9108953A9A949A959A55
:1000B000969A089515BA14BA18BA1BBA8FEF87BB6F
:1000C0008ABB08959BBB88BB0895FCDF94989598E4
:1000D0000000000083B3959A949A0895CF93DF931C
:1000E000D62FC42FEFDF8FEF84BBD5BB9698C130DE
:1000F00009F494980000C13009F4949A969A15BABC
:1001000014BADF91CF91089518BA1BBA15BA8FEFC0
:1001100087BB8ABB84BB08950F931F9315BA1BBA84
:1001200018BA2FEF24BB2ABB27BB8C012227332709
:1001300005BB072F182F292F33270BBB68BB1F9137
:100140000F910895E9DF94981BBA18BA1ABA17BA32
:100150009598000029B386B3959A949A90E0922BD3
:100160000895B0DF3A9895980000000083B3959AFF
:100170003A9A0895CF93C62FA5DF8FEF84BBC5BBF6
:100180003A98969800000000969A3A9A15BA14BACE
:10019000CF9108958FEF87BB8ABB84BB90E898BB53
:1001A0008BBB85BB08959498623049F4411105C01A
:1001B000906C2FE0E1E0F0E013C09068FACF4111BD
:1001C00002C0806C01C0806827E0F4CFC098969888
:1001D00000000000969A00000000215027FD0DC08D
:1001E000BF01022E02C0660F771F0A94E2F7682350
:1001F0007923672B59F3C09AEACF411107C0C09801
:100200000000969800000000969A949A089540E0A5
:10021000CADFC098B898949884E0959800000000D0
:10022000959A000000008150C1F7E4E7F1E041E059
:1002300050E087E090E020E0959800000000959A5B
:10024000B09B07C0BA01082E01C0660F0A94EAF7F6
:10025000262B019788F7219381E0EC37F80749F7BF
:10026000949AC09AB89A089541E09DDFE4E7F1E0DE
:1002700048E027E030E0808190E0022E02C09595B2
:1002800087950A94E2F780FF02C0C09A01C0C09827
:10029000969800000000969A000000002150310955
:1002A00050F7415031964111E4CFC0989698000024
:1002B0000000969A00000000949A0895CF93C62FEC
:1002C0002FEF24BBFFDEC5BB3A98969800003A9A00
:1002D000969ACF910895CF93DF936AEA85E595E5E5
:1002E000EDDF65E58AEA9AE2E9DF60E985E595E513
:1002F000E5DF8FE39CE90197F1F700C0000015BA34
:1003000014BA80E090E02DDFC1E7D0E0888381E07F
:1003100090E027DF89836AEA85E595E5CFDF65E52B
:100320008AEA9AE2CBDF60EF85E595E5C7DF8FE3E8
:100330009CE90197F1F700C00000DF91CF9108958B
:10034000CF93C82F6AEA85E595E5B8DF65E58AEAC7
:100350009AE2B4DF60EB85E595E5B0DF6C2F80E0D5
:1003600090E0CF91ABCFCF93C82F6AEA85E595E5B2
:10037000A5DF65E58AEA9AE2A1DF60E885E595E513
:100380009DDF6AEA85E595E599DF65E58AEA9AE207
:1003900095DF60E380E09C2F9295907F8FDF8FE464
:1003A00093EC0197F1F700C00000CF9108951F93DF
:1003B000CF93DF93EC01162F6AEA85E595E57EDFA2
:1003C00065E58AEA9AE27ADF60EA85E595E576DF17
:1003D000612FCE0173DF85E38A95F1F70000DF918D
:1003E000CF911F910895EF92FF920F931F93CF9398
:1003F000DF938C016AEA85E595E560DF65E58AEAC9
:100400009AE25CDF60EA85E595E558DF1695102FE6
:1004100000271795079593E7E92E90E0F92EC0E0A5
:10042000D0E0F70161917F01CE01802B912B46DF57
:100430002196C038D105A9F78FE39CE90197F1F720
:1004400000C00000DF91CF911F910F91FF90EF90BE
:10045000089515BA14BA36DE95980000000083B3EB
:10046000959A089595980000000083B3959A089591
:10047000CF93C62F2FEF24BB25DEC5BB80917C0117
:10048000813431F43998000000000000399A05C029
:100490009698000000000000969A15BA14BACF9101
:1004A00008959BBB88BB65BB80917C01813431F48E
:1004B0003998000000000000399A089596980000CD
:1004C00000000000969A08950F931F93CF938C011C
:1004D000C62F8FEF84BB609167008091650090917B
:1004E0006600DFDF60916B008091690090916A0087
:1004F000D8DF60916F0080916D0090916E00D1DF28
:100500006C2FC801CEDF8DE08A95F1F7000015BA97
:1005100014BAA8DF8C1749F0A5DF92E09A95F1F79D
:1005200000C0909162009130A9F7CF911F910F9177
:1005300008951F93CF93DF93EC01162F80916400F1
:10054000813051F440E06091630080E091E2C6DDCB
:1005500085E88A95F1F70000609167008091650059
:100560009091660085DF60916B00809169009091A9
:100570006A007EDF60916F0080916D0090916E0047
:1005800077DF612FCE0174DF83EF91E00197F1F700
:1005900000C0000015BA14BA3A9895E89A95F1F798
:1005A00000003A9A85E88A95F1F70000DF91CF9133
:1005B0001F910895FF920F931F93CF93DF93EC0148
:1005C000162FFF24FA94F4BA01E20BBB18BA81E0AB
:1005D00085BB96980000969A6091670080916500AF
:1005E0009091660045DF60916B0080916900909169
:1005F0006A003EDF60916F0080916D0090916E0007
:1006000037DFF4BA0BBB18BA8091630085BB9698AC
:100610000000969A612FCE012BDF8AE18A95F1F7CF
:1006200000C015BA14BACE0114DF811751F0CE0103
:1006300010DF9DE09A95F1F70000909162009130F3
:10064000A1F7DF91CF911F910F91FF9008950F9324
:100650001F938C012227332705BB072F182F292F23
:1006600033270BBB68BB94985BBB48BB96980000D4
:1006700000000000969A949A1F910F9108958FEFB1
:1006800084BB8ABB87BB15BA95E09BBB85E588BB5D
:1006900094981BBA29EA28BB969800000000000035
:1006A000969A949A15BA22E02BBB2AEA28BB949812
:1006B0001BBA26E528BB9698000000000000969A19
:1006C000949A15BA9BBB88BB94981BBA80EA88BBE6
:1006D0009698000000000000969A949A08958FEF73
:1006E00084BB8ABB87BB15BA95E09BBB85E588BBFD
:1006F00094981BBA2AEA28BB9698000000000000D4
:10070000969A949A15BA32E03BBB28BB94981BBAD0
:1007100088BB9698000000000000969A949A15BA3B
:100720009BBB88BB94981BBA80EA88BB9698000054
:1007300000000000969A949A0895CF92DF92EF926B
:10074000FF92CF93DF936B017C01EA01211102C07C
:10075000C6DF01C094DFAE01C701B60178DF25E036
:100760002A95F1F70000C701B601ECDC8C179D0754
:1007700059F0C701B601E6DC25E02A95F1F7000043
:1007800020916200213091F7DF91CF91FF90EF909F
:10079000DF90CF900895109262001DBC1CBC8EB5F6
:1007A00083608EBD0895109262001DBC1CBC1EBCEF
:1007B0009398089580916200811104C0F4DF81E371
:1007C00050DC9398089584B7877F84BF88E181BD0A
:1007D00011BC6BDC81B38C6F81BB86B1856086B93F
:1007E00015BA14BA18BA17BA1BBA1ABA80916000AF
:1007F000813019F4979A389802C0389A9798939A4A
:100800002FEF84E39CE0215080409040E1F700C04E
:100810000000939819B8599A539A549A89B78068E6
:1008200089BF1DBC1CBC789408951F920F920FB60F
:100830000F9211248F939F9392B388E0892782BBF4
:1008400081E0809362009F918F910F900FBE0F9077
:100850001F901895CF93DF93CDB7DEB7A7970FB64C
:10086000F894DEBF0FBECDBFAEDF21E02DA366241E
:100870006394C12CD12C760177247A94CE01819691
:100880009AA389A3EDA1E13009F40FDCE6DB8093A4
:100890007301833419F48091600076C7873429F49A
:1008A00009DC81DF10926400EDCF873611F42CDC77
:1008B00008C0833341F4929882E080936000389AB4
:1008C000979871DFDFCF853339F4929A81E0809376
:1008D0006000979A3898F5CF813459F4DBDB40E11A
:1008E00050E060E070E083E790E079D76B017C0135
:1008F000C9CF8235F1F4DEDB81E38093730180910F
:100900007301813309F0BECF939A00E010E0C80173
:100910008C0D9D1DDADBA5DB0F5F1F4F0034110529
:10092000B1F7F0E4CF0ED11CE11CF11C939895DBDC
:10093000E4CF8135A1F4BEDB939A00E010E0C8015A
:100940008C0D9D1DC2DB8DDB0F5F1F4F011520E459
:100950001207A9F780E4D80EE11CF11C97C0873577
:10096000F1F4A8DB80E490E080DB939AF3E7AF2E0C
:10097000F0E0BF2E00E010E0F50161915F01C801D9
:100980008C0D9D1D41E0AADB0F5F1F4F0034110548
:1009900099F7F0E4CF0ED11CE11CF11C31C4823474
:1009A000E1F488DB77DB40E150E060E070E083E772
:1009B00090E015D74B015C0150DB809373018234CA
:1009C00009F060CF67DB83E790E01AD8809363007B
:1009D00040E0682FC40182DB55CF823711F08A36A0
:1009E000B9F592DB809173018A3611F010E201C0F3
:1009F00010E881E38093730188248A94810E912CFE
:100A0000A12CB12C2FEF821A920AA20AB20A80916D
:100A10007301813309F036CF939A16012701C20181
:100A2000B10190DB092F1DDB802F1BDB8FEF281A14
:100A3000380A480A580A822D8C19811780F3C80C8D
:100A4000D91CEA1CFB1C939808DB80937301DFCF51
:100A50008A35F1F459DB939AC701B6015DDB9498AE
:100A60001BBA18BA1ABA17BA00E010E017FD0AC08C
:100A70009598000086B3F5DA89B3F3DA959A0F5F9B
:100A80001F4FF4CF90E8D90EE11CF11C9398FACED9
:100A90008D36E9F40FDB81E380937301809173015C
:100AA0008133B1F5939A00E010E0C8018C0D9D1DD3
:100AB00058DBD7DA0F5F1F4F00341105B1F7E0E4C0
:100AC000CE0ED11CE11CF11C9398C7DAE5CF873715
:100AD00009F5F0DA80E490E0C8DA939AE3E7AE2E05
:100AE000E0E0BE2E00E010E0F50161915F01C80179
:100AF0008C0D9D1D3FDB0F5F1F4F00341105A1F7CB
:100B0000F0E4CF0ED11CE11CF11C81E3AADA93982A
:100B1000FBDAB8CE8F3631F4CDDA9FDA682FC60112
:100B200029DB23C0893649F4C5DAD5DB8091710011
:100B300098DA8091720095DAEBCF8B3649F4AADA15
:100B400083E790E05DD7182FB5DA812FF9DBE0CF8E
:100B5000833769F4AFDA9EDA40E150E060E070E09C
:100B600083E790E03CD6862FFEDB81E3E4CF82363C
:100B7000C1F4A0DA80E490E078DA939A73E7A72EC4
:100B800070E0B72E00E010E0F50161915F01C8014F
:100B90008C0D9D1D0CDC0F5F1F4F00341105A1F75C
:100BA000AFCF813669F486DA80E890E05EDA939A16
:100BB000C60119DC2FEFC21AD20AE20AF20AA5CF47
:100BC000833551F467DA40E150E060E070E083E79C
:100BD00090E005D6662E56CE853601F5DBDA81E348
:100BE0008093730180917301813309F091CF939ABF
:100BF000662DC6010CDB04E711E0F80181918F013D
:100C000030DA8CE791E080179107B9F79FEFC91AA6
:100C1000D90AE90AF90A939820DAE2CF8037E1F499
:100C2000B9DA04E711E019DAF80181938F018CE752
:100C300091E08E179F07B9F7939A662DC60114DBD2
:100C40009FEFC91AD90AE90AF90AEFE7FEE33197DB
:100C5000F1F700C0000059CF803549F4FED98093E8
:100C60007C01813409F00ECE319A399A0BCE8E3444
:100C700021F481E08093640005CE853421F505E6FA
:100C800010E008DA40E150E060E070E083E790E0D7
:100C9000A6D5F8017183608381E3E3D9FBD940E1F4
:100CA00050E060E070E083E790E099D5F80173834D
:100CB000628381E3D6D90C5F1F4F81E790E08017F4
:100CC0009107F9F6DFCD8634B1F4E4D940E150E084
:100CD00060E070E083E790E082D54B015C01DAD9F7
:100CE00040E150E060E070E083E790E078D5939ACF
:100CF000C401BEDB85C2843599F580E490E0B5D9A6
:100D00004ADD939A8091640063E7A62E60E0B62ED8
:100D100000E010E081111AC0F50161915F016F3FA1
:100D200021F0C8018C0D9D1DCFDB0F5F1F4F0034DC
:100D3000110591F720E4C20ED11CE11CF11C0EC577
:100D40000F5F1F4F0034110509F4DEC0F5016191FA
:100D50005F016F3FA9F3C8018C0D9D1D2BDCF0CF07
:100D6000893509F04EC080E290E07FD914DD939A76
:100D70006AEA8AEA9AE07CDB65E585E595E078DB5E
:100D8000560165E2C60174DB6FE1C60171DB82E0EA
:100D90008A95F1F700C003E710E0812C912CF8014F
:100DA00061918F01C501880D991D62DBFFEF8F1ADC
:100DB0009F0A20E28216910491F780E2C80ED11CAE
:100DC000E11CF11CC601809769E252DBEFE8F1E01B
:100DD0003197F1F700C00000860101501109C801E8
:100DE00038DB90919200891709F4B8C4C80131DB4F
:100DF000FDE0FA95F1F7000090916200913089F7DB
:100E0000ADC4853509F065C080E091E02ED9C3DC22
:100E1000939A43E7842E40E0942E58E0352ECE017D
:100E200001962C01FC01D4018D91819389A19AA195
:100E30008E179F07C9F76AEA8AEA9AE019DB65E527
:100E400085E595E015DB560165E2C60111DB6FE132
:100E5000C6010EDB92E09A95F1F700C000E010E0C9
:100E6000F20161912F01C501800F911F01DB0F5F1E
:100E70001F4F00321105A1F7F0E2CF0ED11CE11C8B
:100E8000F11CC601809769E2F3DA8FE891E00197DF
:100E9000F1F700C00000860101501109C801D9DA3C
:100EA00098A1891751F0C801D4DA9DE09A95F1F71D
:100EB000000090916200913099F78091620081303A
:100EC00009F44CC43A94E0E28E0E911C3110A7CF85
:100ED00045C48A34F9F480E490E0C7D85CDC939A86
:100EE00033E7A32E30E0B32E00E010E0F50161916E
:100EF0005F016F3F21F0C8018C0D9D1D1ADB0F5F54
:100F00001F4F0034110591F7F0E4CF0ED11CE11C06
:100F1000F11C24C4883509F047C080E091E0A5D8D1
:100F20003ADC939A69EA8AEA9AE0A2DA66E585E50C
:100F300095E09EDA560166E2C6019ADA6FEFC601C5
:100F400097DA25E82A95F1F7000003E710E0812CF5
:100F5000912CF80161918F01C4018A0D9B1D88DAE3
:100F6000FFEF8F1A9F0A811421E0920691F78FEF0D
:100F7000D81AE80AF80AC6019A956AE279DA86016F
:100F800001501109C80165DA90917201891709F4BD
:100F9000E5C3C8015EDA9DE09A95F1F700009091F3
:100FA0006200913089F7DAC38A3709F0BCC080E863
:100FB00090E05BD8939A69E080E291E059DA6AEABE
:100FC00081E291E055DA65E582E291E051DA65EA85
:100FD0008FE391E04DDAEDE0EA95F1F7000061E191
:100FE00080E291E045DA65EA8FE391E041DAFDE0E5
:100FF000FA95F1F7000061E080E091E239DA2DE046
:101000002A95F1F700006FE080E291E031DA65E5C2
:1010100085E291E02DDA65E586E291E029DA6AEA77
:1010200087E291E025DA65EA8FE391E021DA8DE04D
:101030008A95F1F700006FE080E291E019DA6AE248
:1010400085E291E015DA6AEA86E291E011DA65E577
:1010500087E291E00DDA65EA8FE391E009DA9DE03D
:101060009A95F1F700006FE080E291E001DA65E522
:1010700085E291E0FDD965E586E291E0F9D960EA83
:1010800087E291E0F5D965EA8FE391E0F1D9EDE0EF
:10109000EA95F1F7000040E06091630080E091E2A2
:1010A0001DD8FDE0FA95F1F7000060E180E291E0E3
:1010B000DFD965EA8FE391E0DBD92DE02A95F1F7DE
:1010C000000068E080E291E0D3D965EA8FE391E027
:1010D000CFD98DE08A95F1F7000003E710E083EFA8
:1010E00090E08017910779F0F80161918F01C601B6
:1010F000BFD9FDE0FA95F1F700002FEFC21AD20A2E
:10110000E20AF20AECCF6FEFD701C6010197A109FD
:10111000B109AED9EFE1FEE43197F1F700C000006C
:1011200081E39FD7B3CC893709F048C080E290E0D3
:101130009CD7939A860168EEC6019AD92CDBC80128
:1011400088D9803821F0809162008130C1F7809188
:101150006200811197CB1FDB6FE1C80189D923E7BA
:10116000A22E20E0B22E812C912CF50161915F011D
:10117000C401800F911F7CD9FFEF8F1A9F0A20E2D4
:101180008216910491F780E2C80ED11CE11CF11C7B
:1011900086010052110960EDC8016AD9E7E8F1E063
:1011A0003197F1F700C00000C80153D9803809F425
:1011B000D5C2809162008130B9F7D0C28E3619F560
:1011C00069D740E150E060E070E083E790E007D34A
:1011D0004B015C0142D7809373018E3609F052CBEC
:1011E00059D740E150E060E070E083E790E0F7D24B
:1011F000939A74BA7ABA77BAAB01C501B40127DA07
:10120000939881E3C1C2813711F08437F1F5939A45
:1012100080917301843719F000E410E002C000E00F
:1012200011E0C80122D7B7DA93E7A92E90E0B92ED2
:1012300016012701F501418150E0542F4427808198
:10124000482B4F3FFFEF5F0721F021E0C201B101C2
:1012500074DA2FEF221A320A420A520A82E0A80EEA
:10126000B11CC50183579040801791071CF39FEF75
:10127000C91AD90AE90AF90A015011091695079500
:10128000C00ED11EE11CF11C69C2863651F5939A3D
:1012900080E091E0EAD67FDA03E710E046015701EB
:1012A000F801418150E0542F44278081482B4F3F63
:1012B000FFEF5F0721F020E0C501B4013EDA2FEF18
:1012C000821A920AA20AB20A0E5F1F4F83E791E0C8
:1012D0008017910729F790E8C90ED11CE11CF11C79
:1012E0003DC2833609F094C080E091E0BED6939A67
:1012F00003E710E050DA74BA7ABA77BAFE01319691
:101300005F01D8018D91819389A19AA1E817F9070E
:10131000C9F74AEA50E065E575E080E090E097D9CA
:1013200045E550E06AEA72E080E090E090D945E25D
:1013300050E0C701B6018BD94FE050E0C701B601BC
:1013400086D992E09A95F1F700C0C701AA27BB277A
:1013500085BBBB27AF2D9E2D8D2D8BBBC8BA949816
:10136000F50181818BBB808188BB969800000000CD
:101370000000969A95980000959AF2E0AF0EB11C85
:1013800089A19AA1A816B90659F74601570190E11B
:10139000890E911CA11CB11C16012701EFE02E0E35
:1013A000311C411C511C949AC701B6016F5F7F4FDD
:1013B0008F4F9F4F49E250E04AD98FE891E0019763
:1013C000F1F700C00000EF8CF8A0C201B101BAD65D
:1013D0008E159F0559F0C201B101B4D6E2E0EA953D
:1013E000F1F700C020916200213091F780916200F6
:1013F000813051F0005E1F4F83E791E08017910725
:1014000019F07501640176CFD5D9750164013ACA26
:101410008C3609F078C0939A80E490E026D6BBD948
:1014200074BA7ABA77BA40E650E0C701B6010FD96C
:1014300040ED50E0C701B6010AD948EE50E0C701BF
:10144000B60105D995E89A95F1F70000C701B601F4
:1014500079D68038910559F0C701B60173D6E5E811
:10146000EA95F1F7000020916200213091F774BAFB
:101470007ABA77BA4FE150E0C701B601E8D803E77E
:1014800010E046015701F801418150E0542F4427F4
:101490008081482BC501B401DAD8FFEF8F1A9F0A6B
:1014A000AF0ABF0A0E5F1F4F83EB90E080179107D2
:1014B00051F790E2C90ED11CE11CF11C40ED50E047
:1014C000C701B601C4D8EFE6F3E03197F1F700C0E9
:1014D0000000C701B60136D68038910559F0C70122
:1014E000B60130D6F5E8FA95F1F7000020916200D8
:1014F000213091F774BA7ABA77BA4FEF50E0C7014A
:10150000B601A5D82BC1853709F041C0939A80E474
:1015100090E0ABD540D943E7A42E40E0B42E1601AD
:10152000270174BA7ABA77BAF501018110E0102F59
:1015300000278081082B40E450E0C201B10187D828
:10154000A801C201B10183D8C201B101FBD587FD59
:101550000BC0C201B101F6D5F5E0FA95F1F7000034
:1015600090916200913099F72FEF221A320A420AC5
:10157000520A82E0A80EB11C93EBA91690E0B906BE
:1015800081F6E0E2CE0ED11CE11CF11CE7C08637EB
:1015900009F0A0C0939A80E091E067D5FCD803E7FA
:1015A00010E074BA7ABA77BA48EE50E0C701B601D3
:1015B0004ED846015701FFEF8F1A9F0AAF0ABF0AA4
:1015C00048EE50E0C501B40142D8C701B601BAD512
:1015D0008038910549F0809162008130B1F704C0F4
:1015E00080916200813031F0C501B401ABD5803803
:1015F0009105B1F78091620081115CC0CCD874BABA
:101600007ABA77BA4FE050E0C701B60120D84FE070
:1016100050E0C501B4011BD81CA30BA31601270180
:101620001FA21EA2EBA1FCA1418150E0542F442730
:101630008081482BC201B1010AD8FFEF2F1A3F0A5F
:101640004F0A5F0A8EA19FA102969FA38EA3EBA1D2
:10165000FCA13296FCA3EBA38034910519F7160187
:101660002701F0E22F0E311C411C511C40ED50E0CF
:10167000C701B601ECD740ED50E0C501B401E7D792
:10168000C201B1015FD58038910521F080916200DF
:101690008130B1F721E2C20ED11CE11CF11CC7015F
:1016A000B60150D58038910539F0809162008130C3
:1016B000B1F702C016012701005C1F4F83E791E0DC
:1016C0008017910719F0720161016BCF73D8720115
:1016D0006101D8C8883709F043C0939A80E490E04C
:1016E000C4D459D893E7A92E90E0B92E160127014A
:1016F000912C74BA7ABA77BA97FC0AC040E750E0E6
:10170000C201B101A4D7C201B1011CD5982EF1CFFD
:10171000F501018110E0102F00278081082B40E1A6
:1017200050E0C201B10193D7A801C201B1018FD726
:10173000FAE6FA95F1F700C02FEF221A320A420AB0
:10174000520A82E0A80EB11CE3EBF0E0EA15FB05BB
:1017500081F6F0E2CF0ED11CE11CF11C2BD892C80F
:101760008D3459F47AD4813319F491E09DA38DC856
:10177000803309F087C81DA289C8883611F484E037
:1017800003C0863519F486E16CD47CC88B3251F4E1
:1017900000E010E481E365D480E363D401501109D3
:1017A000C9F770C88A3209F06DC874D440E150E0BE
:1017B00060E070E083E790E012D0613E754E8740B4
:1017C000910509F05FC884B7877F84BF88E181BD38
:1017D0008CE081BD8FEF9FEF0197F1F753C8A0E038
:1017E000B0E0E4EFFBE078C15C016B017A016115C8
:1017F000710519F0FB0191838083E114F10429F054
:10180000C7010297839708F0E2C0E5012196F50130
:101810001081812F90E011D1892B11F05E01F5CF5D
:101820001D3229F42196F501118101E007C01B3218
:1018300021F4E5012296F501118100E0E114F104A3
:1018400009F1F0E1EF16F10429F43EC010E3E114D0
:10185000F10421F128E0E216F10401F154F4E2E090
:10186000EE16F10421F5812C912CA12CB0E4BB2EB5
:101870003DC0FAE0EF16F10439F020E1E216F10480
:10188000B1F42FC0103311F1FAE0EF2EF12CACECD3
:101890008A2E982CA82CACE0BA2E28C078E0E72E2F
:1018A000F12C812C912CA12CE0E1BE2E1FC060E018
:1018B00070E080E090E897010F2C000C440B550B72
:1018C000DED049015A0112C0103359F488818F7D4E
:1018D000883509F0BBCF19812296026080E1E82E9D
:1018E000F12C812C912CA12C68E0B62E40E060E018
:1018F00070E0CB0127010F2C000C66087708FE0171
:1019000050ED352E310E29E0231570F42FEB210F09
:101910002A3118F439EC332E06C02FE9210F2A3171
:1019200010F529EA322E310E232D30E02E153F0519
:10193000D4F447FD15C086169706A806B90668F0C8
:10194000A30192018DD0630D711D811D911D613028
:101950007105810520E8920710F04FEF01C041E0CA
:1019600021961081CCCF202F2170C114D10471F0A9
:10197000442329F02197F601D183C08307C001FFDA
:1019800019C02297F601D183C08314C047FF12C04B
:10199000222329F060E070E080E090E804C06FEF5F
:1019A0007FEF8FEF9FE722E230E030937E012093BC
:1019B0007D0109C0222381F09095809570956195F5
:1019C0007F4F8F4F9F4F462F372F282F12C040E059
:1019D00030E020E090E00DC097FFF5CF82E290E08C
:1019E00090937E0180937D016FEF7FEF8FEF9FE7F4
:1019F000EACF642F732F822FCDB7DEB7E1E188C025
:101A0000FC0188279927E89421912032E9F32930B5
:101A100010F02E30C8F32B3239F02D3231F46894A7
:101A200003C013D0820F911D219120532A30C8F397
:101A30001EF4909581959F4F089591110EC08032AC
:101A400019F089508550D0F708957AE0979F902D2E
:101A5000879F802D910D1124089599278827089537
:101A6000DB018F939F932DD0BF91AF91A29F800DEB
:101A7000911DA39F900DB29F900D11240895A1E296
:101A80001A2EAA1BBB1BFD010DC0AA1FBB1FEE1FF8
:101A9000FF1FA217B307E407F50720F0A21BB30B43
:101AA000E40BF50B661F771F881F991F1A9469F7BF
:101AB00060957095809590959B01AC01BD01CF011B
:101AC000089540D0A59F900DB49F900DA49F800DC8
:101AD000911D112408952F923F924F925F926F9221
:101AE0007F928F929F92AF92BF92CF92DF92EF92AE
:101AF000FF920F931F93CF93DF93CDB7DEB7CA1B2F
:101B0000DB0B0FB6F894DEBF0FBECDBF09942A8859
:101B1000398848885F846E847D848C849B84AA8401
:101B2000B984C884DF80EE80FD800C811B81AA818E
:101B3000B981CE0FD11D0FB6F894DEBF0FBECDBF59
:101B4000ED010895A29FB001B39FC001A39F01D0F2
:101B5000B29F700D811D1124911D0895F894FFCF3F
:021B6000020081
:00000001FF
