:1000000010C01FC01EC01DC01CC01BC01AC019C01C
:1000100018C017C016C015C014C013C012C011C03C
:1000200010C011241FBECFE5D2E0DEBFCDBF21E05E
:10003000A0E6B0E001C01D92AC37B207E1F773D380
:10004000B3CADECF5F9BFECF8CB108955D9BFECF20
:100050008CB908950F931F93CF93DF938C01C0E762
:10006000D0E0CE0180579040801791071CF4EADF62
:100070008993F7CFDF91CF911F910F910895CF937F
:10008000DF93C0E7D0E0DEDF89938111FCCFDF9101
:10009000CF9108953A9A949A959A969A089515BA96
:1000A00014BA18BA1BBA8FEF87BB8ABB08959BBBE3
:1000B00088BB0895FCDF949895980000000083B3F6
:1000C000959A949A0895CF93DF93D62FC42FEFDF9C
:1000D0008FEF84BBD5BB9698C13009F4949800008B
:1000E000C13009F4949A969A15BA14BADF91CF9157
:1000F000089518BA1BBA15BA8FEF87BB8ABB84BBA9
:1001000008950F931F9315BA1BBA18BA2FEF24BB8B
:100110002ABB27BB8C012227332705BB072F182FAB
:10012000292F33270BBB68BB1F910F910895E9DF7F
:1001300094981BBA18BA1ABA17BA9598000029B33E
:1001400086B3959A949A90E0922B0895B0DF959893
:100150003A980000000083B33A9A959A0895CF9395
:10016000C62FA5DF8FEF84BBC5BB96983A980000D9
:1001700000003A9A969A15BA14BACF9108958FEF63
:1001800087BB8ABB84BB90E898BB8BBB85BB0895BB
:100190009498623049F4411105C0906C2FE0E1E081
:1001A000F0E013C09068FACF411102C0806C01C02A
:1001B000806827E0F4CFC098969800000000969AD7
:1001C00000000000215027FD0DC0BF01022E02C01B
:1001D000660F771F0A94E2F768237923672B59F398
:1001E000C09AEACF411107C0C0980000969800005D
:1001F0000000969A949A089540E0CADFC098B89893
:10020000949884E0959800000000959A0000000002
:100210008150C1F7E1E7F1E041E050E087E090E094
:1002200020E0959800000000959AB09B07C0BA01A5
:10023000082E01C0660F0A94EAF7262B019788F76B
:10024000219381E0E937F80749F7949AC09AB89A60
:10025000089541E09DDFE1E7F1E048E027E030E08C
:10026000808190E0022E02C0959587950A94E2F76E
:1002700080FF02C0C09A01C0C0989698000000009C
:10028000969A000000002150310950F741503196F4
:100290004111E4CFC098969800000000969A0000A3
:1002A0000000949A0895CF93C62F2FEF24BBFFDE52
:1002B000C5BB96983A980000969A3A9ACF910895BD
:1002C000CF93DF936AEA85E595E5EDDF65E58AEA98
:1002D0009AE2E9DF60E985E595E5E5DF8FE39CE9F2
:1002E0000197F1F700C0000015BA14BA80E090E061
:1002F0002DDFCEE6D0E0888381E090E027DF8983A0
:100300006AEA85E595E5CFDF65E58AEA9AE2CBDF23
:1003100060EF85E595E5C7DF8FE39CE90197F1F78D
:1003200000C00000DF91CF910895CF93C82F6AEAF3
:1003300085E595E5B8DF65E58AEA9AE2B4DF60EB2A
:1003400085E595E5B0DF6C2F80E090E0CF91ABCFF5
:10035000CF93C82F6AEA85E595E5A5DF65E58AEACA
:100360009AE2A1DF60E885E595E59DDF6AEA85E52B
:1003700095E599DF65E58AEA9AE295DF60E380E03A
:100380009C2F9295907F8FDF8FE493EC0197F1F78C
:1003900000C00000CF9108951F93CF93DF93EC012D
:1003A000162F6AEA85E595E57EDF65E58AEA9AE239
:1003B0007ADF60EA85E595E576DF612FCE0173DFB0
:1003C00085E38A95F1F70000DF91CF911F910895A1
:1003D000EF92FF920F931F93CF93DF938C016AEA02
:1003E00085E595E560DF65E58AEA9AE25CDF60EA2B
:1003F00085E595E558DF1695102F00271795079589
:1004000090E7E92E90E0F92EC0E0D0E0F70161918D
:100410007F01CE01802B912B46DF2196C038D1057C
:10042000A9F78FE39CE90197F1F700C00000DF9185
:10043000CF911F910F91FF90EF90089515BA14BAC4
:1004400036DE95980000000083B3959A0895CF9307
:10045000C62F2FEF24BB2BDEC5BB809179018134E1
:1004600031F43998000000000000399A05C09698D0
:10047000000000000000969A15BA14BACF910895B2
:100480001F93CF93DF93EC01162F6091640080914E
:10049000620090916300DBDF6091680080916600EC
:1004A00090916700D4DF60916C0080916A00909118
:1004B0006B00CDDF612FCE01CADF8AE18A95F1F7AB
:1004C00000C015BA14BACE01B9DF811739F0CE01D8
:1004D000B5DF9DE09A95F1F70000F7CFDF91CF915E
:1004E0001F910895FF920F931F93CF93DF93EC0119
:1004F000162FFF24FA94F4BA01E20BBB18BA81E07C
:1005000085BB96980000969A609164008091620085
:10051000909163009CDF60916800809166009091EB
:10052000670095DF60916C0080916A0090916B008C
:100530008EDFF4BA0BBB18BA8091600085BB969829
:100540000000969A612FCE0182DF8AE18A95F1F749
:1005500000C015BA14BACE0171DF811739F0CE018F
:100560006DDF9DE09A95F1F70000F7CFDF91CF9115
:100570001F910F91FF9008950F931F938C012227D5
:10058000332705BB072F182F292F33270BBB68BB39
:1005900094985BBB48BB9698000000000000969AB8
:1005A000949A1F910F9108958FEF84BB8ABB87BBEC
:1005B00015BA95E09BBB85E588BB94981BBA29EAE0
:1005C00028BB9698000000000000969A949A15BAED
:1005D00022E02BBB2AEA28BB94981BBA26E528BB4D
:1005E0009698000000000000969A949A15BA9BBB5A
:1005F00088BB94981BBA80EA88BB969800000000DC
:100600000000969A949A08958FEF84BB8ABB87BBAB
:1006100015BA95E09BBB85E588BB94981BBA2AEA7E
:1006200028BB9698000000000000969A949A15BA8C
:1006300032E03BBB28BB94981BBA88BB969800005D
:1006400000000000969A949A15BA9BBB88BB9498B8
:100650001BBA80EA88BB9698000000000000969ABA
:10066000949A0895CF92DF92EF92FF92CF93DF9307
:100670006B017C01EA01211102C0C6DF01C094DFD9
:10068000AE01C701B60178DF25E02A95F1F7000039
:10069000C701B6014CDD8C179D0741F0C701B601BB
:1006A00046DD25E02A95F1F70000F5CFDF91CF91E7
:1006B000FF90EF90DF90CF90089584B7877F84BF3D
:1006C00088E181BD11BCE6DC81B3886F81BB86B156
:1006D000856086B915BA14BA18BA17BA1BBA1ABA0D
:1006E000829B0EC0979A38983A982FE788E391E05A
:1006F000215080409040E1F700C000003A9A02C0CB
:10070000389A9798939A2FEF84E39CE02150804089
:100710009040E1F700C00000939819B8599A539A95
:10072000549A78940895CF93DF9300D0CDB7DEB775
:10073000C4DF21E0298381E08A83C12CD12C76019A
:10074000B9E76B2EB1E07B2EE981E13009F4A2DC40
:1007500079DC80937001829B04C0979A389881E07D
:1007600003C0389A979882E090917001933409F40D
:100770003DC5973411F493DCE7CF973609F4E9C00F
:10078000913459F47CDC40E150E060E070E080E7B7
:1007900090E04BD56B017C01D7CF9235F9F47FDC2B
:1007A000F1E3F093700180917001813369F6939ABF
:1007B00000E010E0C8018C0D9D1D7CDC47DC0F5F64
:1007C0001F4F00341105B1F720E4C20ED11CE11C0B
:1007D000F11C939837DC80937001E5CF9735F1F4E5
:1007E0005EDC80E490E036DC939AA0E7AA2EA0E0DD
:1007F000BA2E00E010E0F50161915F01C8018C0D97
:100800009D1D41E060DC0F5F1F4F0034110599F71B
:10081000F0E4CF0ED11CE11CF11C30C39234E1F4A2
:100820003EDC2DDC40E150E060E070E080E790E0ED
:10083000FCD44B015C0106DC80937001823409F02A
:1008400083CF1DDC80E790E001D68093600040E01C
:10085000682FC40138DC78CF923711F09A36B9F599
:1008600048DC809170018A3611F410E801C010E272
:1008700021E32093700188248A94810E912CA12C6D
:10088000B12C8FEF881A980AA80AB80A80917001D3
:10089000813309F059CF939A16012701C201B101A2
:1008A00046DC092FD3DB802FD1DB9FEF291A390AD1
:1008B000490A590A822D8C19811780F3C80CD91C5A
:1008C000EA1CFB1C9398BEDB80937001DFCF9D3642
:1008D000F9F4E5DBE1E3E09370018091700181338D
:1008E000C1F5939A00E010E0C8018C0D9D1D2EDC2F
:1008F000ADDB0F5F1F4F00341105B1F7F0E4CF0EF1
:10090000D11CE11CF11C93989DDB80937001E5CF15
:10091000973709F5C4DB80E490E09CDB939AF0E71D
:10092000AF2EF0E0BF2E00E010E0F50161915F0115
:10093000C8018C0D9D1D13DC0F5F1F4F0034110586
:10094000A1F7F0E4CF0ED11CE11CF11C81E37EDBAA
:100950009398CFDBF9CE9F3631F4A1DB73DB682FA0
:10096000C601FDDB23C0993649F499DBA9DC8091EF
:100970006E006CDB80916F0069DBEBCF9B3649F436
:100980007EDB80E790E062D5182F89DB812FCDDCFC
:10099000E0CF933769F483DB72DB40E150E060E045
:1009A00070E080E790E041D4862FD2DC81E3E4CF91
:1009B0009236C1F474DB80E490E04CDB939AE0E77C
:1009C000AE2EE0E0BE2E00E010E0F50161915F0187
:1009D000C8018C0D9D1DE0DC0F5F1F4F0034110519
:1009E000A1F7AFCF913669F45ADB80E890E032DBB3
:1009F000939AC601EDDC2FEFC21AD20AE20AF20A7C
:100A0000A5CF933551F43BDB40E150E060E070E06E
:100A100080E790E00AD46A8397CE9536F1F4AFDB95
:100A200081E38093700180917001813309F091CF4F
:100A3000939A6A81C601E0DB01E711E0F801819138
:100A40008F0104DB60167106C9F7FFEFCF1ADF0ACA
:100A5000EF0AFF0A9398F6DAE4CF9037D1F48FDBF0
:100A600001E711E0EFDAF80181938F016E167F063E
:100A7000C9F7939A6A81C601ECDBFFEFCF1ADF0A50
:100A8000EF0AFF0A8FE79EE30197F1F700C000002D
:100A90005DCF903549F4D6DA80937901813409F03D
:100AA00053CE319A399A50CE9E3421F491E09093EE
:100AB00061004ACE953421F502E610E0E0DA40E12B
:100AC00050E060E070E080E790E0AFD3F801718320
:100AD000608381E3BBDAD3DA40E150E060E070E0AC
:100AE00080E790E0A2D3F8017383628381E3AEDAFA
:100AF0000C5F1F4F8EE690E080179107F9F624CE29
:100B00009634B1F4BCDA40E150E060E070E080E798
:100B100090E08BD34B015C01B2DA40E150E060E041
:100B200070E080E790E081D3939AC40190DCA6C185
:100B3000943541F580E490E08DDA939A60E7A62E33
:100B400060E0B62E70E4972E860100571040809129
:100B50006100F5016081811105C0C8018A0D9B1DEE
:100B60008FDC04C0C8018A0D9B1DBCDC9A94FFEF8A
:100B7000AF1ABF0A9110EBCF20E4C20ED11CE11CCA
:100B8000F11C58C2993509F055C080E290E062DA54
:100B9000939A6AEA8AEA9AE05ADC65E585E595E087
:100BA00056DC560165E2C60152DC6FE1C6014FDC3E
:100BB00082E08A95F1F700C000E710E0812C912CCB
:100BC000F80161918F01C4018A0D9B1D40DCFFEF8C
:100BD0008F1A9F0A20E28216910491F780E2C80ED4
:100BE000D11CE11CF11CC601809769E230DCEFE802
:100BF000F1E03197F1F700C00000860101501109C2
:100C0000C8011CDC58ECB52E90918F00891709F4AF
:100C100011C2C80113DCFDE0FA95F1F70000BA94A7
:100C2000B110F2CF2FEF84E39CE021508040904040
:100C3000E1F7FEC0983509F042C080E091E00ADAA1
:100C4000939A69EA8AEA9AE002DC66E585E595E02E
:100C5000FEDB560166E2C601FADB6FEFC601F7DB89
:100C6000E5E8EA95F1F7000000E710E0812C912C0F
:100C7000F80161918F01C4018A0D9B1DE8DBFFEF34
:100C80008F1A9F0A811421E0920691F78FEFD81AEC
:100C9000E80AF80AC6019A956AE2D9DB8601015092
:100CA0001109C801CBDB90916F01891709F4C2C10A
:100CB000C801C4DB9DE09A95F1F70000F4CF9A35A6
:100CC00009F0B9C080E890E0C5D9939A69E080E264
:100CD00091E0BDDB6AEA81E291E0B9DB65E582E2A1
:100CE00091E0B5DB65EA8FE391E0B1DBEDE0EA95F9
:100CF000F1F7000061E180E291E0A9DB65EA8FE3B2
:100D000091E0A5DBFDE0FA95F1F7000061E080E0FD
:100D100091E29DDB2DE02A95F1F700006FE080E283
:100D200091E095DB65E585E291E091DB65E586E2A2
:100D300091E08DDB6AEA87E291E089DB65EA8FE387
:100D400091E085DB8DE08A95F1F700006FE080E2AD
:100D500091E07DDB6AE285E291E079DB6AEA86E296
:100D600091E075DB65E587E291E071DB65EA8FE391
:100D700091E06DDB9DE09A95F1F700006FE080E275
:100D800091E065DB65E585E291E061DB65E586E2A2
:100D900091E05DDB60EA87E291E059DB65EA8FE391
:100DA00091E055DBEDE0EA95F1F7000040E060915D
:100DB000600080E091E287D9FDE0FA95F1F700004C
:100DC00060E180E291E043DB65EA8FE391E03FDBA5
:100DD0002DE02A95F1F7000068E080E291E037DB32
:100DE00065EA8FE391E033DB8DE08A95F1F700004F
:100DF00000E710E080E0003F180779F0F80161910A
:100E00008F01C60124DBFDE0FA95F1F700002FEF1A
:100E1000C21AD20AE20AF20AEDCF6FEFD701C60179
:100E20000197A109B10913DBEFE1FEE43197F1F776
:100E300000C00000FFC09E3621F521D940E150E0FE
:100E400060E070E080E790E0F0D14B015C01FAD8FF
:100E5000809370018E3609F077CC11D940E150E0D3
:100E600060E070E080E790E0E0D1939A2FEF24BB40
:100E70002ABB27BBAB01C501B4017EDB939881E39C
:100E8000B5C1913711F09437C9F5939A80917001EB
:100E9000843719F400E011E002C000E410E0C8015A
:100EA000D9D840E7A42E40E0B42E16012701F50161
:100EB000418150E0542F44278081482B21E0C2011A
:100EC000B101D0DBFFEF2F1A3F0A4F0A5F0A22E081
:100ED000A20EB11CC50180579040801791073CF3CA
:100EE0008FEFC81AD80AE80AF80A015011091695B6
:100EF0000795C00ED11EE11CF11C9CC0963621F551
:100F0000939A80E091E0A6D800E710E046015701EF
:100F1000F801418150E0542F44278081482B20E084
:100F2000C501B4019FDBFFEF8F1A9F0AAF0ABF0A0A
:100F30000E5F1F4F21E00037120751F780E8C80EFF
:100F4000D11CE11CF11C76C09C3609F075C0939A47
:100F500080E490E07FD88FEF84BB8ABB87BB40E6FC
:100F600050E0C701B60108DB40ED50E0C701B60113
:100F700003DB48EE50E0C701B601FEDA95E89A952A
:100F8000F1F70000C701B601D2D88038910541F0D1
:100F9000C701B601CCD8E5E8EA95F1F70000F5CF36
:100FA0008FEF84BB8ABB87BB4FE150E0C701B6011E
:100FB000E3DA00E710E046015701F801418150E013
:100FC000542F44278081482BC501B401D5DAFFEFA7
:100FD0008F1A9F0AAF0ABF0A0E5F1F4F80EB90E087
:100FE0008017910751F790E2C90ED11CE11CF11C4A
:100FF00040ED50E0C701B601BFDAEFE6F3E031970C
:10100000F1F700C00000C701B60191D88038910502
:1010100041F0C701B6018BD8F5E8FA95F1F7000069
:10102000F5CF8FEF84BB8ABB87BB4FEF50E0C70182
:10103000B601A2DA81E3C3C0993419F09F3409F0F4
:1010400050C000D8182F1BD840E150E060E070E09D
:1010500080E790E0EAD0939A809170018934F9F4A6
:10106000113421F48AB36095682320C0123421F42E
:1010700087B36095682320C0133421F484B360954E
:10108000682320C0143421F481B36095682320C004
:10109000153409F095C086B16095682320C08F345F
:1010A00009F08EC0113421F48AB3682B6ABB88C062
:1010B000123421F487B3682B67BB82C0133421F448
:1010C00084B3682B64BB7CC0143421F481B3682BD7
:1010D00061BB76C0153409F073C086B1682B66B960
:1010E0006FC09C3451F5AED7182FC9D740E150E0FE
:1010F00060E070E080E790E098D0939A113421F49A
:101100008BB3609568232AC0123421F488B36095AC
:1011100068232AC0133421F485B3609568232AC05C
:10112000143421F482B3609568232AC0153409F081
:1011300047C087B16095682329C0983449F582D7A4
:10114000182F9DD740E150E060E070E080E790E02C
:101150006CD0939A113421F48BB3682B6BBB30C0E5
:10116000123421F488B3682B68BB2AC0133421F4ED
:1011700085B3682B65BB24C0143421F482B3682B7B
:1011800062BB1EC01534E1F487B1682B67B918C083
:101190009434C1F457D7939A813411F489B30FC0B2
:1011A000823411F486B30BC0833411F483B307C0C7
:1011B000843411F480B303C0853411F485B146D76B
:1011C0009398C2CA9D3459F43DD7813319F491E004
:1011D0009983BDCA803309F0B7CA1982B9CA983653
:1011E00011F482E003C0963519F48DE02FD7ACCA14
:1011F0009A3209F0A9CA43D740E150E060E070E0BC
:1012000080E790E012D0613E754E8740910509F06D
:101210009BCA84B7877F84BF88E181BD9CE091BD74
:101220008FEF9FEF0197F1F78FCAA0E0B0E0EAE1FE
:10123000F9E078C15C016B017A016115710519F063
:10124000FB0191838083E114F10429F0C701029727
:10125000839708F0E2C0E5012196F5011081812F06
:1012600090E011D1892B11F05E01F5CF1D3229F4E8
:101270002196F501118101E007C01B3221F4E5013F
:101280002296F501118100E0E114F10409F1F0E189
:10129000EF16F10429F43EC010E3E114F10421F14A
:1012A00028E0E216F10401F154F4E2E0EE16F10454
:1012B00021F5812C912CA12CB0E4BB2E3DC0FAE08D
:1012C000EF16F10439F020E1E216F104B1F42FC079
:1012D000103311F1FAE0EF2EF12CACEC8A2E982CA1
:1012E000A82CACE0BA2E28C078E0E72EF12C812C97
:1012F000912CA12CE0E1BE2E1FC060E070E080E0E8
:1013000090E897010F2C000C440B550BDED04901DF
:101310005A0112C0103359F488818F7D883509F045
:10132000BBCF19812296026080E1E82EF12C812C3E
:10133000912CA12C68E0B62E40E060E070E0CB017B
:1013400027010F2C000C66087708FE0150ED352EA2
:10135000310E29E0231570F42FEB210F2A3118F4F8
:1013600039EC332E06C02FE9210F2A3110F529EA76
:10137000322E310E232D30E02E153F05D4F447FDDB
:1013800015C086169706A806B90668F0A301920153
:101390008DD0630D711D811D911D61307105810519
:1013A00020E8920710F04FEF01C041E02196108134
:1013B000CCCF202F2170C114D10471F0442329F027
:1013C0002197F601D183C08307C001FF19C022977E
:1013D000F601D183C08314C047FF12C0222329F035
:1013E00060E070E080E090E804C06FEF7FEF8FEF87
:1013F0009FE722E230E030937B0120937A0109C01D
:10140000222381F090958095709561957F4F8F4F45
:101410009F4F462F372F282F12C040E030E020E0AA
:1014200090E00DC097FFF5CF82E290E090937B01B2
:1014300080937A016FEF7FEF8FEF9FE7EACF642F02
:10144000732F822FCDB7DEB7E1E188C0FC0188277A
:101450009927E89421912032E9F3293010F02E30B9
:10146000C8F32B3239F02D3231F4689403C013D015
:10147000820F911D219120532A30C8F31EF49095BC
:1014800081959F4F089591110EC0803219F08950B7
:101490008550D0F708957AE0979F902D879F802DF3
:1014A000910D11240895992788270895DB018F93C2
:1014B0009F932DD0BF91AF91A29F800D911DA39FAF
:1014C000900DB29F900D11240895A1E21A2EAA1B2F
:1014D000BB1BFD010DC0AA1FBB1FEE1FFF1FA217E4
:1014E000B307E407F50720F0A21BB30BE40BF50BE1
:1014F000661F771F881F991F1A9469F7609570956A
:10150000809590959B01AC01BD01CF01089540D01D
:10151000A59F900DB49F900DA49F800D911D112447
:1015200008952F923F924F925F926F927F928F9287
:101530009F92AF92BF92CF92DF92EF92FF920F9362
:101540001F93CF93DF93CDB7DEB7CA1BDB0B0FB66C
:10155000F894DEBF0FBECDBF09942A883988488829
:101560005F846E847D848C849B84AA84B984C884BF
:10157000DF80EE80FD800C811B81AA81B981CE0FB6
:10158000D11D0FB6F894DEBF0FBECDBFED0108959B
:10159000A29FB001B39FC001A39F01D0B29F700D65
:0C15A000811D1124911D0895F894FFCFC7
:00000001FF
