:1000000010C01FC01EC01DC01CC01BC01AC019C01C
:1000100018C017C016C015C014C013C012C011C03C
:1000200010C011241FBECFE5D2E0DEBFCDBF20E05F
:10003000A0E6B0E001C01D92AE3EB207E1F763D387
:100040004CC8DECF5F9BFECF8CB108955D9BFECF89
:100050008CB908950F931F93CF93DF93D82F02E6A7
:1000600010E0C0E0CD1731F0EDDFF80181938F0192
:10007000CF5FF8CFDF91CF911F910F910895CF936C
:10008000C0E0E0DFEC2FF0E0EE59FF4F80838823E3
:1000900011F0CF5FF6CFCF9108953A9A949A959A3E
:1000A000969A089515BA14BA18BA1BBA8FEF87BB7F
:1000B0008ABB08959BBB88BB0895FCDF94989598F4
:1000C0000000000083B3959A949A0895CF93DF932C
:1000D000D62FC42FEFDF8FEF84BBD5BB9698C130EE
:1000E00009F494980000C13009F4949A969A15BACC
:1000F00014BADF91CF91089518BA1BBA15BA8FEFD1
:1001000087BB8ABB84BB08950F931F9315BA1BBA94
:1001100018BA2FEF24BB2ABB27BB8C012227332719
:1001200005BB072F182F292F33270BBB68BB1F9147
:100130000F910895E9DF94981BBA18BA1ABA17BA42
:100140009598000029B386B3959A949A90E0922BE3
:100150000895B0DF95983A980000000083B33A9A6A
:10016000959A0895CF93C62FA5DF8FEF84BBC5BBAB
:1001700096983A98000000003A9A969A15BA14BADE
:10018000CF9108958FEF87BB8ABB84BB90E898BB63
:100190008BBB85BB08959498623049F4411105C02A
:1001A000906C2FE0E1E0F0E013C09068FACF4111CD
:1001B00002C0806C01C0806827E0F4CFC098969898
:1001C00000000000969A00000000215027FD0DC09D
:1001D000BF01022E02C0660F771F0A94E2F7682360
:1001E0007923672B59F3C09AEACF411107C0C09811
:1001F0000000969800000000969A949A089540E0B6
:10020000CADFC098B898949884E0959800000000E0
:10021000959A000000008150C1F7E4EEF0E041E063
:1002200050E087E090E020E0959800000000959A6B
:10023000B09B07C0BA01082E01C0660F0A94EAF706
:10024000262B019788F7219380E0EC3EF80749F7C9
:10025000949AC09AB89A089541E09DDFE4EEF0E0E8
:1002600048E027E030E0808190E0022E02C09595C2
:1002700087950A94E2F780FF02C0C09A01C0C09837
:10028000969800000000969A000000002150310965
:1002900050F7415031964111E4CFC0989698000034
:1002A0000000969A00000000949A0895CF93C62FFC
:1002B0002FEF24BBFFDEC5BB96983A980000969AB4
:1002C0003A9ACF910895CF93DF936AEA85E595E551
:1002D000EDDF65E58AEA9AE2E9DF60E985E595E523
:1002E000E5DF8FE39CE90197F1F700C0000015BA44
:1002F00014BA80E090E02DDFC0E6D0E0888381E092
:1003000090E027DF89836AEA85E595E5CFDF65E53B
:100310008AEA9AE2CBDF60EF85E595E5C7DF8FE3F8
:100320009CE90197F1F700C00000DF91CF9108959B
:10033000CF93C82F6AEA85E595E5B8DF65E58AEAD7
:100340009AE2B4DF60EB85E595E5B0DF6C2F80E0E5
:1003500090E0CF91ABCFCF93C82F6AEA85E595E5C2
:10036000A5DF65E58AEA9AE2A1DF60E885E595E523
:100370009DDF6AEA85E595E599DF65E58AEA9AE217
:1003800095DF60E380E09C2F9295907F8FDF8FE474
:1003900093EC0197F1F700C00000CF9108951F93EF
:1003A000CF93DF93EC01162F6AEA85E595E57EDFB2
:1003B00065E58AEA9AE27ADF60EA85E595E576DF27
:1003C000612FCE0173DF85E38A95F1F70000DF919D
:1003D000CF911F910895EF92FF920F931F93CF93A8
:1003E000DF938C016AEA85E595E560DF65E58AEAD9
:1003F0009AE25CDF60EA85E595E558DF1695102FF7
:1004000000271795079592E6E92E90E0F92EC0E0B7
:10041000D0E0F70161917F01CE01802B912B46DF67
:100420002196C038D105A9F78FE39CE90197F1F730
:1004300000C00000DF91CF911F910F91FF90EF90CE
:10044000089515BA14BA36DE95980000000083B3FB
:10045000959A0895CF93C62F2FEF24BB2BDEC5BBF3
:100460003998000000000000399ACF9108951F9339
:10047000CF93DF93EC01162F6AEA85E595E0EADF7A
:1004800065E58AEA92E0E6DF60EA85E595E0E2DF8D
:10049000612FCE01DFDF85E38A95F1F7000015BA01
:1004A00014BACE01CEDF811739F0CE01CADF95E351
:1004B0009A95F1F70000F7CFDF91CF911F91089542
:1004C000CF93C62F2FEF24BBF5DDC5BB9698000058
:1004D00000000000969ACF9108951F93CF93DF9369
:1004E000EC01162F6AEA8AEA9AE0EADF65E585E51B
:1004F00095E0E6DF60EA8AEA9AE0E2DF612FCE016A
:10050000DFDF85E38A95F1F70000CE019ADF8117DE
:1005100039F0CE0196DF95E39A95F1F70000F7CF19
:10052000DF91CF911F9108951F93CF93DF93EC013B
:10053000162F6AEA85E595E0C3DF65E58AEA92E071
:10054000BFDF60EA85E595E0BBDF612FCE01B8DF54
:1005500085E38A95F1F70000CE0173DF811739F04A
:10056000CE016FDF95E39A95F1F70000F7CFDF91A9
:10057000CF911F910895A4CF1F93CF93DF93EC01E8
:10058000162F69EA8AEA9AE09BDF66E585E595E041
:1005900097DF60EA8AEA9AE093DF612FCE0190DF6D
:1005A00085E38A95F1F70000CE014BDF811739F022
:1005B000CE0147DF95E39A95F1F70000F7CFDF9181
:1005C000CF911F9108951F93CF93DF93EC01162FC6
:1005D00069EA85E595E074DF66E58AEA92E070DF16
:1005E00060EA85E595E06CDF612FCE0169DF85E388
:1005F0008A95F1F70000CE0124DF811739F0CE0192
:1006000020DF95E39A95F1F70000F7CFDF91CF91C6
:100610001F910895CF93DF93EA0176DD94988FEFD1
:100620008ABB87BBDBBBC8BB9698000000000000FC
:10063000969A949ADF91CF910895CF92DF92EF929C
:10064000FF92CF93DF936B017C01EA0149EA50E00E
:1006500065E575E080E090E0DDDF46E550E06AEAC0
:1006600072E080E090E0D6DF40EA50E065E575E0BA
:1006700080E090E0CFDFAE01C701B601CBDF25E31C
:100680002A95F1F70000C701B60154DD8C179D07CC
:1006900041F0C701B6014EDD25E32A95F1F70000D0
:1006A000F5CFDF91CF91FF90EF90DF90CF9008953D
:1006B00084B7877F84BF88E181BD11BCEEDC81B344
:1006C000886F81BB86B1856086B915BA14BA18BA2D
:1006D00017BA1BBA1ABA829B03C0979A389802C0FD
:1006E000389A9798939A2FEF84E39CE021508040AA
:1006F0009040E1F700C00000939819B8599A539AB6
:10070000549A78940895D4DF8824839499249394F8
:10071000C12CD12C760122EA622E20E0722E3CEE12
:10072000A32E30E0B32E21E0821201C0B6DC8ADCB9
:100730008093E300829B04C0979A389881E003C0BD
:10074000389A979882E09091E300933409F4E7C2D5
:10075000973411F4A7DCE7CF973609F4C2C091347F
:1007600059F48DDC40E150E060E070E082E690E01A
:10077000F5D26B017C01D7CF9235E1F493DC81E3B4
:100780008093E3008091E300813369F6939AC0E09F
:10079000D0E0CE018C0D9D1D90DC58DC2196C0343C
:1007A000D105B9F780E4C80ED11CE11CF11C939867
:1007B00049DCE6CF9735C9F475DC80E44BDC939ACD
:1007C000C2E6D0E000E010E06991C8018C0D9D1DEB
:1007D00041E07CDC0F5F1F4F00341105A9F790E466
:1007E000C90ED11CE11CF11C9BC19234D1F45ADC1E
:1007F00046DC40E150E060E070E082E690E0AED29E
:100800001B012C011FDC8093E300823409F08BCFA5
:1008100036DC82E690E0B3D340E0682FC10156DCBD
:1008200082CF923721F568DC81E38093E3008091E9
:10083000E300813309F077CF939A16012701C0E0D6
:10084000C201B10177DCD92F01DC8D2FFFDBEFEF87
:100850002E1A3E0A4E0A5E0ACF5FC03289F7F0E2D6
:10086000CF0ED11CE11CF11C9398ECDBDECF9D3642
:10087000E1F418DC81E38093E3008091E3008133AD
:1008800081F5939AC0E0D0E0CE018C0D9D1D61DC16
:10089000DDDB2196C034D105B9F720E4C20ED11CAE
:1008A000E11CF11C9398CEDBE6CF9737E1F4FADB3D
:1008B00080E4D0DB939AC2E6D0E000E010E06991DA
:1008C000C8018C0D9D1D4EDC0F5F1F4F00341105BC
:1008D000B1F780E4C80ED11CE11CF11C81E3B6DB4A
:1008E00093980ADC20CF9F3631F4DCDBABDB682F3A
:1008F000C60138DC23C0993649F4D4DBE4DC8091AE
:100900006000A4DB80916100A1DBEBCF9B3649F452
:10091000B6DB82E690E033D3C82FC4DB8C2F08DD32
:10092000E0CF933769F4BEDBAADB40E150E060E042
:1009300070E082E690E012D2862F0DDD81E3E4CFF5
:100940009236C9F4AFDB80E485DB939A02E610E0CF
:10095000C0E0D0E0F80161918F01CE018C0D9D1DAA
:100960001EDD2196C034D105A9F7F0E4CF0ED11CCD
:10097000E11CF11CB3CF913661F494DB80E86ADBB3
:10098000939AC60128DD2FEFC21AD20AE20AF20AB0
:10099000A5CF933551F473DB40E150E060E070E0A7
:1009A00082E690E0DBD1962EBECE9536E1F4EADB0E
:1009B00081E38093E3008091E300813309F091CFDC
:1009C000939A692DC6011BDCC4EED0E089913EDB11
:1009D000AC16BD06D9F78FEFC81AD80AE80AF80A8C
:1009E000939830DBE6CF9037C1F4CCDBC4EED0E097
:1009F00029DB8993AC16BD06D9F7939A692DC601F8
:100A00002BDC9FEFC91AD90AE90AF90AEFE7FEE3DE
:100A10003197F1F700C0000061CF963429F52FDB44
:100A200040E150E060E070E082E690E097D11B0189
:100A30002C0108DB8093E30022DB40E150E060E022
:100A400070E082E690E08AD1939A8091E300853548
:100A500019F4C101FFDC64C0853419F0853309F055
:100A60005FC0C1012DDD5CC09435D9F5EBDA809310
:100A7000E30080E4EFDA939A02E610E0E60190E406
:100A8000592E8091E300853529F4F8016081CE016B
:100A9000EEDC1BC0853429F4F8016081CE0144DD11
:100AA00014C08E3429F4F8016081CE0116DD0DC02A
:100AB000893529F4F8016081CE0185DD06C08533D2
:100AC00021F4F8016081CE0157DD5A940F5F1F4F6A
:100AD00021965110D6CFF0E4CF0ED11CE11CF11CB1
:100AE00042C09E3601F5CBDA40E150E060E070E0B4
:100AF00082E690E033D11B012C01A4DA8093E3005D
:100B00008E3609F010CEBBDA40E150E060E070E0D4
:100B100082E690E023D1939AAB01C201B1017ADD64
:100B2000939881E3FCC0913701F580E493DA939ABE
:100B3000C2E6D0E016012701498150E0542F442736
:100B40008881482BC201B10178DD2FEF221A320AC9
:100B5000420A520A22966C167D0671F780E2C80E90
:100B6000D11CE11CF11C81E3C3C0993419F09F34FE
:100B700009F050C067DAC82F82DA40E150E060E047
:100B800070E082E690E0EAD0939A8091E3008934A5
:100B9000F9F4C13421F48AB36095682320C0C234CB
:100BA00021F487B36095682320C0C33421F484B353
:100BB0006095682320C0C43421F481B36095682314
:100BC00020C0C53409F095C086B16095682320C067
:100BD0008F3409F08EC0C13421F48AB3682B6ABB0C
:100BE00088C0C23421F487B3682B67BB82C0C3348A
:100BF00021F484B3682B64BB7CC0C43421F481B37A
:100C0000682B61BB76C0C53409F073C086B1682B10
:100C100066B96FC09C3451F515DAC82F30DA40E15F
:100C200050E060E070E082E690E098D0939AC134A2
:100C300021F48BB3609568232AC0C23421F488B3B1
:100C4000609568232AC0C33421F485B36095682376
:100C50002AC0C43421F482B3609568232AC0C53405
:100C600009F047C087B16095682329C0983449F5D9
:100C7000E9D9C82F04DA40E150E060E070E082E694
:100C800090E06CD0939AC13421F48BB3682B6BBB8A
:100C900030C0C23421F488B3682B68BB2AC0C33487
:100CA00021F485B3682B65BB24C0C43421F482B31E
:100CB000682B62BB1EC0C534E1F487B1682B67B9ED
:100CC00018C09434C1F4BED9939A813411F489B315
:100CD0000FC0823411F486B30BC0833411F483B394
:100CE00007C0843411F480B303C0853411F485B196
:100CF000ADD9939818CD9D3459F4A4D9813319F402
:100D00008824839413CD803309F00DCD812C0FCD31
:100D1000983611F482E003C0963519F488E096D92C
:100D200002CD9A3209F0FFCCAAD940E150E060E050
:100D300070E082E690E012D0613E754E87409105EA
:100D400009F0F1CC84B7877F84BFF8E1F1BD2CE0D6
:100D500021BD8FEF9FEF0197F1F7E5CCA0E0B0E068
:100D6000E3EBF6E078C15C016B017A016115710576
:100D700019F0FB0191838083E114F10429F0C7018C
:100D80000297839708F0E2C0E5012196F5011081F2
:100D9000812F90E011D1892B11F05E01F5CF1D322A
:100DA00029F42196F501118101E007C01B3221F4DD
:100DB000E5012296F501118100E0E114F10409F149
:100DC000F0E1EF16F10429F43EC010E3E114F10460
:100DD00021F128E0E216F10401F154F4E2E0EE160C
:100DE000F10421F5812C912CA12CB0E4BB2E3DC047
:100DF000FAE0EF16F10439F020E1E216F104B1F463
:100E00002FC0103311F1FAE0EF2EF12CACEC8A2E4A
:100E1000982CA82CACE0BA2E28C078E0E72EF12C54
:100E2000812C912CA12CE0E1BE2E1FC060E070E06F
:100E300080E090E897010F2C000C440B550BDED09E
:100E400049015A0112C0103359F488818F7D8835C9
:100E500009F0BBCF19812296026080E1E82EF12CC7
:100E6000812C912CA12C68E0B62E40E060E070E06F
:100E7000CB0127010F2C000C66087708FE0150ED0E
:100E8000352E310E29E0231570F42FEB210F2A3176
:100E900018F439EC332E06C02FE9210F2A3110F552
:100EA00029EA322E310E232D30E02E153F05D4F4E1
:100EB00047FD15C086169706A806B90668F0A30177
:100EC00092018DD0630D711D811D911D61307105E1
:100ED000810520E8920710F04FEF01C041E0219614
:100EE0001081CCCF202F2170C114D10471F0442384
:100EF00029F02197F601D183C08307C001FF19C0F3
:100F00002297F601D183C08314C047FF12C0222369
:100F100029F060E070E080E090E804C06FEF7FEFC0
:100F20008FEF9FE722E230E03093ED002093EC005A
:100F300009C0222381F090958095709561957F4F2F
:100F40008F4F9F4F462F372F282F12C040E030E0A1
:100F500020E090E00DC097FFF5CF82E290E0909303
:100F6000ED008093EC006FEF7FEF8FEF9FE7EACF0C
:100F7000642F732F822FCDB7DEB7E1E188C0FC016B
:100F800088279927E89421912032E9F3293010F03D
:100F90002E30C8F32B3239F02D3231F4689403C06F
:100FA00013D0820F911D219120532A30C8F31EF4D3
:100FB000909581959F4F089591110EC0803219F040
:100FC00089508550D0F708957AE0979F902D879F9C
:100FD000802D910D11240895992788270895DB010C
:100FE0008F939F932DD0BF91AF91A29F800D911DA4
:100FF000A39F900DB29F900D11240895A1E21A2E87
:10100000AA1BBB1BFD010DC0AA1FBB1FEE1FFF1FAC
:10101000A217B307E407F50720F0A21BB30BE40BFC
:10102000F50B661F771F881F991F1A9469F7609543
:101030007095809590959B01AC01BD01CF010895FD
:1010400040D0A59F900DB49F900DA49F800D911D41
:10105000112408952F923F924F925F926F927F9248
:101060008F929F92AF92BF92CF92DF92EF92FF92B8
:101070000F931F93CF93DF93CDB7DEB7CA1BDB0B64
:101080000FB6F894DEBF0FBECDBF09942A88398809
:1010900048885F846E847D848C849B84AA84B98410
:1010A000C884DF80EE80FD800C811B81AA81B9811C
:1010B000CE0FD11D0FB6F894DEBF0FBECDBFED0130
:1010C0000895A29FB001B39FC001A39F01D0B29F1A
:0E10D000700D811D1124911D0895F894FFCF1D
:00000001FF
