:1000000010C02AC029C028C027C026C025C024C0CF
:1000100023C022C021C020C01FC01EC01DC01CC0E4
:100020001BC011241FBECFE5D2E0DEBFCDBF10E064
:10003000A0E6B0E0ECEAF5E102C005900D92A23630
:10004000B107D9F721E0A2E6B0E001C01D92AE37BA
:10005000B207E1F768D3A8CAD3CF5F9BFECF8CB1BC
:1000600008955D9BFECF8CB908950F931F93CF9396
:10007000DF938C01C2E7D0E0CE0182579040801719
:1000800091071CF4EADF8993F7CFDF91CF911F919D
:100090000F910895CF93DF93C2E7D0E0DEDF89931D
:1000A0008111FCCFDF91CF9108953A9A949A959A55
:1000B000969A089515BA14BA18BA1BBA8FEF87BB6F
:1000C0008ABB08959BBB88BB0895FCDF94989598E4
:1000D0000000000083B3959A949A0895CF93DF931C
:1000E000D62FC42FEFDF8FEF84BBD5BB9698C130DE
:1000F00009F494980000C13009F4949A969A15BABC
:1001000014BADF91CF91089518BA1BBA15BA8FEFC0
:1001100087BB8ABB84BB08950F931F9315BA1BBA84
:1001200018BA2FEF24BB2ABB27BB8C012227332709
:1001300005BB072F182F292F33270BBB68BB1F9137
:100140000F910895E9DF94981BBA18BA1ABA17BA32
:100150009598000029B386B3959A949A90E0922BD3
:100160000895B0DF95983A980000000083B33A9A5A
:10017000959A0895CF93C62FA5DF8FEF84BBC5BB9B
:1001800096983A98000000003A9A969A15BA14BACE
:10019000CF9108958FEF87BB8ABB84BB90E898BB53
:1001A0008BBB85BB08959498623049F4411105C01A
:1001B000906C2FE0E1E0F0E013C09068FACF4111BD
:1001C00002C0806C01C0806827E0F4CFC098969888
:1001D00000000000969A00000000215027FD0DC08D
:1001E000BF01022E02C0660F771F0A94E2F7682350
:1001F0007923672B59F3C09AEACF411107C0C09801
:100200000000969800000000969A949A089540E0A5
:10021000CADFC098B898949884E0959800000000D0
:10022000959A000000008150C1F7E3E7F1E041E05A
:1002300050E087E090E020E0959800000000959A5B
:10024000B09B07C0BA01082E01C0660F0A94EAF7F6
:10025000262B019788F7219381E0EB37F80749F7C0
:10026000949AC09AB89A089541E09DDFE3E7F1E0DF
:1002700048E027E030E0808190E0022E02C09595B2
:1002800087950A94E2F780FF02C0C09A01C0C09827
:10029000969800000000969A000000002150310955
:1002A00050F7415031964111E4CFC0989698000024
:1002B0000000969A00000000949A0895CF93C62FEC
:1002C0002FEF24BBFFDEC5BB96983A980000969AA4
:1002D0003A9ACF910895CF93DF936AEA85E595E541
:1002E000EDDF65E58AEA9AE2E9DF60E985E595E513
:1002F000E5DF8FE39CE90197F1F700C0000015BA34
:1003000014BA80E090E02DDFC0E7D0E0888381E080
:1003100090E027DF89836AEA85E595E5CFDF65E52B
:100320008AEA9AE2CBDF60EF85E595E5C7DF8FE3E8
:100330009CE90197F1F700C00000DF91CF9108958B
:10034000CF93C82F6AEA85E595E5B8DF65E58AEAC7
:100350009AE2B4DF60EB85E595E5B0DF6C2F80E0D5
:1003600090E0CF91ABCFCF93C82F6AEA85E595E5B2
:10037000A5DF65E58AEA9AE2A1DF60E885E595E513
:100380009DDF6AEA85E595E599DF65E58AEA9AE207
:1003900095DF60E380E09C2F9295907F8FDF8FE464
:1003A00093EC0197F1F700C00000CF9108951F93DF
:1003B000CF93DF93EC01162F6AEA85E595E57EDFA2
:1003C00065E58AEA9AE27ADF60EA85E595E576DF17
:1003D000612FCE0173DF85E38A95F1F70000DF918D
:1003E000CF911F910895EF92FF920F931F93CF9398
:1003F000DF938C016AEA85E595E560DF65E58AEAC9
:100400009AE25CDF60EA85E595E558DF1695102FE6
:1004100000271795079592E7E92E90E0F92EC0E0A6
:10042000D0E0F70161917F01CE01802B912B46DF57
:100430002196C038D105A9F78FE39CE90197F1F720
:1004400000C00000DF91CF911F910F91FF90EF90BE
:10045000089515BA14BA36DE95980000000083B3EB
:10046000959A0895CF93C62F2FEF24BB2BDEC5BBE3
:1004700080917B01813431F4399800000000000044
:10048000399A05C09698000000000000969ACF9116
:1004900008951F93CF93DF93EC01162F60916600B0
:1004A0008091640090916500DDDF60916A00809129
:1004B000680090916900D6DF60916E0080916C00B9
:1004C00090916D00CFDF612FCE01CCDF8AE18A955C
:1004D000F1F700C015BA14BACE01BBDF811739F0AD
:1004E000CE01B7DF9DE09A95F1F70000F7CFDF91DD
:1004F000CF911F910895FF920F931F93CF93DF9396
:10050000EC01162FFF24FA94F4BA01E20BBB18BADF
:1005100081E085BB96980000969A60916600809174
:100520006400909165009EDF60916A008091680090
:100530009091690097DF60916E0080916C009091BE
:100540006D0090DFF4BA0BBB18BA8091620085BBD6
:1005500096980000969A612FCE0184DF8AE18A95F1
:10056000F1F700C015BA14BACE0173DF811739F064
:10057000CE016FDF9DE09A95F1F70000F7CFDF9194
:10058000CF911F910F91FF9008950F931F938C01AE
:100590002227332705BB072F182F292F33270BBB03
:1005A00068BB94985BBB48BB9698000000000000B5
:1005B000969A949A1F910F9108958FEF84BB8ABBEE
:1005C00087BB15BA95E09BBB85E588BB94981BBAA1
:1005D00029EA28BB9698000000000000969A949A99
:1005E00015BA22E02BBB2AEA28BB94981BBA26E551
:1005F00028BB9698000000000000969A949A15BABD
:100600009BBB88BB94981BBA80EA88BB9698000075
:1006100000000000969A949A08958FEF84BB8ABBDD
:1006200087BB15BA95E09BBB85E588BB94981BBA40
:100630002AEA28BB9698000000000000969A949A37
:1006400015BA32E03BBB28BB94981BBA88BB96987E
:10065000000000000000969A949A15BA9BBB88BBD4
:1006600094981BBA80EA88BB9698000000000000AE
:10067000969A949A0895CF92DF92EF92FF92CF9339
:10068000DF936B017C01EA01211102C0C6DF01C0CA
:1006900094DFAE01C701B60178DF25E02A95F1F7B6
:1006A0000000C701B6014EDD8C179D0741F0C70160
:1006B000B60148DD25E02A95F1F70000F5CFDF917E
:1006C000CF91FF90EF90DF90CF90089584B7877F10
:1006D00084BF88E181BD11BCE8DC81B38C6F81BB34
:1006E00086B1856086B915BA14BA18BA17BA1BBA9A
:1006F0001ABA80916000813019F4979A389802C034
:10070000389A9798939A2FEF84E39CE02150804089
:100710009040E1F700C00000939819B8599A539A95
:10072000549A78940895D2DF66246394D1E0C12C62
:10073000D12C7601B1E37B2ECFEF21E0621201C014
:10074000B4DC8BDC80937201833419F480916000F7
:100750004DC5873411F4AEDCF0CF873609F4F8C00C
:10076000833339F4929882E080936000389A9798A6
:10077000E4CF853339F4929A81E080936000979AB0
:100780003898DBCF813459F485DC40E150E060E0FB
:1007900070E082E790E049D56B017C01CECF8235D5
:1007A000F1F488DC7092720180917201813329F634
:1007B000939A00E010E0C8018C0D9D1D86DC51DC91
:1007C0000F5F1F4F00341105B1F790E4C90ED11C23
:1007D000E11CF11C939841DC80937201E5CF8735D1
:1007E000F1F468DC80E490E040DC939AA2E7AA2E62
:1007F000A0E0BA2E00E010E0F50161915F01C801B0
:100800008C0D9D1D41E06ADC0F5F1F4F0034110508
:1008100099F7F0E4CF0ED11CE11CF11C32C38234F5
:10082000E1F448DC37DC40E150E060E070E082E772
:1008300090E0FBD44B015C0110DC809372018234A8
:1008400009F07BCF27DC82E790E000D6809362003E
:1008500040E0682FC40142DC70CF823711F08A3645
:10086000B1F552DC809172018A3611F410E801C0B2
:1008700010E27092720188248A94810E912CA12C2E
:10088000B12C2FEF821A920AA20AB20A8091720149
:10089000813309F052CF939A16012701C201B101A9
:1008A00051DC092FDEDB802FDCDB8FEF281A380AC2
:1008B000480A580A822D8C19811780F3C80CD91C5C
:1008C000EA1CFB1C9398C9DB80937201DFCF8D3645
:1008D000F1F4F0DB70927201809172018133C1F505
:1008E000939A00E010E0C8018C0D9D1D3ADCB9DB45
:1008F0000F5F1F4F00341105B1F790E4C90ED11CF2
:10090000E11CF11C9398A9DB80937201E5CF873736
:1009100009F5D0DB80E490E0A8DB939AF2E7AF2EF4
:10092000F0E0BF2E00E010E0F50161915F01C80129
:100930008C0D9D1D1FDC0F5F1F4F00341105A1F7AB
:10094000F0E4CF0ED11CE11CF11C81E38ADB93980B
:10095000DBDBF3CE8F3631F4ADDB7FDB682FC601F6
:1009600009DC23C0893649F4A5DBB5DC8091700031
:1009700078DB8091710075DBEBCF8B3649F48ADB35
:1009800082E790E063D5182F95DB812FD9DCE0CF8B
:10099000833769F48FDB7EDB40E150E060E070E09C
:1009A00082E790E042D4862FDEDC81E3E4CF82361A
:1009B000C1F480DB80E490E058DB939AE2E7AE2E4E
:1009C000E0E0BE2E00E010E0F50161915F01C8019A
:1009D0008C0D9D1DECDC0F5F1F4F00341105A1F73E
:1009E000AFCF813669F466DB80E890E03EDB939A16
:1009F000C601F9DC2FEFC21AD20AE20AF20AA5CF29
:100A0000833551F447DB40E150E060E070E082E77D
:100A100090E00BD4D62F91CE853609F5BBDB7092D2
:100A2000720180917201813309F092CF939A6D2FF8
:100A3000C601EDDB03E711E0F80181918F0111DBC5
:100A40008BE791E080179107B9F79FEFC91AD90A90
:100A5000E90AF90A939801DB80937201E2CF8037AB
:100A6000E1F498DB03E711E0F8DAF80181938F01F4
:100A70008BE791E08E179F07B9F7939A6D2FC60108
:100A8000F3DB9FEFC91AD90AE90AF90AEFE7FEE397
:100A90003197F1F700C0000058CF803549F4DDDA16
:100AA00080937B01813409F048CE319A399A45CE42
:100AB0008E3421F481E0809363003FCE853421F5AC
:100AC00004E610E0E7DA40E150E060E070E082E741
:100AD00090E0ABD3F8017183608381E3C2DADADAA4
:100AE00040E150E060E070E082E790E09ED3F801E2
:100AF0007383628381E3B5DA0C5F1F4F80E790E078
:100B000080179107F9F619CE8634B1F4C3DA40E1C3
:100B100050E060E070E082E790E087D34B015C0139
:100B2000B9DA40E150E060E070E082E790E07DD328
:100B3000939AC40197DCA5C1843541F580E490E027
:100B400094DA939A62E7A62E60E0B62E70E4972EB0
:100B500086010257104080916300F5016081811188
:100B600005C0C8018A0D9B1D94DC04C0C8018A0D14
:100B70009B1DC1DC9A94FFEFAF1ABF0A9110EBCF17
:100B800020E4C20ED11CE11CF11C54C2893509F0CD
:100B900055C080E290E069DA939A6AEA8AEA9AE0BC
:100BA00061DC65E585E595E05DDC560165E2C60141
:100BB00059DC6FE1C60156DC82E08A95F1F700C08E
:100BC00002E710E0812C912CF80161918F01C401A2
:100BD0008A0D9B1D47DCFFEF8F1A9F0A20E28216C9
:100BE000910491F780E2C80ED11CE11CF11CC601F2
:100BF000809769E237DCEFE8F1E03197F1F700C068
:100C00000000860101501109C80123DC58ECB52E03
:100C100090919100891709F40DC2C8011ADCFDE01A
:100C2000FA95F1F70000BA94B110F2CF2FEF84E3F8
:100C30009CE0215080409040E1F7FEC0883509F0EB
:100C400042C080E091E011DA939A69EA8AEA9AE078
:100C500009DC66E585E595E005DC560166E2C6013E
:100C600001DC6FEFC601FEDBE5E8EA95F1F7000075
:100C700002E710E0812C912CF80161918F01C401F1
:100C80008A0D9B1DEFDBFFEF8F1A9F0A811421E075
:100C9000920691F78FEFD81AE80AF80AC6019A95DA
:100CA0006AE2E0DB860101501109C801D2DB9091B4
:100CB0007101891709F4BEC1C801CBDB9DE09A958B
:100CC000F1F70000F4CF8A3509F0B9C080E890E070
:100CD000CCD9939A69E080E291E0C4DB6AEA81E2D0
:100CE00091E0C0DB65E582E291E0BCDB65EA8FE381
:100CF00091E0B8DBEDE0EA95F1F7000061E180E218
:100D000091E0B0DB65EA8FE391E0ACDBFDE0FA95C2
:100D1000F1F7000061E080E091E2A4DB2DE02A958C
:100D2000F1F700006FE080E291E09CDB65E585E291
:100D300091E098DB65E586E291E094DB6AEA87E280
:100D400091E090DB65EA8FE391E08CDB8DE08A95A2
:100D5000F1F700006FE080E291E084DB6AE285E277
:100D600091E080DB6AEA86E291E07CDB65E587E280
:100D700091E078DB65EA8FE391E074DB9DE09A9582
:100D8000F1F700006FE080E291E06CDB65E585E261
:100D900091E068DB65E586E291E064DB60EA87E28A
:100DA00091E060DB65EA8FE391E05CDBEDE0EA95E2
:100DB000F1F7000040E06091620080E091E28ED99E
:100DC000FDE0FA95F1F7000060E180E291E04ADB96
:100DD00065EA8FE391E046DB2DE02A95F1F700000C
:100DE00068E080E291E03EDB65EA8FE391E03ADB88
:100DF0008DE08A95F1F7000002E710E080E0023F05
:100E0000180779F0F80161918F01C6012BDBFDE035
:100E1000FA95F1F700002FEFC21AD20AE20AF20A9D
:100E2000EDCF6FEFD701C6010197A109B1091ADB18
:100E3000EFE1FEE43197F1F700C00000FBC08E3611
:100E400019F528D940E150E060E070E082E790E0D9
:100E5000ECD14B015C0101D9809372018E3609F00F
:100E60006CCC18D940E150E060E070E082E790E09F
:100E7000DCD1939AC4BBCABBC7BBAB01C501B401EB
:100E800084DB939881E3B2C1813711F08437C9F5CF
:100E9000939A80917201843719F400E011E002C046
:100EA00000E410E0C801E1D842E7A42E40E0B42EEF
:100EB00016012701F501418150E0542F442780811C
:100EC000482B21E0C201B101D6DBFFEF2F1A3F0A08
:100ED0004F0A5F0A22E0A20EB11CC5018257904062
:100EE000801791073CF38FEFC81AD80AE80AF80A6E
:100EF0000150110916950795C00ED11EE11CF11C79
:100F000099C0863621F5939A80E091E0AED802E749
:100F100010E046015701F801418150E0542F442769
:100F20008081482B20E0C501B401A5DBFFEF8F1ABB
:100F30009F0AAF0ABF0A0E5F1F4F21E00237120758
:100F400051F780E8C80ED11CE11CF11C73C08C362F
:100F500009F072C0939A80E490E087D8C4BBCABB02
:100F6000C7BB40E650E0C701B6010FDB40ED50E0E3
:100F7000C701B6010ADB48EE50E0C701B60105DB48
:100F800095E89A95F1F70000C701B601DBD88038E3
:100F9000910541F0C701B601D5D8E5E8EA95F1F72A
:100FA0000000F5CFC4BBCABBC7BB4FE150E0C701CF
:100FB000B601EBDA02E710E046015701F801418182
:100FC00050E0542F44278081482BC501B401DDDA5D
:100FD000FFEF8F1A9F0AAF0ABF0A0E5F1F4F82EB07
:100FE00090E08017910751F790E2C90ED11CE11CE7
:100FF000F11C40ED50E0C701B601C7DAEFE6F3E0BF
:101000003197F1F700C00000C701B6019BD88038C6
:10101000910541F0C701B60195D8F5E8FA95F1F7C9
:101020000000F5CFC4BBCABBC7BB4FEF50E0C70140
:10103000B601ABDA81E3C3C0893419F08F3409F00B
:1010400050C00BD8182F26D840E150E060E070E087
:1010500082E790E0EAD0939A809172018934F9F4A2
:10106000113421F48AB36095682320C0123421F42E
:1010700087B36095682320C0133421F484B360954E
:10108000682320C0143421F481B36095682320C004
:10109000153409F095C086B16095682320C08F345F
:1010A00009F08EC0113421F48AB3682B6ABB88C062
:1010B000123421F487B3682B67BB82C0133421F448
:1010C00084B3682B64BB7CC0143421F481B3682BD7
:1010D00061BB76C0153409F073C086B1682B66B960
:1010E0006FC08C3451F5B9D7182FD4D740E150E0F8
:1010F00060E070E082E790E098D0939A113421F498
:101100008BB3609568232AC0123421F488B36095AC
:1011100068232AC0133421F485B3609568232AC05C
:10112000143421F482B3609568232AC0153409F081
:1011300047C087B16095682329C0883449F58DD7A9
:10114000182FA8D740E150E060E070E082E790E01F
:101150006CD0939A113421F48BB3682B6BBB30C0E5
:10116000123421F488B3682B68BB2AC0133421F4ED
:1011700085B3682B65BB24C0143421F482B3682B7B
:1011800062BB1EC01534E1F487B1682B67B918C083
:101190008434C1F462D7939A813411F489B30FC0B7
:1011A000823411F486B30BC0833411F483B307C0C7
:1011B000843411F480B303C0853411F485B151D760
:1011C0009398BBCA8D3459F448D7813319F46624F7
:1011D0006394B6CA803309F0B0CA612CB2CA8836AB
:1011E00011F484E003C0863519F48DE03AD7A5CA1E
:1011F0008A3209F0A2CA4ED740E150E060E070E0C8
:1012000082E790E012D0613E754E8740910509F06B
:1012100094CA84B7877F84BF88E181BD9CE091BD7B
:101220008FEF9FEF0197F1F788CAA0E0B0E0EAE105
:10123000F9E078C15C016B017A016115710519F063
:10124000FB0191838083E114F10429F0C701029727
:10125000839708F0E2C0E5012196F5011081812F06
:1012600090E011D1892B11F05E01F5CF1D3229F4E8
:101270002196F501118101E007C01B3221F4E5013F
:101280002296F501118100E0E114F10409F1F0E189
:10129000EF16F10429F43EC010E3E114F10421F14A
:1012A00028E0E216F10401F154F4E2E0EE16F10454
:1012B00021F5812C912CA12CB0E4BB2E3DC0FAE08D
:1012C000EF16F10439F020E1E216F104B1F42FC079
:1012D000103311F1FAE0EF2EF12CACEC8A2E982CA1
:1012E000A82CACE0BA2E28C078E0E72EF12C812C97
:1012F000912CA12CE0E1BE2E1FC060E070E080E0E8
:1013000090E897010F2C000C440B550BDED04901DF
:101310005A0112C0103359F488818F7D883509F045
:10132000BBCF19812296026080E1E82EF12C812C3E
:10133000912CA12C68E0B62E40E060E070E0CB017B
:1013400027010F2C000C66087708FE0150ED352EA2
:10135000310E29E0231570F42FEB210F2A3118F4F8
:1013600039EC332E06C02FE9210F2A3110F529EA76
:10137000322E310E232D30E02E153F05D4F447FDDB
:1013800015C086169706A806B90668F0A301920153
:101390008DD0630D711D811D911D61307105810519
:1013A00020E8920710F04FEF01C041E02196108134
:1013B000CCCF202F2170C114D10471F0442329F027
:1013C0002197F601D183C08307C001FF19C022977E
:1013D000F601D183C08314C047FF12C0222329F035
:1013E00060E070E080E090E804C06FEF7FEF8FEF87
:1013F0009FE722E230E030937D0120937C0109C019
:10140000222381F090958095709561957F4F8F4F45
:101410009F4F462F372F282F12C040E030E020E0AA
:1014200090E00DC097FFF5CF82E290E090937D01B0
:1014300080937C016FEF7FEF8FEF9FE7EACF642F00
:10144000732F822FCDB7DEB7E1E188C0FC0188277A
:101450009927E89421912032E9F3293010F02E30B9
:10146000C8F32B3239F02D3231F4689403C013D015
:10147000820F911D219120532A30C8F31EF49095BC
:1014800081959F4F089591110EC0803219F08950B7
:101490008550D0F708957AE0979F902D879F802DF3
:1014A000910D11240895992788270895DB018F93C2
:1014B0009F932DD0BF91AF91A29F800D911DA39FAF
:1014C000900DB29F900D11240895A1E21A2EAA1B2F
:1014D000BB1BFD010DC0AA1FBB1FEE1FFF1FA217E4
:1014E000B307E407F50720F0A21BB30BE40BF50BE1
:1014F000661F771F881F991F1A9469F7609570956A
:10150000809590959B01AC01BD01CF01089540D01D
:10151000A59F900DB49F900DA49F800D911D112447
:1015200008952F923F924F925F926F927F928F9287
:101530009F92AF92BF92CF92DF92EF92FF920F9362
:101540001F93CF93DF93CDB7DEB7CA1BDB0B0FB66C
:10155000F894DEBF0FBECDBF09942A883988488829
:101560005F846E847D848C849B84AA84B984C884BF
:10157000DF80EE80FD800C811B81AA81B981CE0FB6
:10158000D11D0FB6F894DEBF0FBECDBFED0108959B
:10159000A29FB001B39FC001A39F01D0B29F700D65
:0C15A000811D1124911D0895F894FFCFC7
:0215AC0002003B
:00000001FF
