:1000000010C02AC029C028C027C026C025C024C0CF
:1000100023C022C021C020C01FC01EC01DC01CC0E4
:100020001BC011241FBECFE5D2E0DEBFCDBF10E064
:10003000A0E6B0E0EAE3F7E102C005900D92A23637
:10004000B107D9F721E0A2E6B0E001C01D92AE37BA
:10005000B207E1F7C4D36FCBD3CF5F9BFECF8CB198
:1000600008955D9BFECF8CB908950F931F93CF9396
:10007000DF938C01C2E7D0E0CE0182579040801719
:1000800091071CF4EADF8993F7CFDF91CF911F919D
:100090000F910895CF93DF93C2E7D0E0DEDF89931D
:1000A0008111FCCFDF91CF9108953A9A949A959A55
:1000B000969A089515BA14BA18BA1BBA8FEF87BB6F
:1000C0008ABB08959BBB88BB0895FCDF94989598E4
:1000D0000000000083B3959A949A0895CF93DF931C
:1000E000D62FC42FEFDF8FEF84BBD5BB9698C130DE
:1000F00009F494980000C13009F4949A969A15BABC
:1001000014BADF91CF91089518BA1BBA15BA8FEFC0
:1001100087BB8ABB84BB08950F931F9315BA1BBA84
:1001200018BA2FEF24BB2ABB27BB8C012227332709
:1001300005BB072F182F292F33270BBB68BB1F9137
:100140000F910895E9DF94981BBA18BA1ABA17BA32
:100150009598000029B386B3959A949A90E0922BD3
:100160000895B0DF95983A980000000083B33A9A5A
:10017000959A0895CF93C62FA5DF8FEF84BBC5BB9B
:1001800096983A98000000003A9A969A15BA14BACE
:10019000CF9108958FEF87BB8ABB84BB90E898BB53
:1001A0008BBB85BB08959498623049F4411105C01A
:1001B000906C2FE0E1E0F0E013C09068FACF4111BD
:1001C00002C0806C01C0806827E0F4CFC098969888
:1001D00000000000969A00000000215027FD0DC08D
:1001E000BF01022E02C0660F771F0A94E2F7682350
:1001F0007923672B59F3C09AEACF411107C0C09801
:100200000000969800000000969A949A089540E0A5
:10021000CADFC098B898949884E0959800000000D0
:10022000959A000000008150C1F7E3E7F1E041E05A
:1002300050E087E090E020E0959800000000959A5B
:10024000B09B07C0BA01082E01C0660F0A94EAF7F6
:10025000262B019788F7219381E0EB37F80749F7C0
:10026000949AC09AB89A089541E09DDFE3E7F1E0DF
:1002700048E027E030E0808190E0022E02C09595B2
:1002800087950A94E2F780FF02C0C09A01C0C09827
:10029000969800000000969A000000002150310955
:1002A00050F7415031964111E4CFC0989698000024
:1002B0000000969A00000000949A0895CF93C62FEC
:1002C0002FEF24BBFFDEC5BB96983A980000969AA4
:1002D0003A9ACF910895CF93DF936AEA85E595E541
:1002E000EDDF65E58AEA9AE2E9DF60E985E595E513
:1002F000E5DF8FE39CE90197F1F700C0000015BA34
:1003000014BA80E090E02DDFC0E7D0E0888381E080
:1003100090E027DF89836AEA85E595E5CFDF65E52B
:100320008AEA9AE2CBDF60EF85E595E5C7DF8FE3E8
:100330009CE90197F1F700C00000DF91CF9108958B
:10034000CF93C82F6AEA85E595E5B8DF65E58AEAC7
:100350009AE2B4DF60EB85E595E5B0DF6C2F80E0D5
:1003600090E0CF91ABCFCF93C82F6AEA85E595E5B2
:10037000A5DF65E58AEA9AE2A1DF60E885E595E513
:100380009DDF6AEA85E595E599DF65E58AEA9AE207
:1003900095DF60E380E09C2F9295907F8FDF8FE464
:1003A00093EC0197F1F700C00000CF9108951F93DF
:1003B000CF93DF93EC01162F6AEA85E595E57EDFA2
:1003C00065E58AEA9AE27ADF60EA85E595E576DF17
:1003D000612FCE0173DF85E38A95F1F70000DF918D
:1003E000CF911F910895EF92FF920F931F93CF9398
:1003F000DF938C016AEA85E595E560DF65E58AEAC9
:100400009AE25CDF60EA85E595E558DF1695102FE6
:1004100000271795079592E7E92E90E0F92EC0E0A6
:10042000D0E0F70161917F01CE01802B912B46DF57
:100430002196C038D105A9F78FE39CE90197F1F720
:1004400000C00000DF91CF911F910F91FF90EF90BE
:10045000089515BA14BA36DE95980000000083B3EB
:10046000959A089595980000000083B3959A089591
:10047000CF93C62F2FEF24BB25DEC5BB80917B0118
:10048000813431F43998000000000000399A05C029
:100490009698000000000000969A15BA14BACF9101
:1004A00008959BBB88BB65BB80917B01813431F48F
:1004B0003998000000000000399A089596980000CD
:1004C00000000000969A08950F931F93CF938C011C
:1004D000C62F8FEF84BB609166008091640090917D
:1004E0006500DFDF60916A0080916800909169008B
:1004F000D8DF60916E0080916C0090916D00D1DF2B
:100500006C2FC801CEDF8DE08A95F1F7000015BA97
:1005100014BAA8DF8C1731F0A5DF92E09A95F1F7B5
:1005200000C0F8CFCF911F910F9108951F93CF93E3
:10053000DF93EC01162F80916300813051F440E08D
:100540006091620080E091E2C9DD85E88A95F1F76B
:10055000000060916600809164009091650088DFE2
:1005600060916A00809168009091690081DF6091DC
:100570006E0080916C0090916D007ADF612FCE014A
:1005800077DF83EF91E00197F1F700C0000015BA23
:1005900014BA3A9895E89A95F1F700003A9A85E8E6
:1005A0008A95F1F70000DF91CF911F910895FF9296
:1005B0000F931F93CF93DF93EC01162FFF24FA9430
:1005C000F4BA01E20BBB18BA81E085BB9698000033
:1005D000969A60916600809164009091650048DF72
:1005E00060916A00809168009091690041DF60919C
:1005F0006E0080916C0090916D003ADFF4BA0BBBF5
:1006000018BA8091620085BB96980000969A612F77
:10061000CE012EDF8AE18A95F1F700C015BA14BA2F
:10062000CE0117DF811739F0CE0113DF9DE09A95D7
:10063000F1F70000F7CFDF91CF911F910F91FF905D
:1006400008950F931F938C012227332705BB072F93
:10065000182F292F33270BBB68BB94985BBB48BB73
:100660009698000000000000969A949A1F910F91AE
:1006700008958FEF84BB8ABB87BB15BA95E09BBBFF
:1006800085E588BB94981BBA29EA28BB9698000098
:1006900000000000969A949A15BA22E02BBB2AEA31
:1006A00028BB94981BBA26E528BB9698000000004A
:1006B0000000969A949A15BA9BBB88BB94981BBA73
:1006C00080EA88BB9698000000000000969A949AF1
:1006D00008958FEF84BB8ABB87BB15BA95E09BBB9F
:1006E00085E588BB94981BBA2AEA28BB9698000037
:1006F00000000000969A949A15BA32E03BBB28BBE2
:1007000094981BBA88BB9698000000000000969A47
:10071000949A15BA9BBB88BB94981BBA80EA88BB95
:100720009698000000000000969A949A0895CF923F
:10073000DF92EF92FF92CF93DF936B017C01EA018E
:10074000211102C0C6DF01C094DFAE01C701B601AE
:1007500078DF25E02A95F1F70000C701B601F2DC49
:100760008C179D0741F0C701B601ECDC25E02A9506
:10077000F1F70000F5CFDF91CF91FF90EF90DF9080
:10078000CF90089584B7877F84BF88E181BD11BC75
:100790008CDC81B38C6F81BB86B1856086B915BA5C
:1007A00014BA18BA17BA1BBA1ABA8091600081300D
:1007B00019F4979A389802C0389A9798939A2FEF1D
:1007C00084E39CE0215080409040E1F700C00000AD
:1007D000939819B8599A539A549A78940895D2DFF5
:1007E00022242394D1E0C12CD12C760181E3382E30
:1007F000CFEF21E0221201C058DC2FDC8093720180
:10080000833419F480916000B8C5873411F452DC48
:10081000F0CF873609F4F8C0833339F4929882E038
:1008200080936000389A9798E4CF853339F4929A90
:1008300081E080936000979A3898DBCF813459F437
:1008400029DC40E150E060E070E082E790E0B4D560
:100850006B017C01CECF8235F1F42CDC3092720139
:1008600080917201813329F6939A00E010E0C8016B
:100870008C0D9D1D2ADCF5DB0F5F1F4F0034110529
:10088000B1F790E4C90ED11CE11CF11C9398E5DB93
:1008900080937201E5CF8735F1F40CDC80E490E0C1
:1008A000E4DB939A02E7A02E00E0B02E00E010E017
:1008B000F50161915F01C8018C0D9D1D41E00EDCC9
:1008C0000F5F1F4F0034110599F7F0E4CF0ED11CD4
:1008D000E11CF11C57C38234E1F4ECDBDBDB40E1CB
:1008E00050E060E070E082E790E066D54B015C018B
:1008F000B4DB80937201823409F07BCFCBDB82E7DB
:1009000090E06BD68093620040E0682FC401E6DB84
:1009100070CF823711F08A36B1F5F6DB8091720123
:100920008A3611F410E801C010E230927201882476
:100930008A94810E912CA12CB12C2FEF821A920A4D
:10094000A20AB20A80917201813309F052CF939AC0
:1009500026013701C301B201F5DB092F82DB802FAD
:1009600080DB8FEF481A580A680A780A842D8C19A0
:10097000811780F3C80CD91CEA1CFB1C93986DDB13
:1009800080937201DFCF8D36F1F494DB30927201E7
:10099000809172018133C1F5939A00E010E0C801A3
:1009A0008C0D9D1DDEDB5DDB0F5F1F4F00341105DD
:1009B000B1F790E4C90ED11CE11CF11C93984DDBFA
:1009C00080937201E5CF873709F574DB80E490E00E
:1009D0004CDB939A12E7A12E10E0B12E00E010E05C
:1009E000F50161915F01C8018C0D9D1DC3DB0F5F97
:1009F0001F4F00341105A1F7F0E4CF0ED11CE11C0C
:100A0000F11C81E32EDB93987FDBF3CE8F3631F43C
:100A100051DB23DB682FC601ADDB23C0893649F4E7
:100A200049DB59DC809170001CDB8091710019DB7F
:100A3000EBCF8B3649F42EDB82E790E0CED5182F32
:100A400039DB812F7DDCE0CF833769F433DB22DBB8
:100A500040E150E060E070E082E790E0ADD4862FA6
:100A600082DC81E3E4CF8236C1F424DB80E490E0D1
:100A7000FCDA939AB2E7AB2EB0E0BB2E00E010E0B8
:100A8000F50161915F01C8018C0D9D1D90DC0F5F28
:100A90001F4F00341105A1F7AFCF813669F40ADB8F
:100AA00080E890E0E2DA939AC6019DDC2FEFC21A4B
:100AB000D20AE20AF20AA5CF833551F4EBDA40E11B
:100AC00050E060E070E082E790E076D4D62F91CEDF
:100AD000853609F55FDB30927201809172018133B6
:100AE00009F092CF939A6D2FC60191DB03E711E0D5
:100AF000F80181918F01B5DA8BE791E080179107BA
:100B0000B9F79FEFC91AD90AE90AF90A9398A5DA41
:100B100080937201E2CF8037E1F43CDB03E711E020
:100B20009CDAF80181938F018BE791E08E179F0784
:100B3000B9F7939A6D2FC60197DB9FEFC91AD90AAF
:100B4000E90AF90AEFE7FEE33197F1F700C0000088
:100B500058CF803549F481DA80937B01813409F0E4
:100B600048CE319A399A45CE8E3421F481E0809373
:100B700063003FCE853419F504E610E08BDA40E1DE
:100B800050E060E070E082E790E016D4F8017183F5
:100B9000608381E366DA7EDA40E150E060E070E095
:100BA00082E790E009D4F8017383628381E359DA24
:100BB0000C5F1F4FF0E000371F0701F71ACE863495
:100BC000B1F468DA40E150E060E070E082E790E084
:100BD000F3D34B015C015EDA40E150E060E070E08D
:100BE00082E790E0E9D3939AC40142DCCBC184351B
:100BF00069F580E490E039DA939A80916300A2E786
:100C0000AA2EA0E0BA2E00E010E0811115C0F50177
:100C100061915F016F3F21F0C8018C0D9D1D54DC77
:100C20000F5F1F4F0034110591F782C00F5F1F4FF8
:100C30000034110509F47CC0F50161915F016F3F3B
:100C4000A9F3C8018C0D9D1DB2DCF0CF893509F0E8
:100C500055C080E290E009DA939A6AEA8AEA9AE05B
:100C600007DC65E585E595E003DC560165E2C60134
:100C7000FFDB6FE1C601FCDB22E02A95F1F700C043
:100C800002E710E0812C912CF80161918F01C401E1
:100C90008A0D9B1DEDDBFFEF8F1A9F0A20E2821663
:100CA000910491F780E2C80ED11CE11CF11CC60131
:100CB000809769E2DDDBEFE8F1E03197F1F700C002
:100CC0000000860101501109C801C3DBF8ECBF2EFA
:100CD00090919100891709F474C2C801BADBFDE054
:100CE000FA95F1F70000BA94B110F2CF2FEF84E338
:100CF0009CE0215080409040E1F71FC18A34F1F41C
:100D000080E490E0B2D9939AE2E7AE2EE0E0BE2E06
:100D100000E010E0F50161915F016F3F21F0C80133
:100D20008C0D9D1D03DC0F5F1F4F0034110591F7E3
:100D3000F0E4CF0ED11CE11CF11C43C2883509F050
:100D400042C080E091E091D9939A69EA8AEA9AE0F8
:100D50008FDB66E585E595E08BDB560166E2C60133
:100D600087DB6FEFC60184DB25E82A95F1F70000E9
:100D700002E710E0812C912CF80161918F01C401F0
:100D80008A0D9B1D75DBFFEF8F1A9F0A811421E0EE
:100D9000920691F78FEFD81AE80AF80AC6019A95D9
:100DA0006AE266DB860101501109C80152DB9091AD
:100DB0007101891709F405C2C8014BDB9DE09A95C2
:100DC000F1F70000F4CF8A3509F0BAC080E890E06E
:100DD0004CD9939A69E080E291E04ADB6AEA81E2C9
:100DE00091E046DB65E582E291E042DB65EA8FE374
:100DF00091E03EDBEDE0EA95F1F7000061E180E291
:100E000091E036DB65EA8FE391E032DBFDE0FA95B5
:100E1000F1F7000061E080E091E22ADB2DE02A9505
:100E2000F1F700006FE080E291E022DB65E585E20A
:100E300091E01EDB65E586E291E01ADB6AEA87E273
:100E400091E016DB65EA8FE391E012DB8DE08A9595
:100E5000F1F700006FE080E291E00ADB6AE285E2F0
:100E600091E006DB6AEA86E291E002DB65E587E273
:100E700091E0FEDA65EA8FE391E0FADA9DE09A9577
:100E8000F1F700006FE080E291E0F2DA65E585E2DB
:100E900091E0EEDA65E586E291E0EADA60EA87E27F
:100EA00091E0E6DA65EA8FE391E0E2DAEDE0EA95D7
:100EB000F1F7000040E06091620080E091E20ED91D
:100EC000FDE0FA95F1F7000060E180E291E0D0DA10
:100ED00065EA8FE391E0CCDA2DE02A95F1F7000086
:100EE00068E080E291E0C4DA65EA8FE391E0C0DA7D
:100EF0008DE08A95F1F7000002E710E082EF90E0C4
:100F00008017910779F0F80161918F01C601B0DA7D
:100F1000FDE0FA95F1F700002FEFC21AD20AE20ABB
:100F2000F20AECCF6FEFD701C6010197A109B10911
:100F30009FDAEFE1FEE43197F1F700C0000041C114
:100F40008E3619F5A7D840E150E060E070E082E706
:100F500090E032D24B015C0180D8809372018E36D2
:100F600009F047CC97D840E150E060E070E082E7BC
:100F700090E022D2939AC4BBCABBC7BBAB01C501E8
:100F8000B4015FDB939881E3F8C1813711F08437B6
:100F9000E9F5939A80917201843719F400E011E029
:100FA00002C000E410E0C80160D872E7A72E70E02C
:100FB000B72E26013701F501418150E0542F442717
:100FC0008081482B4F3FFFEF5F0721F021E0C301F5
:100FD000B201ADDB2FEF421A520A620A720A82E0B6
:100FE000A80EB11CC50182579040801791071CF3D1
:100FF0009FEFC91AD90AE90AF90A01501109169591
:101000000795C00ED11EE11CF11CDBC0863641F5F0
:10101000939A80E091E029D802E710E04601570159
:10102000F801418150E0542F44278081482B4F3FE5
:10103000FFEF5F0721F020E0C501B40178DB2FEF5F
:10104000821A920AA20AB20A0E5F1F4F81E002378B
:10105000180731F790E8C90ED11CE11CF11CB1C092
:101060008C3609F070C0939A80E490E0FED7C4BB40
:10107000CABBC7BB40E650E0C701B601E2DA40EDAB
:1010800050E0C701B601DDDA48EE50E0C701B60115
:10109000D8DAE5E8EA95F1F70000C701B60152D8C1
:1010A0008038910541F0C701B6014CD8F5E8FA95B2
:1010B000F1F70000F5CFC4BBCABBC7BB4FE150E09E
:1010C000C701B601BEDA02E710E046015701F80198
:1010D000418150E0542F44278081482BC501B40141
:1010E000B0DAFFEF8F1A9F0AAF0ABF0A0E5F1F4FD9
:1010F00020E0023B120759F780E2C80ED11CE11C28
:10110000F11C40ED50E0C701B6019BDAEFE6F3E0D9
:101110003197F1F700C00000C701B60113D880383D
:10112000910541F0C701B6010DD8F5E8FA95F1F740
:101130000000F5CFC4BBCABBC7BB4FEF50E0C7012F
:10114000B6017FDA3EC08537F1F5939A80E490E0EE
:101150008CD792E7A92E90E0B92E26013701C4BBA7
:10116000CABBC7BBF501018110E0102F00278081A9
:10117000082B40E450E0C301B20163DAA801C301C7
:10118000B2015FDAC301B201DDD787FD08C0C30138
:10119000B201D8D7F5E0FA95F1F70000F6CF2FEFBE
:1011A000421A520A620A720A82E0A80EB11C92EB3D
:1011B000A91690E0B90699F6E0E2CE0ED11CE11C2A
:1011C000F11C81E3C3C0893419F08F3409F050C099
:1011D00044D7182F5FD740E150E060E070E082E72D
:1011E00090E0EAD0939A809172018934F9F4113435
:1011F00021F48AB36095682320C0123421F487B3A8
:101200006095682320C0133421F484B3609568236B
:1012100020C0143421F481B36095682320C01534B4
:1012200009F095C086B16095682320C08F3409F01D
:101230008EC0113421F48AB3682B6ABB88C0123483
:1012400021F487B3682B67BB82C0133421F484B3C5
:10125000682B64BB7CC0143421F481B3682B61BB60
:1012600076C0153409F073C086B1682B66B96FC0BB
:101270008C3451F5F2D6182F0DD740E150E060E0E4
:1012800070E082E790E098D0939A113421F48BB308
:10129000609568232AC0123421F488B360956823CE
:1012A0002AC0133421F485B3609568232AC014340E
:1012B00021F482B3609568232AC0153409F047C031
:1012C00087B16095682329C0883449F5C6D6182FA0
:1012D000E1D640E150E060E070E082E790E06CD061
:1012E000939A113421F48BB3682B6BBB30C012344A
:1012F00021F488B3682B68BB2AC0133421F485B36A
:10130000682B65BB24C0143421F482B3682B62BB04
:101310001EC01534E1F487B1682B67B918C0843456
:10132000C1F49BD6939A813411F489B30FC08234EF
:1013300011F486B30BC0833411F483B307C0843433
:1013400011F480B303C0853411F485B18AD6939823
:1013500050CA8D3459F481D6813319F42224239450
:101360004BCA803309F045CA212C47CA883611F48C
:1013700084E003C0863519F481E173D63ACA8A3213
:1013800009F037CA87D640E150E060E070E082E7BC
:1013900090E012D0613E754E8740910509F029CA50
:1013A00084B7877F84BF28E121BD8CE081BD8FEFAA
:1013B0009FEF0197F1F71DCAA0E0B0E0E1EEF9E080
:1013C00078C15C016B017A016115710519F0FB01AF
:1013D00091838083E114F10429F0C7010297839778
:1013E00008F0E2C0E5012196F5011081812F90E01F
:1013F00011D1892B11F05E01F5CF1D3229F4219610
:10140000F501118101E007C01B3221F4E5012296AC
:10141000F501118100E0E114F10409F1F0E1EF16AA
:10142000F10429F43EC010E3E114F10421F128E0B5
:10143000E216F10401F154F4E2E0EE16F10421F5B4
:10144000812C912CA12CB0E4BB2E3DC0FAE0EF160C
:10145000F10439F020E1E216F104B1F42FC01033A9
:1014600011F1FAE0EF2EF12CACEC8A2E982CA82C7E
:10147000ACE0BA2E28C078E0E72EF12C812C912C1C
:10148000A12CE0E1BE2E1FC060E070E080E090E89B
:1014900097010F2C000C440B550BDED049015A016B
:1014A00012C0103359F488818F7D883509F0BBCF85
:1014B00019812296026080E1E82EF12C812C912C7A
:1014C000A12C68E0B62E40E060E070E0CB0127017F
:1014D0000F2C000C66087708FE0150ED352E310EFA
:1014E00029E0231570F42FEB210F2A3118F439EC81
:1014F000332E06C02FE9210F2A3110F529EA322EAA
:10150000310E232D30E02E153F05D4F447FD15C0D4
:1015100086169706A806B90668F0A30192018DD039
:10152000630D711D811D911D61307105810520E8DC
:10153000920710F04FEF01C041E021961081CCCF0F
:10154000202F2170C114D10471F0442329F0219778
:10155000F601D183C08307C001FF19C02297F601AD
:10156000D183C08314C047FF12C0222329F060E05A
:1015700070E080E090E804C06FEF7FEF8FEF9FE7AF
:1015800022E230E030937D0120937C0109C02223C8
:1015900081F090958095709561957F4F8F4F9F4F0B
:1015A000462F372F282F12C040E030E020E090E097
:1015B0000DC097FFF5CF82E290E090937D0180937C
:1015C0007C016FEF7FEF8FEF9FE7EACF642F732FE0
:1015D000822FCDB7DEB7E1E188C0FC0188279927CB
:1015E000E89421912032E9F3293010F02E30C8F32D
:1015F0002B3239F02D3231F4689403C013D0820FAE
:10160000911D219120532A30C8F31EF490958195A5
:101610009F4F089591110EC0803219F08950855066
:10162000D0F708957AE0979F902D879F802D910D98
:1016300011240895992788270895DB018F939F939C
:101640002DD0BF91AF91A29F800D911DA39F900DB2
:10165000B29F900D11240895A1E21A2EAA1BBB1B64
:10166000FD010DC0AA1FBB1FEE1FFF1FA217B3076E
:10167000E407F50720F0A21BB30BE40BF50B661F84
:10168000771F881F991F1A9469F760957095809548
:1016900090959B01AC01BD01CF01089540D0A59F5D
:1016A000900DB49F900DA49F800D911D112408955D
:1016B0002F923F924F925F926F927F928F929F9262
:1016C000AF92BF92CF92DF92EF92FF920F931F9350
:1016D000CF93DF93CDB7DEB7CA1BDB0B0FB6F89401
:1016E000DEBF0FBECDBF09942A88398848885F8441
:1016F0006E847D848C849B84AA84B984C884DF80B2
:10170000EE80FD800C811B81AA81B981CE0FD11D95
:101710000FB6F894DEBF0FBECDBFED010895A29FB6
:10172000B001B39FC001A39F01D0B29F700D811D76
:0A1730001124911D0895F894FFCFD5
:02173A000200AB
:00000001FF
