:1000000010C02AC029C028C027C026C025C024C0CF
:1000100023C022C021C020C01FC01EC01DC01CC0E4
:100020001BC011241FBECFE5D2E0DEBFCDBF10E064
:10003000A0E6B0E0E6E4F4E102C005900D92A2363D
:10004000B107D9F721E0A2E6B0E001C01D92AE37BA
:10005000B207E1F768D3F5C9D3CF5F9BFECF8CB170
:1000600008955D9BFECF8CB908950F931F93CF9396
:10007000DF938C01C2E7D0E0CE0182579040801719
:1000800091071CF4EADF8993F7CFDF91CF911F919D
:100090000F910895CF93DF93C2E7D0E0DEDF89931D
:1000A0008111FCCFDF91CF9108953A9A949A959A55
:1000B000969A089515BA14BA18BA1BBA8FEF87BB6F
:1000C0008ABB08959BBB88BB0895FCDF94989598E4
:1000D0000000000083B3959A949A0895CF93DF931C
:1000E000D62FC42FEFDF8FEF84BBD5BB9698C130DE
:1000F00009F494980000C13009F4949A969A15BABC
:1001000014BADF91CF91089518BA1BBA15BA8FEFC0
:1001100087BB8ABB84BB08950F931F9315BA1BBA84
:1001200018BA2FEF24BB2ABB27BB8C012227332709
:1001300005BB072F182F292F33270BBB68BB1F9137
:100140000F910895E9DF94981BBA18BA1ABA17BA32
:100150009598000029B386B3959A949A90E0922BD3
:100160000895B0DF95983A980000000083B33A9A5A
:10017000959A0895CF93C62FA5DF8FEF84BBC5BB9B
:1001800096983A98000000003A9A969A15BA14BACE
:10019000CF9108958FEF87BB8ABB84BB90E898BB53
:1001A0008BBB85BB08959498623049F4411105C01A
:1001B000906C2FE0E1E0F0E013C09068FACF4111BD
:1001C00002C0806C01C0806827E0F4CFC098969888
:1001D00000000000969A00000000215027FD0DC08D
:1001E000BF01022E02C0660F771F0A94E2F7682350
:1001F0007923672B59F3C09AEACF411107C0C09801
:100200000000969800000000969A949A089540E0A5
:10021000CADFC098B898949884E0959800000000D0
:10022000959A000000008150C1F7E3E7F1E041E05A
:1002300050E087E090E020E0959800000000959A5B
:10024000B09B07C0BA01082E01C0660F0A94EAF7F6
:10025000262B019788F7219381E0EB37F80749F7C0
:10026000949AC09AB89A089541E09DDFE3E7F1E0DF
:1002700048E027E030E0808190E0022E02C09595B2
:1002800087950A94E2F780FF02C0C09A01C0C09827
:10029000969800000000969A000000002150310955
:1002A00050F7415031964111E4CFC0989698000024
:1002B0000000969A00000000949A0895CF93C62FEC
:1002C0002FEF24BBFFDEC5BB96983A980000969AA4
:1002D0003A9ACF910895CF93DF936AEA85E595E541
:1002E000EDDF65E58AEA9AE2E9DF60E985E595E513
:1002F000E5DF8FE39CE90197F1F700C0000015BA34
:1003000014BA80E090E02DDFC0E7D0E0888381E080
:1003100090E027DF89836AEA85E595E5CFDF65E52B
:100320008AEA9AE2CBDF60EF85E595E5C7DF8FE3E8
:100330009CE90197F1F700C00000DF91CF9108958B
:10034000CF93C82F6AEA85E595E5B8DF65E58AEAC7
:100350009AE2B4DF60EB85E595E5B0DF6C2F80E0D5
:1003600090E0CF91ABCFCF93C82F6AEA85E595E5B2
:10037000A5DF65E58AEA9AE2A1DF60E885E595E513
:100380009DDF6AEA85E595E599DF65E58AEA9AE207
:1003900095DF60E380E09C2F9295907F8FDF8FE464
:1003A00093EC0197F1F700C00000CF9108951F93DF
:1003B000CF93DF93EC01162F6AEA85E595E57EDFA2
:1003C00065E58AEA9AE27ADF60EA85E595E576DF17
:1003D000612FCE0173DF85E38A95F1F70000DF918D
:1003E000CF911F910895EF92FF920F931F93CF9398
:1003F000DF938C016AEA85E595E560DF65E58AEAC9
:100400009AE25CDF60EA85E595E558DF1695102FE6
:1004100000271795079592E7E92E90E0F92EC0E0A6
:10042000D0E0F70161917F01CE01802B912B46DF57
:100430002196C038D105A9F78FE39CE90197F1F720
:1004400000C00000DF91CF911F910F91FF90EF90BE
:10045000089515BA14BA36DE95980000000083B3EB
:10046000959A0895CF93C62F2FEF24BB2BDEC5BBE3
:1004700080917B01813431F4399800000000000044
:10048000399A05C09698000000000000969ACF9116
:1004900008951F93CF93DF93EC01162F60916600B0
:1004A0008091640090916500DDDF60916A00809129
:1004B000680090916900D6DF60916E0080916C00B9
:1004C00090916D00CFDF612FCE01CCDF8AE18A955C
:1004D000F1F700C015BA14BACE01BBDF811739F0AD
:1004E000CE01B7DF9DE09A95F1F70000F7CFDF91DD
:1004F000CF911F910895FF920F931F93CF93DF9396
:10050000EC01162FFF24FA94F4BA01E20BBB18BADF
:1005100081E085BB96980000969A60916600809174
:100520006400909165009EDF60916A008091680090
:100530009091690097DF60916E0080916C009091BE
:100540006D0090DFF4BA0BBB18BA8091620085BBD6
:1005500096980000969A612FCE0184DF8AE18A95F1
:10056000F1F700C015BA14BACE0173DF811739F064
:10057000CE016FDF9DE09A95F1F70000F7CFDF9194
:10058000CF911F910F91FF9008950F931F938C01AE
:100590002227332705BB072F182F292F33270BBB03
:1005A00068BB94985BBB48BB9698000000000000B5
:1005B000969A949A1F910F9108958FEF84BB8ABBEE
:1005C00087BB15BA95E09BBB85E588BB94981BBAA1
:1005D00029EA28BB9698000000000000969A949A99
:1005E00015BA22E02BBB2AEA28BB94981BBA26E551
:1005F00028BB9698000000000000969A949A15BABD
:100600009BBB88BB94981BBA80EA88BB9698000075
:1006100000000000969A949A08958FEF84BB8ABBDD
:1006200087BB15BA95E09BBB85E588BB94981BBA40
:100630002AEA28BB9698000000000000969A949A37
:1006400015BA32E03BBB28BB94981BBA88BB96987E
:10065000000000000000969A949A15BA9BBB88BBD4
:1006600094981BBA80EA88BB9698000000000000AE
:10067000969A949A0895CF92DF92EF92FF92CF9339
:10068000DF936B017C01EA01211102C0C6DF01C0CA
:1006900094DFAE01C701B60178DF25E02A95F1F7B6
:1006A0000000C701B6014EDD8C179D0741F0C70160
:1006B000B60148DD25E02A95F1F70000F5CFDF917E
:1006C000CF91FF90EF90DF90CF90089584B7877F10
:1006D00084BF88E181BD11BCE8DC81B38C6F81BB34
:1006E00086B1856086B915BA14BA18BA17BA1BBA9A
:1006F0001ABA80916000813019F4979A389802C034
:10070000389A9798939A2FEF84E39CE02150804089
:100710009040E1F700C00000939819B8599A539A95
:10072000549A78940895CF93DF9300D0CDB7DEB775
:10073000CDDF21E02A8381E08983C12CD12C760191
:10074000BBE72B2EB1E03B2EEA81E13009F4ADDCB2
:1007500084DC80937201833419F48091600093C427
:10076000873411F4A7DCF0CF873609F4FBC083335C
:1007700039F49298F2E0F0936000389A9798E4CFB9
:10078000853339F4929A81E080936000979A389883
:10079000DBCF813459F47EDC40E150E060E070E072
:1007A00082E790E08FD46B017C01CECF8235F9F4E3
:1007B00081DC21E32093720180917201813321F663
:1007C000939A00E010E0C8018C0D9D1D7EDC49DC91
:1007D0000F5F1F4F00341105B1F780E4C80ED11C24
:1007E000E11CF11C939839DC80937201E5CF8735C9
:1007F000F1F460DC80E490E038DC939AA2E7AA2E62
:10080000A0E0BA2E00E010E0F50161915F01C8019F
:100810008C0D9D1D41E062DC0F5F1F4F0034110500
:1008200099F7F0E4CF0ED11CE11CF11C75C28234A3
:10083000E1F440DC2FDC40E150E060E070E082E772
:1008400090E040D44B015C0108DC8093720182345B
:1008500009F07ACF1FDC82E790E045D580936200F3
:1008600040E0682FC4013ADC6FCF823711F08A363E
:10087000B9F54ADC809172018A3611F400E801C0B2
:1008800000E221E32093720188248A94800E912C47
:10089000A12CB12C8FEF881A980AA80AB80A809167
:1008A0007201813309F050CF939A26013701C301B9
:1008B000B20148DC192FD5DB812FD3DB9FEF491A1A
:1008C000590A690A790A842D8C19801780F3C80C9B
:1008D000D91CEA1CFB1C9398C0DB80937201DFCF0C
:1008E0008D36F9F4E7DBE1E3E09372018091720168
:1008F0008133C1F5939A00E010E0C8018C0D9D1D75
:1009000030DCAFDB0F5F1F4F00341105B1F7F0E4AF
:10091000CF0ED11CE11CF11C93989FDB80937201D8
:10092000E5CF873709F5C6DB80E490E09EDB939A3C
:10093000F2E7AF2EF0E0BF2E00E010E0F50161918C
:100940005F01C8018C0D9D1D15DC0F5F1F4F00342A
:100950001105A1F7F0E4CF0ED11CE11CF11C81E3DD
:1009600080DB9398D1DBF0CE8F3631F4A3DB75DBDF
:10097000682FC601FFDB23C0893649F49BDBABDC63
:10098000809170006EDB809171006BDBEBCF8B365A
:1009900049F480DB82E790E0A6D4182F8BDB812F0F
:1009A000CFDCE0CF833769F485DB74DB40E150E0D6
:1009B00060E070E082E790E085D3862FD4DC81E3AD
:1009C000E4CF8236C1F476DB80E490E04EDB939A8C
:1009D000E2E7AE2EE0E0BE2E00E010E0F50161910E
:1009E0005F01C8018C0D9D1DE2DC0F5F1F4F0034BD
:1009F0001105A1F7AFCF813669F45CDB80E890E0A8
:100A000034DB939AC601EFDC2FEFC21AD20AE20A56
:100A1000F20AA5CF833551F43DDB40E150E060E0C0
:100A200070E082E790E04ED369838ECE8536F1F494
:100A3000B1DB81E38093720180917201813309F00F
:100A400091CF939A6981C601E2DB03E711E0F801D7
:100A500081918F0106DB20163106C9F7FFEFCF1A0F
:100A6000DF0AEF0AFF0A9398F8DAE4CF8037D1F46F
:100A700091DB03E711E0F1DAF80181938F012E1683
:100A80003F06C9F7939A6981C601EEDBFFEFCF1AE3
:100A9000DF0AEF0AFF0A8FE79EE30197F1F700C034
:100AA00000005DCF803549F4D8DA80937B01813432
:100AB00009F04ACE319A399A47CE8E3421F481E03A
:100AC0008093630041CE853419F504E610E0E2DA44
:100AD00040E150E060E070E082E790E0F3D2F8019E
:100AE0007183608381E3BDDAD5DA40E150E060E0F4
:100AF00070E082E790E0E6D2F8017383628381E3DD
:100B0000B0DA0C5F1F4FF0E000371F0701F71CCE73
:100B10008634B1F4BFDA40E150E060E070E082E793
:100B200090E0D0D24B015C01B5DA40E150E060E0EA
:100B300070E082E790E0C6D2939AC40193DCECC0E7
:100B4000843541F580E490E090DA939A62E7A62E2E
:100B500060E0B62E70E4972E860102571040809117
:100B60006300F5016081811105C0C8018A0D9B1DDC
:100B700090DC04C0C8018A0D9B1DBDDC9A94FFEF78
:100B8000AF1ABF0A9110EBCF20E4C20ED11CE11CBA
:100B9000F11C9DC1893509F057C080E290E065DA0B
:100BA000939A6AEA8AEA9AE05DDC65E585E595E074
:100BB00059DC560165E2C60155DC6FE1C60152DC25
:100BC00082E08A95F1F700C002E710E0812C912CB9
:100BD000F80161918F01C4018A0D9B1D43DCFFEF79
:100BE0008F1A9F0A20E28216910491F780E2C80EC4
:100BF000D11CE11CF11CC601809769E233DCEFE8EF
:100C0000F1E03197F1F700C00000860101501109B1
:100C1000C8011FDC58ECB52E90919100891709F49A
:100C200056C1C80116DCFDE0FA95F1F70000BA9450
:100C3000B110F2CF2FEF84E39CE021508040904030
:100C4000E1F700C0000043C1883509F042C080E0F0
:100C500091E00BDA939A69EA8AEA9AE003DC66E5A6
:100C600085E595E0FFDB560166E2C601FBDB6FEF31
:100C7000C601F8DBE5E8EA95F1F7000002E710E0CD
:100C8000812C912CF80161918F01C4018A0D9B1D6B
:100C9000E9DBFFEF8F1A9F0A811421E0920691F79A
:100CA0008FEFD81AE80AF80AC6019A956AE2DADBE9
:100CB000860101501109C801CCDB9091710189179F
:100CC00009F405C1C801C5DB9DE09A95F1F7000064
:100CD000F4CF8E3621F5DED940E150E060E070E0DF
:100CE00082E790E0EFD14B015C01B7D980937201AC
:100CF0008E3609F029CDCED940E150E060E070E0B9
:100D000082E790E0DFD1939AEFEFE4BBEABBE7BB69
:100D1000AB01C501B40139DC939881E3B4C18137DB
:100D200011F08437C9F5939A80917201843719F4D0
:100D300000E011E002C000E410E0C80196D942E7EB
:100D4000A42E40E0B42E26013701F501418150E088
:100D5000542F44278081482B21E0C301B2018BDC52
:100D6000FFEF4F1A5F0A6F0A7F0A22E0A20EB11C42
:100D7000C50182579040801791073CF38FEFC81A46
:100D8000D80AE80AF80A0150110916950795C00E0D
:100D9000D11EE11CF11C9BC0863621F5939A80E0A0
:100DA00091E063D902E710E046015701F801418163
:100DB00050E0542F44278081482B20E0C501B40126
:100DC0005ADCFFEF8F1A9F0AAF0ABF0A0E5F1F4F50
:100DD00021E00237120751F780E8C80ED11CE11C50
:100DE000F11C75C08C3609F074C0939A80E490E0D1
:100DF0003CD99FEF94BB9ABB97BB40E650E0C7013C
:100E0000B601C3DB40ED50E0C701B601BEDB48EEE2
:100E100050E0C701B601B9DBE5E8EA95F1F700005B
:100E2000C701B6018FD98038910541F0C701B601DD
:100E300089D9F5E8FA95F1F70000F5CF2FEF24BB3B
:100E40002ABB27BB4FE150E0C701B6019EDB02E79A
:100E500010E046015701F801418150E0542F44272A
:100E60008081482BC501B40190DBFFEF8F1A9F0AE8
:100E7000AF0ABF0A0E5F1F4F20E0023B120759F76F
:100E800080E2C80ED11CE11CF11C40ED50E0C7010E
:100E9000B6017BDBEFE6F3E03197F1F700C000002D
:100EA000C701B6014FD98038910541F0C701B6019D
:100EB00049D9F5E8FA95F1F70000F5CF2FEF24BBFB
:100EC0002ABB27BB4FEF50E0C701B6015EDB81E3D1
:100ED000C3C0893419F08F3409F050C0BED8182F20
:100EE000D9D840E150E060E070E082E790E0EAD0DD
:100EF000939A809172018934F9F4113421F48AB300
:100F00006095682320C0123421F487B3609568236C
:100F100020C0133421F484B36095682320C01434B6
:100F200021F481B36095682320C0153409F095C081
:100F300086B16095682320C08F3409F08EC01134CB
:100F400021F48AB3682B6ABB88C0123421F487B3BA
:100F5000682B67BB82C0133421F484B3682B64BB55
:100F60007CC0143421F481B3682B61BB76C0153486
:100F700009F073C086B1682B66B96FC08C3451F527
:100F80006CD8182F87D840E150E060E070E082E72D
:100F900090E098D0939A113421F48BB36095682334
:100FA0002AC0123421F488B3609568232AC0133410
:100FB00021F485B3609568232AC0143421F482B3E8
:100FC000609568232AC0153409F047C087B1609541
:100FD000682329C0883449F540D8182F5BD840E1F0
:100FE00050E060E070E082E790E06CD0939A1134BA
:100FF00021F48BB3682B6BBB30C0123421F488B35F
:10100000682B68BB2AC0133421F485B3682B65BBF9
:1010100024C0143421F482B3682B62BB1EC0153483
:10102000E1F487B1682B67B918C08434C1F415D8CE
:10103000939A813411F489B30FC0823411F486B3CA
:101040000BC0833411F483B307C0843411F480B32C
:1010500003C0853411F485B104D8939875CB8D34D1
:1010600059F4FBD7813319F491E09A8370CB803324
:1010700009F06ACB1A826CCB883611F484E003C085
:10108000863519F48CE0EDD75FCB8A3209F05CCB62
:1010900001D840E150E060E070E082E790E012D0DB
:1010A000613E754E8740910509F04ECB84B7877F2E
:1010B00084BFF8E1F1BD2CE021BD8FEF9FEF0197D8
:1010C000F1F742CBA0E0B0E0E7E6F8E078C15C01E0
:1010D0006B017A016115710519F0FB019183808321
:1010E000E114F10429F0C7010297839708F0E2C0E8
:1010F000E5012196F5011081812F90E011D1892B16
:1011000011F05E01F5CF1D3229F42196F501118110
:1011100001E007C01B3221F4E5012296F50111819F
:1011200000E0E114F10409F1F0E1EF16F10429F413
:101130003EC010E3E114F10421F128E0E216F104CD
:1011400001F154F4E2E0EE16F10421F5812C912C2A
:10115000A12CB0E4BB2E3DC0FAE0EF16F10439F04B
:1011600020E1E216F104B1F42FC0103311F1FAE0DE
:10117000EF2EF12CACEC8A2E982CA82CACE0BA2ED9
:1011800028C078E0E72EF12C812C912CA12CE0E1F5
:10119000BE2E1FC060E070E080E090E897010F2C49
:1011A000000C440B550BDED049015A0112C010331C
:1011B00059F488818F7D883509F0BBCF198122963B
:1011C000026080E1E82EF12C812C912CA12C68E0AA
:1011D000B62E40E060E070E0CB0127010F2C000C40
:1011E00066087708FE0150ED352E310E29E02315F3
:1011F00070F42FEB210F2A3118F439EC332E06C08E
:101200002FE9210F2A3110F529EA322E310E232D34
:1012100030E02E153F05D4F447FD15C0861697061D
:10122000A806B90668F0A30192018DD0630D711D67
:10123000811D911D61307105810520E8920710F034
:101240004FEF01C041E021961081CCCF202F2170BB
:10125000C114D10471F0442329F02197F601D18300
:10126000C08307C001FF19C02297F601D183C08354
:1012700014C047FF12C0222329F060E070E080E034
:1012800090E804C06FEF7FEF8FEF9FE722E230E03E
:1012900030937D0120937C0109C0222381F0909539
:1012A0008095709561957F4F8F4F9F4F462F372FB9
:1012B000282F12C040E030E020E090E00DC097FF02
:1012C000F5CF82E290E090937D0180937C016FEFF7
:1012D0007FEF8FEF9FE7EACF642F732F822FCDB779
:1012E000DEB7E1E188C0FC0188279927E8942191C5
:1012F0002032E9F3293010F02E30C8F32B3239F0C8
:101300002D3231F4689403C013D0820F911D2191C6
:1013100020532A30C8F31EF4909581959F4F08956D
:1013200091110EC0803219F089508550D0F7089580
:101330007AE0979F902D879F802D910D112408951D
:10134000992788270895DB018F939F932DD0BF9114
:10135000AF91A29F800D911DA39F900DB29F900D04
:1013600011240895A1E21A2EAA1BBB1BFD010DC07A
:10137000AA1FBB1FEE1FFF1FA217B307E407F50745
:1013800020F0A21BB30BE40BF50B661F771F881F21
:10139000991F1A9469F760957095809590959B01B7
:1013A000AC01BD01CF01089540D0A59F900DB49F21
:1013B000900DA49F800D911D112408952F923F92AE
:1013C0004F925F926F927F928F929F92AF92BF9255
:1013D000CF92DF92EF92FF920F931F93CF93DF9301
:1013E000CDB7DEB7CA1BDB0B0FB6F894DEBF0FBE5E
:1013F000CDBF09942A88398848885F846E847D84AB
:101400008C849B84AA84B984C884DF80EE80FD80AC
:101410000C811B81AA81B981CE0FD11D0FB6F89422
:10142000DEBF0FBECDBFED010895A29FB001B39FF7
:10143000C001A39F01D0B29F700D811D1124911D89
:061440000895F894FFCFAF
:021446000200A2
:00000001FF
