:1000000010C01FC01EC01DC01CC01BC01AC019C01C
:1000100018C017C016C015C014C013C012C011C03C
:1000200010C011241FBECFE5D2E0DEBFCDBF20E05F
:10003000A0E6B0E001C01D92AE3EB207E1F7BED22D
:100040009BC7DECF5F9BFECF8CB108955D9BFECF3B
:100050008CB908950F931F93CF93DF93D82F02E6A7
:1000600010E0C0E0CD1731F0EDDFF80181938F0192
:10007000CF5FF8CFDF91CF911F910F910895CF936C
:10008000C0E0E0DFEC2FF0E0EE59FF4F80838823E3
:1000900011F0CF5FF6CFCF9108953A9A949A959A3E
:1000A000969A089515BA14BA18BA1BBA8FEF87BB7F
:1000B0008ABB08959BBB88BB0895FCDF94989598F4
:1000C0000000000083B3959A949A0895CF93DF932C
:1000D000D62FC42FEFDF8FEF84BBD5BB9698C130EE
:1000E00009F494980000C13009F4949A969A15BACC
:1000F00014BADF91CF91089518BA1BBA15BA8FEFD1
:1001000087BB8ABB84BB08950F931F9315BA1BBA94
:1001100018BA2FEF24BB2ABB27BB8C012227332719
:1001200005BB072F182F292F33270BBB68BB1F9147
:100130000F910895E9DF94981BBA18BA1ABA17BA42
:100140009598000029B386B3959A949A90E0922BE3
:100150000895B0DF95983A980000000083B33A9A6A
:10016000959A0895CF93C62FA5DF8FEF84BBC5BBAB
:1001700096983A98000000003A9A969A15BA14BADE
:10018000CF9108958FEF87BB8ABB84BB90E898BB63
:100190008BBB85BB08959498623049F4411105C02A
:1001A000906C2FE0E1E0F0E013C09068FACF4111CD
:1001B00002C0806C01C0806827E0F4CFC098969898
:1001C00000000000969A00000000215027FD0DC09D
:1001D000BF01022E02C0660F771F0A94E2F7682360
:1001E0007923672B59F3C09AEACF411107C0C09811
:1001F0000000969800000000969A949A089540E0B6
:10020000CADFC098B898949884E0959800000000E0
:10021000959A000000008150C1F7E4EEF0E041E063
:1002200050E087E090E020E0959800000000959A6B
:10023000B09B07C0BA01082E01C0660F0A94EAF706
:10024000262B019788F7219380E0EC3EF80749F7C9
:10025000949AC09AB89A089541E09DDFE4EEF0E0E8
:1002600048E027E030E0808190E0022E02C09595C2
:1002700087950A94E2F780FF02C0C09A01C0C09837
:10028000969800000000969A000000002150310965
:1002900050F7415031964111E4CFC0989698000034
:1002A0000000969A00000000949A0895CF93C62FFC
:1002B0002FEF24BBFFDEC5BB96983A980000969AB4
:1002C0003A9ACF910895CF93DF936AEA85E595E551
:1002D000EDDF65E58AEA9AE2E9DF60E985E595E523
:1002E000E5DF8FE39CE90197F1F700C0000015BA44
:1002F00014BA80E090E02DDFC0E6D0E0888381E092
:1003000090E027DF89836AEA85E595E5CFDF65E53B
:100310008AEA9AE2CBDF60EF85E595E5C7DF8FE3F8
:100320009CE90197F1F700C00000DF91CF9108959B
:10033000CF93C82F6AEA85E595E5B8DF65E58AEAD7
:100340009AE2B4DF60EB85E595E5B0DF6C2F80E0E5
:1003500090E0CF91ABCFCF93C82F6AEA85E595E5C2
:10036000A5DF65E58AEA9AE2A1DF60E885E595E523
:100370009DDF6AEA85E595E599DF65E58AEA9AE217
:1003800095DF60E380E09C2F9295907F8FDF8FE474
:1003900093EC0197F1F700C00000CF9108951F93EF
:1003A000CF93DF93EC01162F6AEA85E595E57EDFB2
:1003B00065E58AEA9AE27ADF60EA85E595E576DF27
:1003C000612FCE0173DF85E38A95F1F70000DF919D
:1003D000CF911F910895EF92FF920F931F93CF93A8
:1003E000DF938C016AEA85E595E560DF65E58AEAD9
:1003F0009AE25CDF60EA85E595E558DF1695102FF7
:1004000000271795079592E6E92E90E0F92EC0E0B7
:10041000D0E0F70161917F01CE01802B912B46DF67
:100420002196C038D105A9F78FE39CE90197F1F730
:1004300000C00000DF91CF911F910F91FF90EF90CE
:100440000895CF93C62F2FEF24BB34DEC5BB399858
:10045000000000000000399ACF9108951F93CF93B8
:10046000DF93EC01162F6AEA85E595E0EADF65E5A2
:100470008AEA92E0E6DF60EA85E595E0E2DF612F57
:10048000CE01DFDF85E38A95F1F70000DF91CF91A0
:100490001F910895CF93C62F2FEF24BB0BDEC5BB52
:1004A0009698000000000000969ACF9108951F933F
:1004B000CF93DF93EC01162F69EA8AEA9AE0EADF2C
:1004C00066E585E595E0E6DF60EA8AEA9AE0E2DF44
:1004D000612FCE01DFDF85E38A95F1F70000DF9120
:1004E000CF911F910895CF93DF93EA010DDE949889
:1004F0008FEF8ABB87BBDBBBC8BB969800000000B0
:100500000000969A949ADF91CF910895CF92DF924E
:10051000EF92FF92CF93DF936B017C01EA0149EAEE
:1005200050E065E575E080E090E0DDDF46E550E015
:100530006AEA72E080E090E0D6DF40EA50E065E5EC
:1005400075E080E090E0CFDFAE01C701B601CBDF00
:1005500085E88A95F1F70000DF91CF91FF90EF9049
:10056000DF90CF90089584B7877F84BF88E181BDF5
:1005700011BC93DD81B3886F81BB86B1856086B97C
:1005800015BA14BA18BA17BA1BBA1ABA829B03C0A2
:10059000979A389802C0389A9798939A2FEF84E3E5
:1005A0009CE0215080409040E1F700C0000093980B
:1005B00019B8599A539A549A78940895D4DF882494
:1005C000839499249394C12CD12C760132EA632E22
:1005D00030E0732E0CEE10E021E0821201C05DDDF0
:1005E00031DD8093E300829B04C0979A389881E0C4
:1005F00003C0389A979882E09091E300933409F40D
:10060000DDC2973411F44EDDE7CF973609F4C5C04B
:10061000913459F434DD40E150E060E070E082E66E
:1006200090E0EBD26B017C01D7CF9235E1F43ADD5B
:1006300081E38093E3008091E300813369F6939A2C
:10064000C0E0D0E0CE018C0D9D1D37DDFFDC219692
:10065000C034D105B9F780E4C80ED11CE11CF11CEF
:100660009398F0DCE6CF9735D9F41CDD80E4F2DC1A
:10067000939AC2E6D0E0A12CB12C6991C5018C0DF2
:100680009D1D41E023DD9FEFA91AB90AE0E4AE16F3
:10069000B10499F7F0E4CF0ED11CE11CF11C8FC11D
:1006A0009234D1F4FFDCEBDC40E150E060E070E03C
:1006B00082E690E0A2D21B012C01C4DC8093E3000F
:1006C000823409F089CFDBDC82E690E0A7D340E0FA
:1006D000682FC101FBDC80CF923719F50DDD81E376
:1006E0008093E3008091E300813309F075CF939A02
:1006F00016012701C0E2C201B1011CDDD92FA6DC21
:100700008D2FA4DC2FEF221A320A420A520AC1505E
:1007100091F780E2C80ED11CE11CF11C939892DC89
:10072000DFCF9D36E1F4BEDC81E38093E30080916E
:10073000E300813391F5939AC0E0D0E0CE018C0DB7
:100740009D1D07DD83DC2196C034D105B9F790E407
:10075000C90ED11CE11CF11C939874DCE6CF9737CD
:10076000F1F4A0DC80E476DC939AC2E6D0E0A12C20
:10077000B12C6991C5018C0D9D1DF4DCEFEFAE1A13
:10078000BE0AF0E4AF16B104A1F720E4C20ED11CFA
:10079000E11CF11C81E35ADC9398AEDC1DCF9F363F
:1007A00031F480DC4FDC682FC601DCDC23C09936D5
:1007B00049F478DC88DD8091600048DC809161003C
:1007C00045DCEBCF9B3649F45ADC82E690E026D339
:1007D000C82F68DC8C2FACDDE0CF933769F462DC86
:1007E0004EDC40E150E060E070E082E690E005D24F
:1007F000862FB1DD81E3E4CF9236D9F453DC80E477
:1008000029DC939A22E6A22E20E0B22EC0E0D0E0AE
:10081000F50161915F01CE018C0D9D1DC0DD21961A
:10082000C034D105A9F7F0E4CF0ED11CE11CF11CB6
:10083000B1CF913661F436DC80E80CDC939AC601C6
:10084000CADD2FEFC21AD20AE20AF20AA3CF933509
:1008500051F415DC40E150E060E070E082E690E0A9
:10086000CCD1962EB9CE9536E1F48CDC81E3809321
:10087000E3008091E300813309F08FCF939A692DD3
:10088000C601BDDCC4EED0E08991E0DB0C171D078A
:10089000D9F78FEFC81AD80AE80AF80A9398D2DB7A
:1008A000E6CF9037C1F46EDCC4EED0E0CBDB8993A9
:1008B0000C171D07D9F7939A692DC601CDDC9FEF60
:1008C000C91AD90AE90AF90AEFE7FEE33197F1F705
:1008D00000C000005FCF963441F5D1DB40E150E02D
:1008E00060E070E082E690E088D11B012C01AADB79
:1008F0008093E300853519F0853309F06DCEBFDBB9
:1009000040E150E060E070E082E690E076D1939ABA
:100910008091E300853519F4C10193DD50C0853322
:1009200009F04DC0C101B6DD4AC0943549F58ADBF6
:100930008093E30080E48EDB939AC2E6D0E090E4FB
:10094000592EC601825690405C018091E3008535A6
:1009500031F46881C5018C0F9D1F80DD07C0853390
:1009600029F46881C5018C0F9D1FA1DD5A94219641
:100970005110EBCF90E4C90ED11CE11CF11C42C018
:100980009E3601F57CDB40E150E060E070E082E6FD
:1009900090E033D11B012C0155DB8093E3008E36B0
:1009A00009F01ACE6CDB40E150E060E070E082E6D6
:1009B00090E023D1939AAB01C201B10194DD9398E9
:1009C00081E3FCC0913701F580E444DB939AC2E6F1
:1009D000D0E016012701498150E0542F4427888137
:1009E000482BC201B10192DDEFEF2E1A3E0A4E0AEA
:1009F0005E0A22966C167D0671F7F0E2CF0ED11CCE
:100A0000E11CF11C81E3C3C0993419F09F3409F053
:100A100050C018DBC82F33DB40E150E060E070E0ED
:100A200082E690E0EAD0939A8091E3008934F9F469
:100A3000C13421F48AB36095682320C0C23421F404
:100A400087B36095682320C0C33421F484B36095D4
:100A5000682320C0C43421F481B36095682320C08A
:100A6000C53409F095C086B16095682320C08F34E5
:100A700009F08EC0C13421F48AB3682B6ABB88C0E8
:100A8000C23421F487B3682B67BB82C0C33421F41E
:100A900084B3682B64BB7CC0C43421F481B3682B5D
:100AA00061BB76C0C53409F073C086B1682B66B9E6
:100AB0006FC09C3451F5C6DAC82FE1DA40E150E04E
:100AC00060E070E082E690E098D0939AC13421F41F
:100AD0008BB3609568232AC0C23421F488B3609533
:100AE00068232AC0C33421F485B3609568232AC0E3
:100AF000C43421F482B3609568232AC0C53409F058
:100B000047C087B16095682329C0983449F59ADABF
:100B1000C82FB5DA40E150E060E070E082E690E096
:100B20006CD0939AC13421F48BB3682B6BBB30C06B
:100B3000C23421F488B3682B68BB2AC0C33421F4C3
:100B400085B3682B65BB24C0C43421F482B3682B01
:100B500062BB1EC0C534E1F487B1682B67B918C009
:100B60009434C1F46FDA939A813411F489B30FC0CD
:100B7000823411F486B30BC0833411F483B307C0FD
:100B8000843411F480B303C0853411F485B15EDA86
:100B9000939822CD9D3459F455DA813319F4882481
:100BA00083941DCD803309F017CD812C19CD983653
:100BB00011F482E003C0963519F485E047DA0CCDD4
:100BC0009A3209F009CD5BDA40E150E060E070E074
:100BD00082E690E012D0613E754E8740910509F0A3
:100BE000FBCC84B7877F84BF88E181BD9CE091BD49
:100BF0008FEF9FEF0197F1F7EFCCA0E0B0E0E2E0DC
:100C0000F6E078C15C016B017A016115710519F09C
:100C1000FB0191838083E114F10429F0C70102975D
:100C2000839708F0E2C0E5012196F5011081812F3C
:100C300090E011D1892B11F05E01F5CF1D3229F41E
:100C40002196F501118101E007C01B3221F4E50175
:100C50002296F501118100E0E114F10409F1F0E1BF
:100C6000EF16F10429F43EC010E3E114F10421F180
:100C700028E0E216F10401F154F4E2E0EE16F1048A
:100C800021F5812C912CA12CB0E4BB2E3DC0FAE0C3
:100C9000EF16F10439F020E1E216F104B1F42FC0AF
:100CA000103311F1FAE0EF2EF12CACEC8A2E982CD7
:100CB000A82CACE0BA2E28C078E0E72EF12C812CCD
:100CC000912CA12CE0E1BE2E1FC060E070E080E01E
:100CD00090E897010F2C000C440B550BDED0490116
:100CE0005A0112C0103359F488818F7D883509F07C
:100CF000BBCF19812296026080E1E82EF12C812C75
:100D0000912CA12C68E0B62E40E060E070E0CB01B1
:100D100027010F2C000C66087708FE0150ED352ED8
:100D2000310E29E0231570F42FEB210F2A3118F42E
:100D300039EC332E06C02FE9210F2A3110F529EAAC
:100D4000322E310E232D30E02E153F05D4F447FD11
:100D500015C086169706A806B90668F0A301920189
:100D60008DD0630D711D811D911D6130710581054F
:100D700020E8920710F04FEF01C041E0219610816A
:100D8000CCCF202F2170C114D10471F0442329F05D
:100D90002197F601D183C08307C001FF19C02297B4
:100DA000F601D183C08314C047FF12C0222329F06B
:100DB00060E070E080E090E804C06FEF7FEF8FEFBD
:100DC0009FE722E230E03093ED002093EC0009C071
:100DD000222381F090958095709561957F4F8F4F7C
:100DE0009F4F462F372F282F12C040E030E020E0E1
:100DF00090E00DC097FFF5CF82E290E09093ED0078
:100E00008093EC006FEF7FEF8FEF9FE7EACF642FC7
:100E1000732F822FCDB7DEB7E1E188C0FC018827B0
:100E20009927E89421912032E9F3293010F02E30EF
:100E3000C8F32B3239F02D3231F4689403C013D04B
:100E4000820F911D219120532A30C8F31EF49095F2
:100E500081959F4F089591110EC0803219F08950ED
:100E60008550D0F708957AE0979F902D879F802D29
:100E7000910D11240895992788270895DB018F93F8
:100E80009F932DD0BF91AF91A29F800D911DA39FE5
:100E9000900DB29F900D11240895A1E21A2EAA1B65
:100EA000BB1BFD010DC0AA1FBB1FEE1FFF1FA2171A
:100EB000B307E407F50720F0A21BB30BE40BF50B17
:100EC000661F771F881F991F1A9469F760957095A0
:100ED000809590959B01AC01BD01CF01089540D054
:100EE000A59F900DB49F900DA49F800D911D11247E
:100EF00008952F923F924F925F926F927F928F92BE
:100F00009F92AF92BF92CF92DF92EF92FF920F9398
:100F10001F93CF93DF93CDB7DEB7CA1BDB0B0FB6A2
:100F2000F894DEBF0FBECDBF09942A88398848885F
:100F30005F846E847D848C849B84AA84B984C884F5
:100F4000DF80EE80FD800C811B81AA81B981CE0FEC
:100F5000D11D0FB6F894DEBF0FBECDBFED010895D1
:100F6000A29FB001B39FC001A39F01D0B29F700D9B
:0C0F7000811D1124911D0895F894FFCFFD
:00000001FF
