:1000000010C01FC01EC01DC01CC01BC01AC019C01C
:1000100018C017C016C015C014C013C012C011C03C
:1000200010C011241FBECFE5D2E0DEBFCDBF20E05F
:10003000A0E6B0E001C01D92AE3EB207E1F7EDD2FE
:10004000CAC7DECF5F9BFECF8CB108955D9BFECF0C
:100050008CB908950F931F93CF93DF93D82F02E6A7
:1000600010E0C0E0CD1731F0EDDFF80181938F0192
:10007000CF5FF8CFDF91CF911F910F910895CF936C
:10008000C0E0E0DFEC2FF0E0EE59FF4F80838823E3
:1000900011F0CF5FF6CFCF9108953A9A949A959A3E
:1000A000969A089515BA14BA18BA1BBA8FEF87BB7F
:1000B0008ABB08959BBB88BB0895FCDF94989598F4
:1000C0000000000083B3959A949A0895CF93DF932C
:1000D000D62FC42FEFDF8FEF84BBD5BB9698C130EE
:1000E00009F494980000C13009F4949A969A15BACC
:1000F00014BADF91CF91089518BA1BBA15BA8FEFD1
:1001000087BB8ABB84BB08950F931F9315BA1BBA94
:1001100018BA2FEF24BB2ABB27BB8C012227332719
:1001200005BB072F182F292F33270BBB68BB1F9147
:100130000F910895E9DF94981BBA18BA1ABA17BA42
:100140009598000029B386B3959A949A90E0922BE3
:100150000895B0DF95983A980000000083B33A9A6A
:10016000959A0895CF93C62FA5DF8FEF84BBC5BBAB
:1001700096983A98000000003A9A969A15BA14BADE
:10018000CF9108958FEF87BB8ABB84BB90E898BB63
:100190008BBB85BB08959498623049F4411105C02A
:1001A000906C2FE0E1E0F0E013C09068FACF4111CD
:1001B00002C0806C01C0806827E0F4CFC098969898
:1001C00000000000969A00000000215027FD0DC09D
:1001D000BF01022E02C0660F771F0A94E2F7682360
:1001E0007923672B59F3C09AEACF411107C0C09811
:1001F0000000969800000000969A949A089540E0B6
:10020000CADFC098B898949884E0959800000000E0
:10021000959A000000008150C1F7E4EEF0E041E063
:1002200050E087E090E020E0959800000000959A6B
:10023000B09B07C0BA01082E01C0660F0A94EAF706
:10024000262B019788F7219380E0EC3EF80749F7C9
:10025000949AC09AB89A089541E09DDFE4EEF0E0E8
:1002600048E027E030E0808190E0022E02C09595C2
:1002700087950A94E2F780FF02C0C09A01C0C09837
:10028000969800000000969A000000002150310965
:1002900050F7415031964111E4CFC0989698000034
:1002A0000000969A00000000949A0895CF93C62FFC
:1002B0002FEF24BBFFDEC5BB96983A980000969AB4
:1002C0003A9ACF910895CF93DF936AEA85E595E551
:1002D000EDDF65E58AEA9AE2E9DF60E985E595E523
:1002E000E5DF8FE39CE90197F1F700C0000015BA44
:1002F00014BA80E090E02DDFC0E6D0E0888381E092
:1003000090E027DF89836AEA85E595E5CFDF65E53B
:100310008AEA9AE2CBDF60EF85E595E5C7DF8FE3F8
:100320009CE90197F1F700C00000DF91CF9108959B
:10033000CF93C82F6AEA85E595E5B8DF65E58AEAD7
:100340009AE2B4DF60EB85E595E5B0DF6C2F80E0E5
:1003500090E0CF91ABCFCF93C82F6AEA85E595E5C2
:10036000A5DF65E58AEA9AE2A1DF60E885E595E523
:100370009DDF6AEA85E595E599DF65E58AEA9AE217
:1003800095DF60E380E09C2F9295907F8FDF8FE474
:1003900093EC0197F1F700C00000CF9108951F93EF
:1003A000CF93DF93EC01162F6AEA85E595E57EDFB2
:1003B00065E58AEA9AE27ADF60EA85E595E576DF27
:1003C000612FCE0173DF85E38A95F1F70000DF919D
:1003D000CF911F910895EF92FF920F931F93CF93A8
:1003E000DF938C016AEA85E595E560DF65E58AEAD9
:1003F0009AE25CDF60EA85E595E558DF1695102FF7
:1004000000271795079592E6E92E90E0F92EC0E0B7
:10041000D0E0F70161917F01CE01802B912B46DF67
:100420002196C038D105A9F78FE39CE90197F1F730
:1004300000C00000DF91CF911F910F91FF90EF90CE
:100440000895CF93C62F2FEF24BB34DEC5BB399858
:10045000000000000000399ACF9108951F93CF93B8
:10046000DF93EC01162F6AEA85E595E0EADF65E5A2
:100470008AEA92E0E6DF60EA85E595E0E2DF612F57
:10048000CE01DFDF85E38A95F1F7000015BA14BAD3
:10049000CE0113DE811739F0CE010FDE95E39A9578
:1004A000F1F70000F7CFDF91CF911F910895CF931F
:1004B000C62F2FEF24BBFEDDC5BB969800000000C1
:1004C0000000969ACF91089515BA14BAF3DD959865
:1004D0000000000083B3959A08951F93CF93DF9394
:1004E000EC01162F69EA8AEA9AE0E1DF66E585E524
:1004F00095E0DDDF60EA8AEA9AE0D9DF612FCE017C
:10050000D6DF85E38A95F1F70000CE01DDDF8117A4
:1005100039F0CE01D9DF95E39A95F1F70000F7CFD6
:10052000DF91CF911F910895CF93DF93EA01ECDD26
:1005300094988FEF8ABB87BBDBBBC8BB9698000043
:1005400000000000969A949ADF91CF910895CF927F
:10055000DF92EF92FF92CF93DF936B017C01EA0170
:1005600049EA50E065E575E080E090E0DDDF46E5D2
:1005700050E06AEA72E080E090E0D6DF40EA50E0C6
:1005800065E575E080E090E0CFDFAE01C701B60120
:10059000CBDF25E32A95F1F70000C701B601CADDDC
:1005A0008C179D0741F0C701B601C4DD25E32A95EC
:1005B000F1F70000F5CFDF91CF91FF90EF90DF9042
:1005C000CF90089584B7877F84BF88E181BD11BC37
:1005D00064DD81B3886F81BB86B1856086B915BA49
:1005E00014BA18BA17BA1BBA1ABA829B03C0979AE0
:1005F000389802C0389A9798939A2FEF84E39CE03A
:10060000215080409040E1F700C00000939819B855
:10061000599A539A549A78940895D4DF88248394ED
:1006200099249394C12CD12C760132EA632E30E0C8
:10063000732E0CEE10E021E0821201C02EDD02DDEF
:100640008093E300829B04C0979A389881E003C0AE
:10065000389A979882E09091E300933409F4DDC2D0
:10066000973411F41FDDE7CF973609F4C5C09134F4
:1006700059F405DD40E150E060E070E082E690E092
:10068000EBD26B017C01D7CF9235E1F40BDD81E336
:100690008093E3008091E300813369F6939AC0E090
:1006A000D0E0CE018C0D9D1D08DDD0DC2196C0343C
:1006B000D105B9F780E4C80ED11CE11CF11C939858
:1006C000C1DCE6CF9735D9F4EDDC80E4C3DC939A46
:1006D000C2E6D0E0A12CB12C6991C5018C0D9D1D05
:1006E00041E0F4DC9FEFA91AB90AE0E4AE16B104C8
:1006F00099F7F0E4CF0ED11CE11CF11C8FC19234AC
:10070000D1F4D0DCBCDC40E150E060E070E082E697
:1007100090E0A2D21B012C0195DC8093E30082348F
:1007200009F089CFACDC82E690E0A7D340E0682FE7
:10073000C101CCDC80CF923719F5DEDC81E38093F8
:10074000E3008091E300813309F075CF939A16019D
:100750002701C0E2C201B101EDDCD92F77DC8D2F7A
:1007600075DC2FEF221A320A420A520AC15091F761
:1007700080E2C80ED11CE11CF11C939863DCDFCF32
:100780009D36E1F48FDC81E38093E3008091E30008
:10079000813391F5939AC0E0D0E0CE018C0D9D1D80
:1007A000D8DC54DC2196C034D105B9F790E4C90EE9
:1007B000D11CE11CF11C939845DCE6CF9737F1F48E
:1007C00071DC80E447DC939AC2E6D0E0A12CB12C26
:1007D0006991C5018C0D9D1DC5DCEFEFAE1ABE0AF7
:1007E000F0E4AF16B104A1F720E4C20ED11CE11C65
:1007F000F11C81E32BDC93987FDC1DCF9F3631F415
:1008000051DC20DC682FC601ADDC23C0993649F4E9
:1008100049DC59DD8091600019DC8091610016DCB3
:10082000EBCF9B3649F42BDC82E690E026D3C82F31
:1008300039DC8C2F7DDDE0CF933769F433DC1FDCAE
:1008400040E150E060E070E082E690E005D2862F63
:1008500082DD81E3E4CF9236D9F424DC80E4FADB54
:10086000939A22E6A22E20E0B22EC0E0D0E0F5015D
:1008700061915F01CE018C0D9D1D91DD2196C034EB
:10088000D105A9F7F0E4CF0ED11CE11CF11CB1CFCA
:10089000913661F407DC80E8DDDB939AC6019BDDCD
:1008A0002FEFC21AD20AE20AF20AA3CF933551F40B
:1008B000E6DB40E150E060E070E082E690E0CCD121
:1008C000962EB9CE9536E1F45DDC81E38093E300AA
:1008D0008091E300813309F08FCF939A692DC6018F
:1008E0008EDCC4EED0E08991B1DB0C171D07D9F77F
:1008F0008FEFC81AD80AE80AF80A9398A3DBE6CF64
:100900009037C1F43FDCC4EED0E09CDB89930C1738
:100910001D07D9F7939A692DC6019EDC9FEFC91A6E
:10092000D90AE90AF90AEFE7FEE33197F1F700C0C7
:1009300000005FCF963441F5A2DB40E150E060E07B
:1009400070E082E690E088D11B012C017BDB809374
:10095000E300853519F0853309F06DCE90DB40E179
:1009600050E060E070E082E690E076D1939A80916A
:10097000E300853519F4C10164DD50C0853309F009
:100980004DC0C10194DD4AC0943549F55BDB8093CD
:10099000E30080E45FDB939AC2E6D0E090E4592E56
:1009A000C601825690405C018091E300853531F4A8
:1009B0006881C5018C0F9D1F51DD07C0853329F467
:1009C0006881C5018C0F9D1F88DD5A9421965110B6
:1009D000EBCF90E4C90ED11CE11CF11C42C09E3645
:1009E00001F54DDB40E150E060E070E082E690E030
:1009F00033D11B012C0126DB8093E3008E3609F0F6
:100A00001ACE3DDB40E150E060E070E082E690E02D
:100A100023D1939AAB01C201B10186DD939881E3A2
:100A2000FCC0913701F580E415DB939AC2E6D0E073
:100A300016012701498150E0542F44278881482B13
:100A4000C201B10184DDEFEF2E1A3E0A4E0A5E0AA2
:100A500022966C167D0671F7F0E2CF0ED11CE11CD8
:100A6000F11C81E3C3C0993419F09F3409F050C0E0
:100A7000E9DAC82F04DB40E150E060E070E082E694
:100A800090E0EAD0939A8091E3008934F9F4C1347C
:100A900021F48AB36095682320C0C23421F487B35F
:100AA0006095682320C0C33421F484B36095682323
:100AB00020C0C43421F481B36095682320C0C534BC
:100AC00009F095C086B16095682320C08F3409F085
:100AD0008EC0C13421F48AB3682B6ABB88C0C2348B
:100AE00021F487B3682B67BB82C0C33421F484B37D
:100AF000682B64BB7CC0C43421F481B3682B61BB18
:100B000076C0C53409F073C086B1682B66B96FC072
:100B10009C3451F597DAC82FB2DA40E150E060E03A
:100B200070E082E690E098D0939AC13421F48BB3C0
:100B3000609568232AC0C23421F488B36095682385
:100B40002AC0C33421F485B3609568232AC0C43415
:100B500021F482B3609568232AC0C53409F047C0E8
:100B600087B16095682329C0983449F56BDAC82F9E
:100B700086DA40E150E060E070E082E690E06CD020
:100B8000939AC13421F48BB3682B6BBB30C0C23451
:100B900021F488B3682B68BB2AC0C33421F485B321
:100BA000682B65BB24C0C43421F482B3682B62BBBC
:100BB0001EC0C534E1F487B1682B67B918C09434FE
:100BC000C1F440DA939A813411F489B30FC08234AE
:100BD00011F486B30BC0833411F483B307C084349B
:100BE00011F480B303C0853411F485B12FDA9398E2
:100BF00022CD9D3459F426DA813319F48824839464
:100C00001DCD803309F017CD812C19CD983611F404
:100C100082E003C0963519F486E018DA0CCD9A32DA
:100C200009F009CD2CDA40E150E060E070E082E6A6
:100C300090E012D0613E754E8740910509F0FBCCE3
:100C400084B7877F84BF88E181BD9CE091BD8FEF31
:100C50009FEF0197F1F7EFCCA0E0B0E0E1E3F6E021
:100C600078C15C016B017A016115710519F0FB0116
:100C700091838083E114F10429F0C70102978397DF
:100C800008F0E2C0E5012196F5011081812F90E086
:100C900011D1892B11F05E01F5CF1D3229F4219677
:100CA000F501118101E007C01B3221F4E501229614
:100CB000F501118100E0E114F10409F1F0E1EF1612
:100CC000F10429F43EC010E3E114F10421F128E01D
:100CD000E216F10401F154F4E2E0EE16F10421F51C
:100CE000812C912CA12CB0E4BB2E3DC0FAE0EF1674
:100CF000F10439F020E1E216F104B1F42FC0103311
:100D000011F1FAE0EF2EF12CACEC8A2E982CA82CE5
:100D1000ACE0BA2E28C078E0E72EF12C812C912C83
:100D2000A12CE0E1BE2E1FC060E070E080E090E802
:100D300097010F2C000C440B550BDED049015A01D2
:100D400012C0103359F488818F7D883509F0BBCFEC
:100D500019812296026080E1E82EF12C812C912CE1
:100D6000A12C68E0B62E40E060E070E0CB012701E6
:100D70000F2C000C66087708FE0150ED352E310E61
:100D800029E0231570F42FEB210F2A3118F439ECE8
:100D9000332E06C02FE9210F2A3110F529EA322E11
:100DA000310E232D30E02E153F05D4F447FD15C03C
:100DB00086169706A806B90668F0A30192018DD0A1
:100DC000630D711D811D911D61307105810520E844
:100DD000920710F04FEF01C041E021961081CCCF77
:100DE000202F2170C114D10471F0442329F02197E0
:100DF000F601D183C08307C001FF19C02297F60115
:100E0000D183C08314C047FF12C0222329F060E0C1
:100E100070E080E090E804C06FEF7FEF8FEF9FE716
:100E200022E230E03093ED002093EC0009C0222351
:100E300081F090958095709561957F4F8F4F9F4F72
:100E4000462F372F282F12C040E030E020E090E0FE
:100E50000DC097FFF5CF82E290E09093ED00809374
:100E6000EC006FEF7FEF8FEF9FE7EACF642F732FD8
:100E7000822FCDB7DEB7E1E188C0FC018827992732
:100E8000E89421912032E9F3293010F02E30C8F394
:100E90002B3239F02D3231F4689403C013D0820F15
:100EA000911D219120532A30C8F31EF4909581950D
:100EB0009F4F089591110EC0803219F089508550CE
:100EC000D0F708957AE0979F902D879F802D910D00
:100ED00011240895992788270895DB018F939F9304
:100EE0002DD0BF91AF91A29F800D911DA39F900D1A
:100EF000B29F900D11240895A1E21A2EAA1BBB1BCC
:100F0000FD010DC0AA1FBB1FEE1FFF1FA217B307D5
:100F1000E407F50720F0A21BB30BE40BF50B661FEB
:100F2000771F881F991F1A9469F7609570958095AF
:100F300090959B01AC01BD01CF01089540D0A59FC4
:100F4000900DB49F900DA49F800D911D11240895C4
:100F50002F923F924F925F926F927F928F929F92C9
:100F6000AF92BF92CF92DF92EF92FF920F931F93B7
:100F7000CF93DF93CDB7DEB7CA1BDB0B0FB6F89468
:100F8000DEBF0FBECDBF09942A88398848885F84A8
:100F90006E847D848C849B84AA84B984C884DF8019
:100FA000EE80FD800C811B81AA81B981CE0FD11DFD
:100FB0000FB6F894DEBF0FBECDBFED010895A29F1E
:100FC000B001B39FC001A39F01D0B29F700D811DDE
:0A0FD0001124911D0895F894FFCF3D
:00000001FF
