:1000000010C02AC029C028C027C026C025C024C0CF
:1000100023C022C021C020C01FC01EC01DC01CC0E4
:100020001BC011241FBECFE5D2E0DEBFCDBF10E064
:10003000A0E6B0E0E6E8FDE002C005900D92A23631
:10004000B107D9F721E0A2E6B0E001C01D92A437C4
:10005000B207E1F77BD195C6D3CF5F9BFECF8CB1C2
:1000600008955D9BFECF8CB908950F931F93CF9396
:10007000DF938C01C0E7D0E0CE018057904080171D
:1000800091071CF4EADF8993F7CFDF91CF911F919D
:100090000F910895CF93DF93C0E7D0E0DEDF89931F
:1000A0008111FCCFDF91CF9108953A9A949A959A55
:1000B000969A089515BA14BA18BA1BBA8FEF87BB6F
:1000C0008ABB08959BBB88BB0895FCDF94989598E4
:1000D000000000000000000083B3959A949A0895F0
:1000E000CF93DF93D62FC42FEDDF8FEF84BBD5BB2B
:1000F0009698C13009F4949800000000C13009F4CA
:10010000949A969A15BA14BADF91CF91089515BAB8
:1001100014BAD8DF9598000000000000000083B3F7
:10012000959A0895CF93C62F2FEF24BBCBDFC5BB85
:1001300080917101813449F4399800000000000079
:10014000000000000000399A08C0969800000000E6
:100150000000000000000000969A15BA14BACF9172
:1001600008951F93CF93DF93EC01162F60916600E3
:100170008091640090916500D5DF60916A00809164
:10018000680090916900CEDF60916E0080916C00F4
:1001900090916D00C7DF612FCE01C4DF85E38A95A2
:1001A000F1F7000015BA14BACE01B1DF811739F0AA
:1001B000CE01ADDF9AE19A95F1F700C0F7CFDF915C
:1001C000CF911F9108951F93CF93DF93EC01162FCA
:1001D00080916300813061F440E06091620080E0D2
:1001E00091E27EDF87EC90E00197F1F700C000001C
:1001F00060916600809164009091650093DF60914A
:100200006A0080916800909169008CDF60916E00B7
:1002100080916C0090916D0085DF612FCE0182DFAF
:1002200087EE93E00197F1F700C0000015BA14BA09
:100230003A9887EC90E00197F1F700C000003A9AF5
:1002400087EC90E00197F1F700C00000DF91CF91BB
:100250001F910895FF920F931F93CF93DF93EC01AB
:10026000162FFF24FA94F4BA01E20BBB18BA81E00E
:1002700085BB969800000000969A60916600809178
:100280006400909165004EDF60916A008091680083
:100290009091690047DF60916E0080916C009091B1
:1002A0006D0040DFF4BA0BBB18BA8091620085BBC9
:1002B000969800000000969A612FCE0133DF85E307
:1002C0008A95F1F7000015BA14BACE0120DF811724
:1002D00039F0CE011CDF9AE19A95F1F700C0F7CF13
:1002E000DF91CF911F910F91FF90089584B7877F81
:1002F00084BF88E181BD11BCD8DE81B3886781BB32
:10030000329A389A82B3846882BB15BA14BA18BA82
:1003100017BA1BBA1ABA3A982FEF80E792E0215029
:1003200080409040E1F700C000003A9A939A2FEF86
:1003300089E698E1215080409040E1F700C000003C
:10034000939819B8539A549A78940895CFDF552406
:100350005394C12CD12C760122242A94322C44248B
:10036000439420EF622E20E0722E21E0521201C051
:100370009CDE73DE80937001833419F480916000F9
:1003800023C3873411F496DEF0CF813459F482DE32
:1003900040E150E060E070E080E790E033D36B0133
:1003A0007C01E3CF8235E1F485DE81E38093700147
:1003B000809170018133C9F6939AC0E0D0E0CE01FC
:1003C0008C0D9D1D82DE4DDE2196C034D105B9F71E
:1003D00080E4C80ED11CE11CF11C93983EDEE6CFF0
:1003E0008735D9F467DE80E490E03FDE939A00E73A
:1003F00010E0C0E0D0E0F80161918F01CE018C0DDA
:100400009D1D41E06DDE2196C034D105A1F7F0E4D9
:10041000CF0ED11CE11CF11C68C08234E1F44ADE2D
:1004200039DE40E150E060E070E080E790E0EAD241
:100430004B015C0112DE80937001823409F095CF8C
:1004400029DE80E790E0EFD38093620040E0682FE0
:10045000C40146DE8ACF803549F4FFDD8093710107
:10046000813409F082CF319A399A7FCF8E3419F4D2
:10047000409263007ACF853409F5C4E6D0E00ADE05
:1004800040E150E060E070E080E790E0BBD279832B
:10049000688381E3E6DDFEDD40E150E060E070E08E
:1004A00080E790E0AFD27B836A8381E3DADD249634
:1004B00080E790E08C179D0711F757CF8634C1F481
:1004C000E9DD40E150E060E070E080E790E09AD242
:1004D0004B015C01DFDD40E150E060E070E080E76F
:1004E00090E090D2939AC4011DDE939881E36CC290
:1004F000843519F580E490E0B8DD939AC0E7D0E048
:1005000080E4B82E86010057104080916300688116
:10051000811105C0C8018C0F9D1F23DE04C0C801D6
:100520008C0F9D1F97DEBA942196B110EECF90E408
:10053000C90ED11CE11CF11C6BC1893509F04FC0FB
:1005400080E290E092DD939A6AEA8AEA9AE0EADD34
:1005500065E585E595E0E6DD560165E2C601E2DD8B
:100560006FE1C601DFDDE5E0EA95F1F7000000E7A5
:1005700010E0C0E0D0E0F80161918F01CE018A0D5A
:100580009B1DD0DD2196C032D105A9F7F0E2CF0E38
:10059000D11CE11CF11CC601809769E2C3DD8FE12B
:1005A00093E00197F1F700C00000E6012197CE012A
:1005B000AEDD18EC90918F00891709F429C1CE01A6
:1005C000A6DD9AE19A95F1F700C0115099F7EFEF87
:1005D000F9E628E1E150F0402040E1F717C18A3404
:1005E000D9F480E490E041DD939A00E710E0C0E0A8
:1005F000D0E0F80161918F016F3F21F0CE018C0DA9
:100600009D1DE1DD2196C034D10599F7F0E4CF0EB0
:10061000D11CE11CF11CFCC0883509F041C080E010
:1006200091E023DD939A69EA8AEA9AE07BDD66E548
:1006300085E595E077DD560166E2C60173DD6FEF73
:10064000C60170DD87EC90E00197F1F700C0000073
:1006500000E710E0C0E0D0E0F80161918F01CE0129
:100660008A0D9B1D5FDD2196C115F1E0DF07A1F723
:100670002FEFD21AE20AF20AC6019A956AE252DD17
:10068000E6012197CE0143DD90916F01891709F4AE
:10069000BFC0CE013CDD9AE19A95F1F700C0F4CFDE
:1006A0008A3509F0B7C080E890E0DFDC939A69E012
:1006B00080E291E037DD6AEA81E291E033DD65E5D1
:1006C00082E291E02FDD65EA8FE391E02BDDEAE144
:1006D000EA95F1F700C061E180E291E023DD65EA8F
:1006E0008FE391E01FDDFAE1FA95F1F700C061E0D8
:1006F00080E091E217DD2AE12A95F1F700C06FE072
:1007000080E291E00FDD65E585E291E00BDD65E5D6
:1007100086E291E007DD6AEA87E291E003DD65EABF
:100720008FE391E0FFDC8AE18A95F1F700C06FE08A
:1007300080E291E0F7DC6AE285E291E0F3DC6AEACC
:1007400086E291E0EFDC65E587E291E0EBDC65EACB
:100750008FE391E0E7DC9AE19A95F1F700C06FE052
:1007600080E291E0DFDC65E585E291E0DBDC65E5D8
:1007700086E291E0D7DC60EA87E291E0D3DC65EACB
:100780008FE391E0CFDCEAE1EA95F1F700C040E0C9
:100790006091620080E091E2A3DCFAE1FA95F1F762
:1007A00000C060E180E291E0BDDC65EA8FE391E0AA
:1007B000B9DC2AE12A95F1F700C068E080E291E017
:1007C000B1DC65EA8FE391E0ADDC8AE18A95F1F76F
:1007D00000C0C0E7D0E06C167D0669F06991C601E3
:1007E000A1DC9AE19A95F1F700C0EFEFCE1ADE0A8C
:1007F000EE0AFE0AF0CF6FEFD701C6010197A109FB
:10080000B10990DC8FE39CE90197F1F700C000008B
:1008100081E3C3C0893419F08F3409F050C01DDC66
:10082000C82F38DC40E150E060E070E080E790E005
:10083000E9D0939A809170018934F9F4C13421F49C
:100840008AB36095682320C0C23421F487B36095D1
:10085000682320C0C33421F484B36095682320C08A
:10086000C43421F481B36095682320C0C53409F0F5
:1008700095C086B16095682320C08F3409F08EC082
:10088000C13421F48AB3682B6ABB88C0C23421F416
:1008900087B3682B67BB82C0C33421F484B3682B51
:1008A00064BB7CC0C43421F481B3682B61BB76C0C7
:1008B000C53409F073C086B1682B66B96FC08C343B
:1008C00051F5CBDBC82FE6DB40E150E060E070E0A3
:1008D00080E790E097D0939AC13421F48BB3609570
:1008E00068232AC0C23421F488B3609568232AC0E3
:1008F000C33421F485B3609568232AC0C43421F43D
:1009000082B3609568232AC0C53409F047C087B117
:100910006095682329C0883449F59FDBC82FBADB6E
:1009200040E150E060E070E080E790E06BD0939AA7
:10093000C13421F48BB3682B6BBB30C0C23421F4BB
:1009400088B3682B68BB2AC0C33421F485B3682BF5
:1009500065BB24C0C43421F482B3682B62BB1EC0C3
:10096000C534E1F487B1682B67B918C08434C1F489
:1009700074DB939A813411F489B30FC0823411F47B
:1009800086B30BC0833411F483B307C0843411F4ED
:1009900080B303C0853411F485B163DB9398E5CC53
:1009A0008D3459F45ADB813319F455245394E0CC37
:1009B000803309F0DACC512CDCCC883611F484E693
:1009C00003C0863519F48FE04CDBCFCC8A3209F0B6
:1009D000CCCC60DB40E150E060E070E080E790E08C
:1009E00011D0613E754E8740910509F0BECC84B7A9
:1009F000877F84BFF8E1F1BD2CE021BDC1010197E3
:100A0000F1F7B3CCA0E0B0E0E7E0F5E078C15C013D
:100A10006B017A016115710519F0FB0191838083E7
:100A2000E114F10429F0C7010297839708F0E2C0AE
:100A3000E5012196F5011081812F90E011D1892BDC
:100A400011F05E01F5CF1D3229F42196F5011181D7
:100A500001E007C01B3221F4E5012296F501118166
:100A600000E0E114F10409F1F0E1EF16F10429F4DA
:100A70003EC010E3E114F10421F128E0E216F10494
:100A800001F154F4E2E0EE16F10421F5812C912CF1
:100A9000A12CB0E4BB2E3DC0FAE0EF16F10439F012
:100AA00020E1E216F104B1F42FC0103311F1FAE0A5
:100AB000EF2EF12CACEC8A2E982CA82CACE0BA2EA0
:100AC00028C078E0E72EF12C812C912CA12CE0E1BC
:100AD000BE2E1FC060E070E080E090E897010F2C10
:100AE000000C440B550BDED049015A0112C01033E3
:100AF00059F488818F7D883509F0BBCF1981229602
:100B0000026080E1E82EF12C812C912CA12C68E070
:100B1000B62E40E060E070E0CB0127010F2C000C06
:100B200066087708FE0150ED352E310E29E02315B9
:100B300070F42FEB210F2A3118F439EC332E06C054
:100B40002FE9210F2A3110F529EA322E310E232DFB
:100B500030E02E153F05D4F447FD15C086169706E4
:100B6000A806B90668F0A30192018DD0630D711D2E
:100B7000811D911D61307105810520E8920710F0FB
:100B80004FEF01C041E021961081CCCF202F217082
:100B9000C114D10471F0442329F02197F601D183C7
:100BA000C08307C001FF19C02297F601D183C0831B
:100BB00014C047FF12C0222329F060E070E080E0FB
:100BC00090E804C06FEF7FEF8FEF9FE722E230E005
:100BD000309373012093720109C0222381F0909514
:100BE0008095709561957F4F8F4F9F4F462F372F80
:100BF000282F12C040E030E020E090E00DC097FFC9
:100C0000F5CF82E290E090937301809372016FEFD1
:100C10007FEF8FEF9FE7EACF642F732F822FCDB73F
:100C2000DEB7E1E188C0FC0188279927E89421918B
:100C30002032E9F3293010F02E30C8F32B3239F08E
:100C40002D3231F4689403C013D0820F911D21918D
:100C500020532A30C8F31EF4909581959F4F089534
:100C600091110EC0803219F089508550D0F7089547
:100C70007AE0979F902D879F802D910D11240895E4
:100C8000992788270895DB018F939F932DD0BF91DB
:100C9000AF91A29F800D911DA39F900DB29F900DCB
:100CA00011240895A1E21A2EAA1BBB1BFD010DC041
:100CB000AA1FBB1FEE1FFF1FA217B307E407F5070C
:100CC00020F0A21BB30BE40BF50B661F771F881FE8
:100CD000991F1A9469F760957095809590959B017E
:100CE000AC01BD01CF01089540D0A59F900DB49FE8
:100CF000900DA49F800D911D112408952F923F9275
:100D00004F925F926F927F928F929F92AF92BF921B
:100D1000CF92DF92EF92FF920F931F93CF93DF93C7
:100D2000CDB7DEB7CA1BDB0B0FB6F894DEBF0FBE24
:100D3000CDBF09942A88398848885F846E847D8471
:100D40008C849B84AA84B984C884DF80EE80FD8073
:100D50000C811B81AA81B981CE0FD11D0FB6F894E9
:100D6000DEBF0FBECDBFED010895A29FB001B39FBE
:100D7000C001A39F01D0B29F700D811D1124911D50
:060D80000895F894FFCF76
:020D860001006A
:00000001FF
