:1000000010C02AC029C028C027C026C0C2C124C031
:1000100023C022C021C020C01FC01EC01DC01CC0E4
:100020001BC011241FBECFE5D2E0DEBFCDBF10E064
:10003000A0E6B0E0E0E7FEE002C005900D92A23637
:10004000B107D9F721E0A2E6B0E001C01D92A537C3
:10005000B207E1F7B3D10AC7D3CF5F9BFECF8CB114
:1000600008955D9BFECF8CB908950F931F93CF9396
:10007000DF938C01C1E7D0E0CE018157904080171B
:1000800091071CF4EADF8993F7CFDF91CF911F919D
:100090000F910895CF93DF93C1E7D0E0DEDF89931E
:1000A0008111FCCFDF91CF9108953A9A949A959A55
:1000B000969A089515BA14BA18BA1BBA8FEF87BB6F
:1000C0008ABB08959BBB88BB0895FCDF94989598E4
:1000D000000000000000000083B3959A949A0895F0
:1000E000CF93DF93D62FC42FEDDF8FEF84BBD5BB2B
:1000F0009698C13009F4949800000000C13009F4CA
:10010000949A969A15BA14BADF91CF91089515BAB8
:1001100014BAD8DF9598000000000000000083B3F7
:10012000959A0895CF93C62F2FEF24BBCBDFC5BB85
:1001300080917201813449F4399800000000000078
:10014000000000000000399A08C0969800000000E6
:100150000000000000000000969A15BA14BACF9172
:1001600008951F93CF93DF93EC01162F60916700E2
:100170008091650090916600D5DF60916B00809161
:10018000690090916A00CEDF60916F0080916D00F0
:1001900090916E00C7DF612FCE01C4DF85E38A95A1
:1001A000F1F7000015BA14BACE01B1DF811751F092
:1001B000CE01ADDF9AE19A95F1F700C0909162000F
:1001C0009130A1F7DF91CF911F9108951F93CF93A5
:1001D000DF93EC01162F80916400813061F440E0E0
:1001E0006091630080E091E27BDF87EC90E0019713
:1001F000F1F700C000006091670080916500909168
:10020000660090DF60916B008091690090916A00B8
:1002100089DF60916F0080916D0090916E0082DFA8
:10022000612FCE017FDF87EE93E00197F1F700C0E9
:10023000000015BA14BA3A9887EC90E00197F1F7EC
:1002400000C000003A9A87EC90E00197F1F700C0F7
:100250000000DF91CF911F910895FF920F931F939C
:10026000CF93DF93EC01162FFF24FA94F4BA01E246
:100270000BBB18BA81E085BB969800000000969AE7
:100280006091670080916500909166004BDF6091FE
:100290006B008091690090916A0044DF60916F006B
:1002A00080916D0090916E003DDFF4BA0BBB18BADF
:1002B0008091630085BB969800000000969A612F9C
:1002C000CE0130DF85E38A95F1F7000015BA14BA44
:1002D000CE011DDF811751F0CE0119DF9AE19A9509
:1002E000F1F700C0909162009130A1F7DF91CF91BA
:1002F0001F910F91FF900895109262001DBC1CBCCD
:100300008EB583608EBD0895109262001DBC1CBC2A
:100310001EBC9398089580916200811104C0F4DF9F
:1003200081E39FDE9398089584B7877F84BF88E137
:1003300081BD11BCBADE81B3886781BB329A389A1D
:1003400082B3846882BB15BA14BA18BA17BA1BBA3A
:100350001ABA3A982FEF80E792E0215080409040FF
:10036000E1F700C000003A9A939A2FEF89E698E1EE
:10037000215080409040E1F700C00000939819B8E8
:10038000539A549A89B7806889BF1DBC1CBC789465
:1003900008951F920F920FB60F9211248F939F937F
:1003A00092B388E0892782BB81E0809362009F91AD
:1003B0008F910F900FBE0F901F901895CF93DF93E2
:1003C000CDB7DEB7A0970FB6F894DEBF0FBECDBF96
:1003D000ABDF88248394412C512C32011E0121E291
:1003E000220E311C81E0881201C05FDE36DE809370
:1003F0007101833421F48091600033DE05C08734BD
:1004000029F458DE109264007FDFECCF813459F478
:1004100041DE40E150E060E070E081E790E067D3CA
:100420002B013C01DFCF8235E9F444DE81E3809388
:100430007101809171018133A9F6939A00E010E077
:10044000C801840D951D41DE0CDE0F5F1F4F003487
:100450001105B1F790E4490E511C611C711C939871
:10046000FCDDE5CF8135A1F425DE939A00E010E0B4
:10047000C801840D951D29DEF4DD0F5F1F4F0115A6
:10048000E0E41E07A9F7F0E45F0E611C711CA3C233
:100490008735F1F40FDE80E490E0E7DD939A01E721
:1004A00010E0E12CF12CF80161918F01C701840D5E
:1004B000951D41E015DEFFEFEF1AFF0A20E4E2167A
:1004C000F10489F780E4480E511C611C711C6CC05A
:1004D0008234E1F4EFDDDEDD40E150E060E070E029
:1004E00081E790E004D36B017C01B7DD809371015B
:1004F000823409F077CFCEDD81E790E009D4809394
:10050000630040E0682FC601EBDD6CCF803549F415
:10051000A4DD80937201813409F064CF319A399A55
:1005200061CF8E3421F491E0909364005BCF8534E9
:1005300021F505E610E0AEDD40E150E060E070E05E
:1005400081E790E0D4D2F8017183608381E389DD93
:10055000A1DD40E150E060E070E081E790E0C7D2CB
:10056000F8017383628381E37CDD0C5F1F4F81E7B9
:1005700090E080179107F9F635CF8634C1F48ADD13
:1005800040E150E060E070E081E790E0B0D26B01C4
:100590007C0180DD40E150E060E070E081E790E0C8
:1005A000A6D2939AC601BEDD939881E375C28435C5
:1005B00081F580E490E059DD9FDE939A809164009C
:1005C00001E710E0E12CF12C811119C0F8016191D3
:1005D0008F016F3F21F0C701840D951DC2DDFFEF34
:1005E000EF1AFF0A20E4E216F10481F7E4C0FFEFFE
:1005F000EF1AFF0A20E4E216F10409F4DCC0F80166
:1006000061918F016F3F99F3C701840D951D25DE20
:10061000EECF893509F04EC080E290E026DD6CDE39
:10062000939A6AEA8AEA9AE07DDD65E585E595E0D8
:1006300079DD720165E2C20175DD6FE1C20172DD33
:1006400095E09A95F1F7000001E710E0C12CD12C5C
:10065000F80161918F01C7018C0D9D1D63DDFFEFD6
:10066000CF1ADF0A20E2C216D10491F780E2480EC9
:10067000511C611C711CC201809769E253DDEFE1DE
:10068000F3E03197F1F700C0000082010150110939
:10069000C8013DDD90919000891709F4E7C1C801B8
:1006A00036DDFAE1FA95F1F700C0909162009130E1
:1006B00089F7DCC1853509F063C080E091E0D5DCC5
:1006C0001BDE939A91E7E92E90E0F92E28E0922E16
:1006D000CE0101966C01FC01D7018D918193E21549
:1006E000F305D9F76AEA8AEA9AE01CDD65E585E553
:1006F00095E018DD520165E2C20114DD6FE1C2012F
:1007000011DD25E02A95F1F7000000E010E0F60188
:1007100061916F01C501800F911F04DD0F5F1F4FB5
:1007200000321105A1F7F0E24F0E511C611C711C43
:10073000C201809769E2F6DC8FE193E00197F1F75F
:1007400000C00000820101501109C801E0DC98A13D
:10075000891751F0C801DBDC9AE19A95F1F700C0E6
:1007600090916200913099F780916200813009F494
:100770007DC19A94E0E2EE0EF11C9110A9CF76C1F2
:100780008A34F9F480E490E070DCB6DD939A01E7F6
:1007900010E0E12CF12CF80161918F016F3F21F005
:1007A000C701840D951D12DDFFEFEF1AFF0A20E44B
:1007B000E216F10481F780E4480E511C611C711CA3
:1007C00055C1883509F049C080E091E04EDC94DDE8
:1007D000939A69EA8AEA9AE0A5DC66E585E595E000
:1007E000A1DC720166E2C2019DDC6FEFC2019ADCFE
:1007F000E7ECF0E03197F1F700C0000001E710E00E
:10080000C12CD12CF80161918F01C6018E0D9F1D65
:1008100089DCFFEFCF1ADF0AC11421E0D20691F77D
:100820008FEF581A680A780AC2019A956AE27ADC50
:10083000820101501109C8016ADC90917001891789
:1008400009F414C1C80163DC9AE19A95F1F700C07C
:1008500090916200913089F709C18A3709F0BDC0D3
:1008600080E890E002DC939A69E080E291E05ADC53
:100870006AEA81E291E056DC65E582E291E052DCD1
:1008800065EA8FE391E04EDCEAE1EA95F1F700C01A
:1008900061E180E291E046DC65EA8FE391E042DCD1
:1008A000FAE1FA95F1F700C061E080E091E23ADC0C
:1008B0002AE12A95F1F700C06FE080E291E032DC96
:1008C00065E585E291E02EDC65E586E291E02ADCD3
:1008D0006AEA87E291E026DC65EA8FE391E022DCB8
:1008E0008AE18A95F1F700C06FE080E291E01ADCBE
:1008F0006AE285E291E016DC6AEA86E291E012DCC7
:1009000065E587E291E00EDC65EA8FE391E00ADCC1
:100910009AE19A95F1F700C06FE080E291E002DC85
:1009200065E585E291E0FEDB65E586E291E0FADBD4
:1009300060EA87E291E0F6DB65EA8FE391E0F2DBC3
:10094000EAE1EA95F1F700C040E06091630080E0E1
:1009500091E2C6DBFAE1FA95F1F700C060E180E2CE
:1009600091E0E0DB65EA8FE391E0DCDB2AE12A95A8
:10097000F1F700C068E080E291E0D4DB65EA8FE344
:1009800091E0D0DB8AE18A95F1F700C001E710E041
:1009900081EF90E08017910779F0F80161918F0164
:1009A000C201C0DBFAE1FA95F1F700C02FEF421A5D
:1009B000520A620A720AECCF6FEFD301C2010197AB
:1009C000A109B109AFDBEFE3FCE93197F1F700C012
:1009D000000081E346DB939805CD893709F048C0D4
:1009E00080E290E042DB939A820168EEC2019ADBDA
:1009F00083DCC8018CDB803821F08091620081307B
:100A0000C1F7809162008111EDCC76DC6FE1C80105
:100A100089DB81E7E82E80E0F82EC12CD12CF7018C
:100A200061917F01C8018C0D9D1D7CDBFFEFCF1A0A
:100A3000DF0A20E2C216D10491F780E2480E511C71
:100A4000611C711C82010052110960EDC8016ADB52
:100A5000EFE0F3E03197F1F700C00000C80157DB89
:100A6000803821F0809162008130C1F754DCBACC2B
:100A70008D3459F4F2DA813319F488248394B5CC97
:100A8000803309F0AFCC812CB1CC883611F484E6E8
:100A900003C0863519F486E1E4DAA4CC8B3251F434
:100AA00000E010E481E3DDDA80E3DBDA01501109D4
:100AB000C9F798CC8A3209F095CCECDA40E150E0E5
:100AC00060E070E081E790E012D0613E754E8740B3
:100AD000910509F087CC84B7877F84BF28E121BDC9
:100AE0008CE081BD8FEF9FEF0197F1F77BCCA0E009
:100AF000B0E0ECE7F5E078C15C016B017A016115CB
:100B0000710519F0FB0191838083E114F10429F050
:100B1000C7010297839708F0E2C0E5012196F5012D
:100B20001081812F90E011D1892B11F05E01F5CF5A
:100B30001D3229F42196F501118101E007C01B3215
:100B400021F4E5012296F501118100E0E114F104A0
:100B500009F1F0E1EF16F10429F43EC010E3E114CD
:100B6000F10421F128E0E216F10401F154F4E2E08D
:100B7000EE16F10421F5812C912CA12CB0E4BB2EB2
:100B80003DC0FAE0EF16F10439F020E1E216F1047D
:100B9000B1F42FC0103311F1FAE0EF2EF12CACECD0
:100BA0008A2E982CA82CACE0BA2E28C078E0E72E2C
:100BB000F12C812C912CA12CE0E1BE2E1FC060E015
:100BC00070E080E090E897010F2C000C440B550B6F
:100BD000DED049015A0112C0103359F488818F7D4B
:100BE000883509F0BBCF19812296026080E1E82E9A
:100BF000F12C812C912CA12C68E0B62E40E060E015
:100C000070E0CB0127010F2C000C66087708FE016D
:100C100050ED352E310E29E0231570F42FEB210F06
:100C20002A3118F439EC332E06C02FE9210F2A316E
:100C300010F529EA322E310E232D30E02E153F0516
:100C4000D4F447FD15C086169706A806B90668F0C5
:100C5000A30192018DD0630D711D811D911D613025
:100C60007105810520E8920710F04FEF01C041E0C7
:100C700021961081CCCF202F2170C114D10471F0A6
:100C8000442329F02197F601D183C08307C001FFD7
:100C900019C02297F601D183C08314C047FF12C048
:100CA000222329F060E070E080E090E804C06FEF5C
:100CB0007FEF8FEF9FE722E230E0309374012093C3
:100CC000730109C0222381F09095809570956195FC
:100CD0007F4F8F4F9F4F462F372F282F12C040E056
:100CE00030E020E090E00DC097FFF5CF82E290E089
:100CF00090937401809373016FEF7FEF8FEF9FE705
:100D0000EACF642F732F822FCDB7DEB7E1E188C021
:100D1000FC0188279927E89421912032E9F32930B2
:100D200010F02E30C8F32B3239F02D3231F46894A4
:100D300003C013D0820F911D219120532A30C8F394
:100D40001EF4909581959F4F089591110EC08032A9
:100D500019F089508550D0F708957AE0979F902D2B
:100D6000879F802D910D1124089599278827089534
:100D7000DB018F939F932DD0BF91AF91A29F800DE8
:100D8000911DA39F900DB29F900D11240895A1E293
:100D90001A2EAA1BBB1BFD010DC0AA1FBB1FEE1FF5
:100DA000FF1FA217B307E407F50720F0A21BB30B40
:100DB000E40BF50B661F771F881F991F1A9469F7BC
:100DC00060957095809590959B01AC01BD01CF0118
:100DD000089540D0A59F900DB49F900DA49F800DC5
:100DE000911D112408952F923F924F925F926F921E
:100DF0007F928F929F92AF92BF92CF92DF92EF92AB
:100E0000FF920F931F93CF93DF93CDB7DEB7CA1B2B
:100E1000DB0B0FB6F894DEBF0FBECDBF09942A8856
:100E2000398848885F846E847D848C849B84AA84FE
:100E3000B984C884DF80EE80FD800C811B81AA818B
:100E4000B981CE0FD11D0FB6F894DEBF0FBECDBF56
:100E5000ED010895A29FB001B39FC001A39F01D0EF
:100E6000B29F700D811D1124911D0895F894FFCF3C
:020E700001007F
:00000001FF
