:1000000010C01FC01EC01DC01CC01BC01AC019C01C
:1000100018C017C016C015C014C013C012C011C03C
:1000200010C011241FBECFE5D2E0DEBFCDBF21E05E
:10003000A0E6B0E001C01D92AC37B207E1F7B4D33F
:100040008CCCDECF5F9BFECF8CB108955D9BFECF45
:100050008CB908950F931F93CF93DF938C01C0E762
:10006000D0E0CE0180579040801791071CF4EADF62
:100070008993F7CFDF91CF911F910F910895CF937F
:10008000DF93C0E7D0E0DEDF89938111FCCFDF9101
:10009000CF9108953A9A949A959A969A089515BA96
:1000A00014BA18BA1BBA8FEF87BB8ABB08959BBBE3
:1000B00088BB0895FCDF949895980000000083B3F6
:1000C000959A949A0895CF93DF93D62FC42FEFDF9C
:1000D0008FEF84BBD5BB9698C13009F4949800008B
:1000E000C13009F4949A969A15BA14BADF91CF9157
:1000F000089518BA1BBA15BA8FEF87BB8ABB84BBA9
:1001000008950F931F9315BA1BBA18BA2FEF24BB8B
:100110002ABB27BB8C012227332705BB072F182FAB
:10012000292F33270BBB68BB1F910F910895E9DF7F
:1001300094981BBA18BA1ABA17BA9598000029B33E
:1001400086B3959A949A90E0922B0895B0DF3A98EE
:1001500095980000000083B3959A3A9A0895CF933A
:10016000C62FA5DF8FEF84BBC5BB3A9896980000D9
:100170000000969A3A9A15BA14BACF9108958FEF63
:1001800087BB8ABB84BB90E898BB8BBB85BB0895BB
:100190009498623049F4411105C0906C2FE0E1E081
:1001A000F0E013C09068FACF411102C0806C01C02A
:1001B000806827E0F4CFC098969800000000969AD7
:1001C00000000000215027FD0DC0BF01022E02C01B
:1001D000660F771F0A94E2F768237923672B59F398
:1001E000C09AEACF411107C0C0980000969800005D
:1001F0000000969A949A089540E0CADFC098B89893
:10020000949884E0959800000000959A0000000002
:100210008150C1F7E1E7F1E041E050E087E090E094
:1002200020E0959800000000959AB09B07C0BA01A5
:10023000082E01C0660F0A94EAF7262B019788F76B
:10024000219381E0E937F80749F7949AC09AB89A60
:10025000089541E09DDFE1E7F1E048E027E030E08C
:10026000808190E0022E02C0959587950A94E2F76E
:1002700080FF02C0C09A01C0C0989698000000009C
:10028000969A000000002150310950F741503196F4
:100290004111E4CFC098969800000000969A0000A3
:1002A0000000949A0895CF93C62F2FEF24BBFFDE52
:1002B000C5BB3A98969800003A9A969ACF910895BD
:1002C000CF93DF936AEA85E595E5EDDF65E58AEA98
:1002D0009AE2E9DF60E985E595E5E5DF8FE39CE9F2
:1002E0000197F1F700C0000015BA14BA80E090E061
:1002F0002DDFCEE6D0E0888381E090E027DF8983A0
:100300006AEA85E595E5CFDF65E58AEA9AE2CBDF23
:1003100060EF85E595E5C7DF8FE39CE90197F1F78D
:1003200000C00000DF91CF910895CF93C82F6AEAF3
:1003300085E595E5B8DF65E58AEA9AE2B4DF60EB2A
:1003400085E595E5B0DF6C2F80E090E0CF91ABCFF5
:10035000CF93C82F6AEA85E595E5A5DF65E58AEACA
:100360009AE2A1DF60E885E595E59DDF6AEA85E52B
:1003700095E599DF65E58AEA9AE295DF60E380E03A
:100380009C2F9295907F8FDF8FE493EC0197F1F78C
:1003900000C00000CF9108951F93CF93DF93EC012D
:1003A000162F6AEA85E595E57EDF65E58AEA9AE239
:1003B0007ADF60EA85E595E576DF612FCE0173DFB0
:1003C00085E38A95F1F70000DF91CF911F910895A1
:1003D000EF92FF920F931F93CF93DF938C016AEA02
:1003E00085E595E560DF65E58AEA9AE25CDF60EA2B
:1003F00085E595E558DF1695102F00271795079589
:1004000090E7E92E90E0F92EC0E0D0E0F70161918D
:100410007F01CE01802B912B46DF2196C038D1057C
:10042000A9F78FE39CE90197F1F700C00000DF9185
:10043000CF911F910F91FF90EF90089515BA14BAC4
:1004400036DE95980000000083B3959A0895CF9307
:10045000C62F2FEF24BB2BDEC5BB809179018134E1
:1004600031F43998000000000000399A05C09698D0
:10047000000000000000969A15BA14BACF910895B2
:100480001F93CF93DF93EC01162F6091640080914E
:10049000620090916300DBDF6091680080916600EC
:1004A00090916700D4DF60916C0080916A00909118
:1004B0006B00CDDF612FCE01CADF8AE18A95F1F7AB
:1004C00000C015BA14BACE01B9DF811739F0CE01D8
:1004D000B5DF9DE09A95F1F70000F7CFDF91CF915E
:1004E0001F9108951F93CF93DF93EC01162F8091F6
:1004F0006100813051F440E06091600080E091E261
:10050000E2DD85E88A95F1F7000060916400809152
:100510006200909163009BDF6091680080916600AB
:100520009091670094DF60916C0080916A009091D7
:100530006B008DDF612FCE018ADF83EF91E00197A1
:10054000F1F700C0000015BA14BA3A9895E89A95E8
:10055000F1F700003A9A85E88A95F1F70000DF91FB
:10056000CF911F910895FF920F931F93CF93DF9325
:10057000EC01162FFF24FA94F4BA01E20BBB18BA6F
:1005800081E085BB96980000969A60916400809106
:100590006200909163005BDF60916800809166006B
:1005A0009091670054DF60916C0080916A00909197
:1005B0006B004DDFF4BA0BBB18BA8091600085BBAD
:1005C00096980000969A612FCE0141DF8AE18A95C4
:1005D000F1F700C015BA14BACE0130DF811739F037
:1005E000CE012CDF9DE09A95F1F70000F7CFDF9167
:1005F000CF911F910F91FF9008950F931F938C013E
:100600002227332705BB072F182F292F33270BBB92
:1006100068BB94985BBB48BB969800000000000044
:10062000969A949A1F910F9108958FEF84BB8ABB7D
:1006300087BB15BA95E09BBB85E588BB94981BBA30
:1006400029EA28BB9698000000000000969A949A28
:1006500015BA22E02BBB2AEA28BB94981BBA26E5E0
:1006600028BB9698000000000000969A949A15BA4C
:100670009BBB88BB94981BBA80EA88BB9698000005
:1006800000000000969A949A08958FEF84BB8ABB6D
:1006900087BB15BA95E09BBB85E588BB94981BBAD0
:1006A0002AEA28BB9698000000000000969A949AC7
:1006B00015BA32E03BBB28BB94981BBA88BB96980E
:1006C000000000000000969A949A15BA9BBB88BB64
:1006D00094981BBA80EA88BB96980000000000003E
:1006E000969A949A0895CF92DF92EF92FF92CF93C9
:1006F000DF936B017C01EA01211102C0C6DF01C05A
:1007000094DFAE01C701B60178DF25E02A95F1F745
:100710000000C701B6010BDD8C179D0741F0C70132
:10072000B60105DD25E02A95F1F70000F5CFDF9150
:10073000CF91FF90EF90DF90CF90089584B7877F9F
:1007400084BF88E181BD11BCA5DC81B3886F81BB0A
:1007500086B1856086B915BA14BA18BA17BA1BBA29
:100760001ABA829B0EC0979A38983A982FE788E376
:1007700091E0215080409040E1F700C000003A9A9B
:1007800002C0389A9798939A2FEF84E39CE0215007
:1007900080409040E1F700C00000939819B8599A42
:1007A000539A549A78940895CF93DF93CDB7DEB7D8
:1007B00028970FB6F894DEBF0FBECDBFBFDF21E094
:1007C0002D8381E08887C12CD12C7601AD81A130A9
:1007D00009F460DC37DC80937001829B04C0979A37
:1007E000389881E003C0389A979882E09091700120
:1007F000933409F4D4C6973411F451DCE7CF97361B
:1008000009F4E7C0913459F43ADC40E150E060E08B
:1008100070E080E790E0E2D66B017C01D7CF9235A3
:10082000F9F43DDCB1E3B093700180917001813344
:1008300069F6939A00E010E0C8018C0D9D1D3ADC2A
:1008400005DC0F5F1F4F00341105B1F7E0E4CE0E59
:10085000D11CE11CF11C9398F5DB80937001E5CF6E
:100860009735F1F41CDC80E490E0F4DB939A50E7D8
:10087000A52E50E0B52E00E010E0D5016D915D0190
:10088000C8018C0D9D1D41E01EDC0F5F1F4F003421
:10089000110599F7B0E4CB0ED11CE11CF11C98C3F3
:1008A0009234E1F4FCDBEBDB40E150E060E070E02F
:1008B00080E790E093D64B015C01C4DB809370012C
:1008C000823409F083CFDBDB80E790E098D7809318
:1008D000600040E0682FC401F6DB78CF923711F05A
:1008E0009A36B9F506DC809170018A3611F410E869
:1008F00001C010E2E1E3E093700188248A94810E44
:10090000912CA12CB12CFFEF8F1A9F0AAF0ABF0ABE
:1009100080917001813309F059CF939A26013701F4
:10092000C301B20104DC092F91DB802F8FDB2FEF95
:10093000421A520A620A720A842D8C19811780F3B6
:10094000C80CD91CEA1CFB1C93987CDB80937001BB
:10095000DFCF9D36E9F4A3DB81E3809370018091C2
:1009600070018133B1F5939A00E010E0C8018C0D5D
:100970009D1DECDB6BDB0F5F1F4F00341105B1F7E2
:1009800090E4C90ED11CE11CF11C93985BDBE5CF10
:10099000973709F584DB80E490E05CDB939A40E7CD
:1009A000A42E40E0B42E00E010E0D5016D915D0171
:1009B000C8018C0D9D1DD3DB0F5F1F4F0034110547
:1009C000A1F7B0E4CB0ED11CE11CF11C81E33EDBAE
:1009D00093988FDBFBCE9F3631F461DB33DB682FDE
:1009E000C601BDDB23C0993649F459DB69DC80912F
:1009F0006E002CDB80916F0029DBEBCF9B3649F436
:100A00003EDB80E790E0FBD6182F49DB812F8DDCA1
:100A1000E0CF933769F443DB32DB40E150E060E044
:100A200070E080E790E0DAD5862F92DC81E3E4CFB6
:100A30009236E9F434DB80E490E00CDB939A30E703
:100A4000A32E30E0B32E00E010E0F50161915F01CC
:100A5000C8018C0D9D1DA0DC0F5F1F4F00341105D8
:100A6000A1F7F0E4CF0ED11CE11CF11CAFCF913601
:100A700069F415DB80E890E0EDDA939AC601A8DC12
:100A80002FEFC21AD20AE20AF20AA0CF933551F42C
:100A9000F6DA40E150E060E070E080E790E09ED55B
:100AA000688794CE953601F56ADB81E38093700107
:100AB00080917001813309F08CCF939A6885C601CB
:100AC0009BDB01E711E0D8018D918D01BFDAE9E7E9
:100AD000F1E0E017F107B9F7FFEFCF1ADF0AEF0AED
:100AE000FF0A9398AFDAE2CF9037E1F448DB01E7F1
:100AF00011E0A8DAD8018D938D01E9E7F1E0EA175A
:100B0000FB07B9F7939A6885C601A3DBFFEFCF1AFD
:100B1000DF0AEF0AFF0A8FE79EE30197F1F700C0B3
:100B2000000054CF903549F48DDA809379018134F7
:100B300009F04CCE319A399A49CE9E3421F491E095
:100B40009093610043CE953419F502E610E097DAF0
:100B500040E150E060E070E080E790E03FD5D801F0
:100B60006D937C9381E372DA8ADA40E150E060E0D1
:100B700070E080E790E032D5F8017383628381E30F
:100B800065DA0C5F1F4FF0E00E361F0701F71ECE2F
:100B90009634B1F474DA40E150E060E070E080E750
:100BA00090E01CD54B015C016ADA40E150E060E066
:100BB00070E080E790E012D5939AC40148DC08C247
:100BC000943589F580E490E045DA939A809161004C
:100BD00020E7A22E20E0B22E00E010E081110FC02D
:100BE000D5016D915D016F3F21F0C8018C0D9D1DF8
:100BF00047DC0F5F1F4F0034110591F786C0F501E8
:100C000061915F016F3F21F0C8018C0D9D1DABDC30
:100C10000F5F1F4F0034110591F7F0E4CF0ED11C88
:100C2000E11CF11CE0C3993509F055C080E290E069
:100C300011DA939A6AEA8AEA9AE009DC65E585E5C1
:100C400095E005DC560165E2C60101DC6FE1C601F5
:100C5000FEDB22E02A95F1F700C000E710E0812CCE
:100C6000912CD8016D918D01C4018A0D9B1DEFDB84
:100C7000BFEF8B1A9B0AE0E28E16910491F7F0E227
:100C8000CF0ED11CE11CF11CC601809769E2DFDBAD
:100C90008FE891E00197F1F700C000008601015054
:100CA0001109C801CBDB98ECB92E90918F00891700
:100CB00009F499C3C801C2DB9DE09A95F1F70000E1
:100CC000BA94B110F2CFAFEFB4E3ECE0A150B04072
:100CD000E040E1F71EC19A34F1F480E490E0BAD923
:100CE000939A10E7A12E10E0B12E00E010E0D5019C
:100CF0006D915D016F3F21F0C8018C0D9D1DF2DBF0
:100D00000F5F1F4F0034110591F7B0E4CB0ED11CDB
:100D1000E11CF11C68C3983509F042C080E091E005
:100D200099D9939A69EA8AEA9AE091DB66E585E5C2
:100D300095E08DDB560166E2C60189DB6FEFC601E7
:100D400086DBE5E8EA95F1F7000000E710E0812C8A
:100D5000912CD8016D918D01C4018A0D9B1D77DB0B
:100D6000BFEF8B1A9B0A8114E1E09E0691F7FFEF1B
:100D7000DF1AEF0AFF0AC6019A956AE268DB86016C
:100D800001501109C8015ADB90916F01891709F4CC
:100D90002AC3C80153DB2DE02A95F1F70000F4CFF8
:100DA0009A3509F0B9C080E890E054D9939A69E087
:100DB00080E291E04CDB6AEA81E291E048DB65E5A4
:100DC00082E291E044DB65EA8FE391E040DB8DE075
:100DD0008A95F1F7000061E180E291E038DB65EA95
:100DE0008FE391E034DB9DE09A95F1F7000061E03C
:100DF00080E091E22CDBADE0AA95F1F700006FE016
:100E000080E291E024DB65E585E291E020DB65E5A9
:100E100086E291E01CDB6AEA87E291E018DB65EA92
:100E20008FE391E014DBBDE0BA95F1F700006FE0CD
:100E300080E291E00CDB6AE285E291E008DB6AEA9D
:100E400086E291E004DB65E587E291E000DB65EA9C
:100E50008FE391E0FCDAEDE0EA95F1F700006FE056
:100E600080E291E0F4DA65E585E291E0F0DA65E5AB
:100E700086E291E0ECDA60EA87E291E0E8DA65EA9E
:100E80008FE391E0E4DAFDE0FA95F1F7000040E04D
:100E90006091600080E091E216D92DE02A95F1F78B
:100EA000000060E180E291E0D2DA65EA8FE391E050
:100EB000CEDA8DE08A95F1F7000068E080E291E0FB
:100EC000C6DA65EA8FE391E0C2DA9DE09A95F1F720
:100ED000000000E710E0F0E0003F1F0779F0D801C4
:100EE0006D918D01C601B3DABDE0BA95F1F700004E
:100EF000EFEFCE1ADE0AEE0AFE0AEDCF6FEFD70152
:100F0000C6010197A109B109A2DA8FE19EE4019718
:100F1000F1F700C0000067C29937B9F580E290E0B0
:100F200099D8939A560168EEC60191DAC50186DA1E
:100F30008038E1F76FE1C5018ADA00E710E0812C23
:100F4000912CD8016D918D01C4018A0D9B1D7FDA12
:100F5000BFEF8B1A9B0AE0E28E16910491F7F0E244
:100F6000CF0ED11CE11CF11C86010052110960ED6D
:100F7000C8016DDA87E891E00197F1F700C0000041
:100F8000C8015CDA8038E1F72EC29E3621F577D8A9
:100F900040E150E060E070E080E790E01FD34B015B
:100FA0005C0150D8809370018E3609F00FCC67D861
:100FB00040E150E060E070E080E790E00FD3939A6A
:100FC000AFEFA4BBAABBA7BBAB01C501B40115DB46
:100FD000939881E3E4C2913711F09437E9F5939A3D
:100FE00080917001843719F400E011E002C000E440
:100FF00010E0C8012FD8B0E7AB2EB0E0BB2E260121
:101000003701F501418150E0542F44278081482B5E
:101010004F3FFFEF5F0721F021E0C301B20163DB27
:101020002FEF421A520A620A720A82E0A80EB11C1D
:10103000C50180579040801791071CF39FEFC91A94
:10104000D90AE90AF90A0150110916950795C00E47
:10105000D11EE11CF11CC7C1963651F5939A80E070
:1010600091E0F8D700E710E046015701D80111964A
:101070004C91119750E0542F44278C91482B4F3FAF
:10108000BFEF5B0721F020E0C501B4012CDBEFEFDF
:101090008E1A9E0AAE0ABE0A0E5F1F4FF1E000379D
:1010A0001F0721F720E8C20ED11CE11CF11C9BC1D7
:1010B0009C3609F074C0939A80E490E0CBD78FEF10
:1010C00084BB8ABB87BB40E650E0C701B60195DA16
:1010D00040ED50E0C701B60190DA48EE50E0C7019C
:1010E000B6018BDA95E89A95F1F70000C701B601D1
:1010F0001ED88038910541F0C701B60118D8A5E87F
:10110000AA95F1F70000F5CFBFEFB4BBBABBB7BBF0
:101110004FE150E0C701B60170DA00E710E0460188
:101120005701F801418150E0542F44278081482B1A
:10113000C501B40162DAFFEF8F1A9F0AAF0ABF0A36
:101140000E5F1F4F80EB90E08017910751F790E200
:10115000C90ED11CE11CF11C40ED50E0C701B601E5
:101160004CDAAFE6B3E01197F1F700C00000C70119
:10117000B601DDD78038910541F0C701B601D7D758
:10118000B5E8BA95F1F70000F5CFEFEFE4BBEABBA5
:10119000E7BB4FEF50E0C701B6012FDA24C1953706
:1011A00009F040C0939A80E490E054D750E7A52E10
:1011B00050E0B52E26013701FFEFF4BBFABBF7BBB9
:1011C000D50111960C91119710E0102F00278C91EA
:1011D000082B40E450E0C301B2010FDAA801C301BB
:1011E000B2010BDAC301B201A2D787FD08C0C30167
:1011F000B2019DD7B5E0BA95F1F70000F6CFEFEF59
:101200004E1A5E0A6E0A7E0AF2E0AF0EB11C20EBA7
:10121000A21620E0B20681F680E2C80ED11CE11CC5
:10122000F11CE1C0963709F094C0939A80E091E0F8
:1012300011D730E7232E30E0332E460157019FEFC0
:1012400094BB9ABB97BB48EE50E0C501B401D5D919
:10125000D501C4010196A11DB11D89839A83AB8379
:10126000BC8348EE50E0BC01CD01C7D9C501B40133
:101270005ED780389105D1F769817A818B819C8115
:1012800056D780389105C1F79FEF94BB9ABB97BBA7
:101290004FE050E0C501B401B0D94FE050E06981A2
:1012A0007A818B819C81A9D98101240135011F821A
:1012B0001E82D80111964C91119750E0542F44276B
:1012C0008C91482BC301B20198D9BFEF4B1A5B0A2E
:1012D0006B0A7B0AEE81FF813296FF83EE830E5FFD
:1012E0001F4FE034F10529F724013501F0E24F0EDC
:1012F000511C611C711C40ED50E0C501B4017DD949
:1013000040ED50E069817A818B819C8176D9C3015F
:10131000B2010DD780389105D1F721E2820E911CE0
:10132000A11CB11CC501B40102D780389105D1F7C9
:1013300080E4280E311C90E7291691E0390619F057
:10134000530142017CCFA0E8CA0ED11CE11CF11C64
:101350004AC0983709F049C0939A80E490E07AD661
:1013600090E7A92E90E0B92E26013701912C97FC29
:101370000EC0BFEFB4BBBABBB7BB40E750E0C30180
:10138000B2013BD9C301B201D2D6982EF0CFEFEF14
:10139000E4BBEABBE7BBD50111960C91119710E0B5
:1013A000102F00278C91082B40E150E0C301B201BF
:1013B00024D9A801C301B20120D9BAE6BA95F1F740
:1013C00000C0EFEF4E1A5E0A6E0A7E0AF2E0AF0E20
:1013D000B11C80EB90E08A159B0549F690E2C90E9E
:1013E000D11CE11CF11C81E3C3C0993419F09F3476
:1013F00009F050C027D6182F42D640E150E060E0F7
:1014000070E080E790E0EAD0939A8091700189348F
:10141000F9F4113421F48AB36095682320C01234A2
:1014200021F487B36095682320C0133421F484B37A
:101430006095682320C0143421F481B3609568233B
:1014400020C0153409F095C086B16095682320C08E
:101450008F3409F08EC0113421F48AB3682B6ABB33
:1014600088C0123421F487B3682B67BB82C0133461
:1014700021F484B3682B64BB7CC0143421F481B3A1
:10148000682B61BB76C0153409F073C086B1682B38
:1014900066B96FC09C3451F5D5D5182FF0D540E111
:1014A00050E060E070E080E790E098D0939A1134CB
:1014B00021F48BB3609568232AC0123421F488B3D9
:1014C000609568232AC0133421F485B3609568239E
:1014D0002AC0143421F482B3609568232AC01534DD
:1014E00009F047C087B16095682329C0983449F551
:1014F000A9D5182FC4D540E150E060E070E080E746
:1015000090E06CD0939A113421F48BB3682B6BBBB1
:1015100030C0123421F488B3682B68BB2AC013345E
:1015200021F485B3682B65BB24C0143421F482B345
:10153000682B62BB1EC01534E1F487B1682B67B914
:1015400018C09434C1F47ED5939A813411F489B3D0
:101550000FC0823411F486B30BC0833411F483B30B
:1015600007C0843411F480B303C0853411F485B10D
:101570006DD593982BC99D3459F464D5813319F4F2
:1015800091E09D8326C9803309F020C91D8222C9BC
:10159000983611F482E003C0963519F482E156D5ED
:1015A00015C99A3209F012C96AD540E150E060E0ED
:1015B00070E080E790E012D0613E754E8740910563
:1015C00009F004C984B7877F84BFB8E1B1BD8CE05E
:1015D00081BD8FEF9FEF0197F1F7F8C8A0E0B0E071
:1015E000E3EFFAE078C15C016B017A0161157105E6
:1015F00019F0FB0191838083E114F10429F0C70104
:101600000297839708F0E2C0E5012196F501108169
:10161000812F90E011D1892B11F05E01F5CF1D32A1
:1016200029F42196F501118101E007C01B3221F454
:10163000E5012296F501118100E0E114F10409F1C0
:10164000F0E1EF16F10429F43EC010E3E114F104D7
:1016500021F128E0E216F10401F154F4E2E0EE1683
:10166000F10421F5812C912CA12CB0E4BB2E3DC0BE
:10167000FAE0EF16F10439F020E1E216F104B1F4DA
:101680002FC0103311F1FAE0EF2EF12CACEC8A2EC2
:10169000982CA82CACE0BA2E28C078E0E72EF12CCC
:1016A000812C912CA12CE0E1BE2E1FC060E070E0E7
:1016B00080E090E897010F2C000C440B550BDED016
:1016C00049015A0112C0103359F488818F7D883541
:1016D00009F0BBCF19812296026080E1E82EF12C3F
:1016E000812C912CA12C68E0B62E40E060E070E0E7
:1016F000CB0127010F2C000C66087708FE0150ED86
:10170000352E310E29E0231570F42FEB210F2A31ED
:1017100018F439EC332E06C02FE9210F2A3110F5C9
:1017200029EA322E310E232D30E02E153F05D4F458
:1017300047FD15C086169706A806B90668F0A301EE
:1017400092018DD0630D711D811D911D6130710558
:10175000810520E8920710F04FEF01C041E021968B
:101760001081CCCF202F2170C114D10471F04423FB
:1017700029F02197F601D183C08307C001FF19C06A
:101780002297F601D183C08314C047FF12C02223E1
:1017900029F060E070E080E090E804C06FEF7FEF38
:1017A0008FEF9FE722E230E030937B0120937A01B4
:1017B00009C0222381F090958095709561957F4FA7
:1017C0008F4F9F4F462F372F282F12C040E030E019
:1017D00020E090E00DC097FFF5CF82E290E090937B
:1017E0007B0180937A016FEF7FEF8FEF9FE7EACF66
:1017F000642F732F822FCDB7DEB7E1E188C0FC01E3
:1018000088279927E89421912032E9F3293010F0B4
:101810002E30C8F32B3239F02D3231F4689403C0E6
:1018200013D0820F911D219120532A30C8F31EF44A
:10183000909581959F4F089591110EC0803219F0B7
:1018400089508550D0F708957AE0979F902D879F13
:10185000802D910D11240895992788270895DB0183
:101860008F939F932DD0BF91AF91A29F800D911D1B
:10187000A39F900DB29F900D11240895A1E21A2EFE
:10188000AA1BBB1BFD010DC0AA1FBB1FEE1FFF1F24
:10189000A217B307E407F50720F0A21BB30BE40B74
:1018A000F50B661F771F881F991F1A9469F76095BB
:1018B0007095809590959B01AC01BD01CF01089575
:1018C00040D0A59F900DB49F900DA49F800D911DB9
:1018D000112408952F923F924F925F926F927F92C0
:1018E0008F929F92AF92BF92CF92DF92EF92FF9230
:1018F0000F931F93CF93DF93CDB7DEB7CA1BDB0BDC
:101900000FB6F894DEBF0FBECDBF09942A88398880
:1019100048885F846E847D848C849B84AA84B98487
:10192000C884DF80EE80FD800C811B81AA81B98193
:10193000CE0FD11D0FB6F894DEBF0FBECDBFED01A7
:101940000895A29FB001B39FC001A39F01D0B29F91
:0E195000700D811D1124911D0895F894FFCF94
:00000001FF
