:1000000010C01FC01EC01DC01CC01BC00CC419C026
:1000100018C017C016C015C014C013C012C011C03C
:1000200010C011241FBECFE5D2E0DEBFCDBF21E05E
:10003000A0E6B0E001C01D92AD37B207E1F708D4E9
:10004000C2CDDECF5F9BFECF8CB108955D9BFECF0E
:100050008CB908950F931F93CF93DF938C01C1E761
:10006000D0E0CE0181579040801791071CF4EADF61
:100070008993F7CFDF91CF911F910F910895CF937F
:10008000DF93C1E7D0E0DEDF89938111FCCFDF9100
:10009000CF9108953A9A949A959A969A089515BA96
:1000A00014BA18BA1BBA8FEF87BB8ABB08959BBBE3
:1000B00088BB0895FCDF949895980000000083B3F6
:1000C000959A949A0895CF93DF93D62FC42FEFDF9C
:1000D0008FEF84BBD5BB9698C13009F4949800008B
:1000E000C13009F4949A969A15BA14BADF91CF9157
:1000F000089518BA1BBA15BA8FEF87BB8ABB84BBA9
:1001000008950F931F9315BA1BBA18BA2FEF24BB8B
:100110002ABB27BB8C012227332705BB072F182FAB
:10012000292F33270BBB68BB1F910F910895E9DF7F
:1001300094981BBA18BA1ABA17BA9598000029B33E
:1001400086B3959A949A90E0922B0895B0DF3A98EE
:1001500095980000000083B3959A3A9A0895CF933A
:10016000C62FA5DF8FEF84BBC5BB3A9896980000D9
:100170000000969A3A9A15BA14BACF9108958FEF63
:1001800087BB8ABB84BB90E898BB8BBB85BB0895BB
:100190009498623049F4411105C0906C2FE0E1E081
:1001A000F0E013C09068FACF411102C0806C01C02A
:1001B000806827E0F4CFC098969800000000969AD7
:1001C00000000000215027FD0DC0BF01022E02C01B
:1001D000660F771F0A94E2F768237923672B59F398
:1001E000C09AEACF411107C0C0980000969800005D
:1001F0000000969A949A089540E0CADFC098B89893
:10020000949884E0959800000000959A0000000002
:100210008150C1F7E2E7F1E041E050E087E090E093
:1002200020E0959800000000959AB09B07C0BA01A5
:10023000082E01C0660F0A94EAF7262B019788F76B
:10024000219381E0EA37F80749F7949AC09AB89A5F
:10025000089541E09DDFE2E7F1E048E027E030E08B
:10026000808190E0022E02C0959587950A94E2F76E
:1002700080FF02C0C09A01C0C0989698000000009C
:10028000969A000000002150310950F741503196F4
:100290004111E4CFC098969800000000969A0000A3
:1002A0000000949A0895CF93C62F2FEF24BBFFDE52
:1002B000C5BB3A98969800003A9A969ACF910895BD
:1002C000CF93DF936AEA85E595E5EDDF65E58AEA98
:1002D0009AE2E9DF60E985E595E5E5DF8FE39CE9F2
:1002E0000197F1F700C0000015BA14BA80E090E061
:1002F0002DDFCFE6D0E0888381E090E027DF89839F
:100300006AEA85E595E5CFDF65E58AEA9AE2CBDF23
:1003100060EF85E595E5C7DF8FE39CE90197F1F78D
:1003200000C00000DF91CF910895CF93C82F6AEAF3
:1003300085E595E5B8DF65E58AEA9AE2B4DF60EB2A
:1003400085E595E5B0DF6C2F80E090E0CF91ABCFF5
:10035000CF93C82F6AEA85E595E5A5DF65E58AEACA
:100360009AE2A1DF60E885E595E59DDF6AEA85E52B
:1003700095E599DF65E58AEA9AE295DF60E380E03A
:100380009C2F9295907F8FDF8FE493EC0197F1F78C
:1003900000C00000CF9108951F93CF93DF93EC012D
:1003A000162F6AEA85E595E57EDF65E58AEA9AE239
:1003B0007ADF60EA85E595E576DF612FCE0173DFB0
:1003C00085E38A95F1F70000DF91CF911F910895A1
:1003D000EF92FF920F931F93CF93DF938C016AEA02
:1003E00085E595E560DF65E58AEA9AE25CDF60EA2B
:1003F00085E595E558DF1695102F00271795079589
:1004000091E7E92E90E0F92EC0E0D0E0F70161918C
:100410007F01CE01802B912B46DF2196C038D1057C
:10042000A9F78FE39CE90197F1F700C00000DF9185
:10043000CF911F910F91FF90EF90089515BA14BAC4
:1004400036DE95980000000083B3959A089595983C
:100450000000000083B3959A0895CF93C62F2FEF25
:1004600024BB25DEC5BB80917A01813431F43998F3
:10047000000000000000399A05C0969800000000B6
:100480000000969A15BA14BACF9108959BBB88BB09
:1004900065BB80917A01813431F439980000000005
:1004A0000000399A08959698000000000000969A7E
:1004B00008950F931F93CF938C01C62F8FEF84BBAA
:1004C000609165008091630090916400DFDF60912E
:1004D00069008091670090916800D8DF60916D009D
:1004E00080916B0090916C00D1DF6C2FC801CEDF42
:1004F0008DE08A95F1F7000015BA14BAA8DF8C17C1
:1005000049F0A5DF92E09A95F1F700C09091600064
:100510009130A9F7CF911F910F9108951F93CF9319
:10052000DF93EC01162F80916200813051F440E09E
:100530006091610080E091E2C6DD85E88A95F1F77F
:10054000000060916500809163009091640085DFF8
:100550006091690080916700909168007EDF6091F2
:100560006D0080916B0090916C0077DF612FCE0160
:1005700074DF83EF91E00197F1F700C0000015BA36
:1005800014BA3A9895E89A95F1F700003A9A85E8F6
:100590008A95F1F70000DF91CF911F910895FF92A6
:1005A0000F931F93CF93DF93EC01162FFF24FA9440
:1005B000F4BA01E20BBB18BA81E085BB9698000043
:1005C000969A60916500809163009091640045DF88
:1005D0006091690080916700909168003EDF6091B2
:1005E0006D0080916B0090916C0037DFF4BA0BBB0B
:1005F00018BA8091610085BB96980000969A612F89
:10060000CE012BDF8AE18A95F1F700C015BA14BA42
:10061000CE0114DF811751F0CE0110DF9DE09A95D5
:10062000F1F70000909160009130A1F7DF91CF9138
:100630001F910F91FF9008950F931F938C01222714
:10064000332705BB072F182F292F33270BBB68BB78
:1006500094985BBB48BB9698000000000000969AF7
:10066000949A1F910F9108958FEF84BB8ABB87BB2B
:1006700015BA95E09BBB85E588BB94981BBA29EA1F
:1006800028BB9698000000000000969A949A15BA2C
:1006900022E02BBB2AEA28BB94981BBA26E528BB8C
:1006A0009698000000000000969A949A15BA9BBB99
:1006B00088BB94981BBA80EA88BB9698000000001B
:1006C0000000969A949A08958FEF84BB8ABB87BBEB
:1006D00015BA95E09BBB85E588BB94981BBA2AEABE
:1006E00028BB9698000000000000969A949A15BACC
:1006F00032E03BBB28BB94981BBA88BB969800009D
:1007000000000000969A949A15BA9BBB88BB9498F7
:100710001BBA80EA88BB9698000000000000969AF9
:10072000949A0895CF92DF92EF92FF92CF93DF9346
:100730006B017C01EA01211102C0C6DF01C094DF18
:10074000AE01C701B60178DF25E02A95F1F7000078
:10075000C701B601ECDC8C179D0759F0C701B60143
:10076000E6DC25E02A95F1F70000209160002130B9
:1007700091F7DF91CF91FF90EF90DF90CF900895A8
:10078000109260001DBC1CBC8EB583608EBD0895A8
:10079000109260001DBC1CBC1EBC939808958091F3
:1007A0006000811104C0F4DF81E350DC9398089568
:1007B00084B7877F84BF88E181BD11BC6BDC81B3C6
:1007C000886F81BB86B1856086B915BA14BA18BA2C
:1007D00017BA1BBA1ABA829B0EC0979A38983A98E1
:1007E0002FE788E391E0215080409040E1F700C07E
:1007F00000003A9A02C0389A9798939A2FEF84E3B0
:100800009CE0215080409040E1F700C000009398A8
:1008100019B8599A539A549A89B7806889BF1DBCF0
:100820001CBC789408951F920F920FB60F9211245A
:100830008F939F9392B388E0892782BB81E0809356
:1008400060009F918F910F900FBE0F901F90189591
:10085000CF93DF93CDB7DEB7AA970FB6F894DEBF7C
:100860000FBECDBFA5DF21E02EA381E08DA3412CDB
:10087000512C320199249A941E0191E2290E311CC7
:10088000BEA1B13009F406DCDDDB80937101829BEF
:1008900004C0979A389881E003C0389A979882E00C
:1008A00090917101933411F4D1DB05C0973429F490
:1008B000F6DB109262006CDFE3CF973611F419DC9F
:1008C000FACF9A3339F415BA14BA18BA17BA1BBA50
:1008D0001ABAD6CF913459F4D2DB40E150E060E04F
:1008E00070E081E790E0B0D72B013C01C9CF923591
:1008F000F1F4D5DB81E38093710180917101813343
:1009000009F0BECF939A00E010E0C801840D951D58
:10091000D1DB9CDB0F5F1F4F00341105B1F7E0E422
:100920004E0E511C611C711C93988CDBE4CF9135E9
:10093000A1F4B5DB939A00E010E0C801840D951D89
:10094000B9DB84DB0F5F1F4F0115F0E41F07A9F728
:1009500020E4520E611C711CA0C09735F1F49FDB9E
:1009600080E490E077DB939AB1E7EB2EB0E0FB2ECA
:1009700000E010E0D7016D917D01C801840D951D47
:1009800041E0A1DB0F5F1F4F0034110599F7B0E480
:100990004B0E511C611C711C3FC49234E1F47FDB8F
:1009A0006EDB40E150E060E070E081E790E04CD722
:1009B0006B017C0147DB80937101823409F060CFC9
:1009C0005EDB81E790E051D88093610040E0682FC2
:1009D000C60179DB55CF923719F09A3609F03FC03E
:1009E00088DB809171018A3611F010E201C010E8B5
:1009F00081E380937101CC24CA94C10ED12CE12CE7
:100A0000F12CD701C6010196A11DB11D89A39AA39E
:100A1000ABA3BCA380917101813309F031CF939ACC
:100A200073016201C701B60182DB092F0FDB802F42
:100A30000DDB9FEFC91AD90AE90AF90A8C2D84192E
:100A4000811780F389A19AA1ABA1BCA1480E591EC0
:100A50006A1E7B1E9398F6DA80937101DBCF9A357C
:100A6000F1F447DB939AC301B2014BDB94981BBAB4
:100A700018BA1ABA17BA00E010E017FD0AC0959824
:100A8000000086B3E3DA89B3E1DA959A0F5F1F4F6E
:100A9000F4CF90E8590E611C711C9398F1CE9D36ED
:100AA000E9F4FDDA81E38093710180917101813372
:100AB000B1F5939A00E010E0C801840D951D46DB66
:100AC000C5DA0F5F1F4F00341105B1F7A0E44A0EDD
:100AD000511C611C711C9398B5DAE5CF973709F565
:100AE000DEDA80E490E0B6DA939AA1E7EA2EA0E09D
:100AF000FA2E00E010E0F70161917F01C801840D3A
:100B0000951D2DDB0F5F1F4F00341105A1F7F0E499
:100B10004F0E511C611C711C81E398DA9398E9DA3D
:100B2000AFCE9F3631F4BBDA8DDA682FC20117DB06
:100B300023C0993649F4B3DAC3DB80916F0086DABB
:100B40008091700083DAEBCF9B3649F498DA81E725
:100B500090E08BD7182FA3DA812FE7DBE0CF933714
:100B600069F49DDA8CDA40E150E060E070E081E702
:100B700090E06AD6862FECDB81E3E4CF9236E9F48D
:100B80008EDA80E490E066DA939AF1E7EF2EF0E0F7
:100B9000FF2E00E010E0D7016D917D01C801840DAA
:100BA000951DFADB0F5F1F4F00341105A1F7B0E46C
:100BB0004B0E511C611C711CAFCF913669F46FDA7A
:100BC00080E890E047DA939AC20102DCEFEF4E1A18
:100BD0005E0A6E0A7E0AA0CF933551F450DA40E1E6
:100BE00050E060E070E081E790E02ED66DA348CE43
:100BF000953601F5C4DA81E380937101809171012A
:100C0000813309F08CCF939A6DA1C201F5DA02E726
:100C100011E0D8018D918D0119DAEAE7F1E0E017D2
:100C2000F107B9F7FFEF4F1A5F0A6F0A7F0A93982F
:100C300009DAE2CF9037E1F4A2DA02E711E002DA52
:100C4000D8018D938D01EAE7F1E0EA17FB07B9F7C8
:100C5000939A6DA1C201FDDAFFEF4F1A5F0A6F0A86
:100C60007F0A8FE79EE30197F1F700C0000054CFA1
:100C7000903549F4E7D980937A01813409F000CEA8
:100C8000319A399AFDCD9E3421F481E0809362003F
:100C9000F7CD953419F503E610E0F1D940E150E0C5
:100CA00060E070E081E790E0CFD5D8016D937C9350
:100CB00081E3CCD9E4D940E150E060E070E081E725
:100CC00090E0C2D5F8017383628381E3BFD90C5FE2
:100CD0001F4FF0E00F361F0701F7D2CD9634B1F465
:100CE000CED940E150E060E070E081E790E0ACD523
:100CF0006B017C01C4D940E150E060E070E081E725
:100D000090E0A2D5939AC601A8DB86C29435B9F5C6
:100D100080E490E09FD934DD939A80916200E1E70E
:100D2000EE2EE0E0FE2E00E010E0811114C0D701AD
:100D30006D917D016F3F21F0C801840D951DB9DBD8
:100D40000F5F1F4F0034110591F720E4420E511C34
:100D5000611C711C44C5F70161917F016F3F21F057
:100D6000C801840D951D1BDC0F5F1F4F003411055A
:100D700091F7F0E44F0E511C611C711C30C5993580
:100D800009F04EC080E290E065D9FADC939A6AEAF5
:100D90008AEA9AE062DB65E585E595E05EDB720153
:100DA00065E2C2015ADB6FE1C20157DB82E08A953E
:100DB000F1F700C001E710E0C12CD12CD8016D91F2
:100DC0008D01C7018C0D9D1D48DBBFEFCB1ADB0ADF
:100DD000E0E2CE16D10491F7F0E24F0E511C611CF7
:100DE000711CC201809769E238DB8FE891E00197BE
:100DF000F1F700C00000820101501109C8011EDB9B
:100E000090919000891709F4EAC4C80117DB9DE0AE
:100E10009A95F1F7000090916000913089F7DFC456
:100E2000953509F062C080E091E014D9A9DC939A6D
:100E300061E7E62E60E0F62E78E0872EFE0131961F
:100E40006F01D7018D918193E215F305D9F76AEA15
:100E50008AEA9AE002DB65E585E595E0FEDA520173
:100E600065E2C201FADA6FE1C201F7DAA2E0AA95FF
:100E7000F1F700C000E010E0F60161916F01C501DB
:100E8000800F911FEADA0F5F1F4F00321105A1F7A3
:100E9000F0E24F0E511C611C711CC201809769E287
:100EA000DCDA8FE891E00197F1F700C000008201E1
:100EB00001501109C801C2DA98A1891751F0C8017F
:100EC000BDDA9DE09A95F1F70000909160009130B5
:100ED00099F780916000813009F481C48A94A0E27E
:100EE000EA0EF11C8110AACF7AC49A34F9F480E496
:100EF00090E0B0D845DC939A51E7E52E50E0F52E0E
:100F000000E010E0D7016D917D016F3F21F0C80135
:100F1000840D951D03DB0F5F1F4F0034110591F702
:100F2000B0E44B0E511C611C711C59C4983509F07A
:100F300047C080E091E08ED823DC939A69EA8AEA80
:100F40009AE08BDA66E585E595E087DA720166E27C
:100F5000C20183DA6FEFC20180DAE5E8EA95F1F7C2
:100F6000000001E710E0C12CD12CD8016D918D015A
:100F7000C6018E0D9F1D71DABFEFCB1ADB0AC114BB
:100F8000E1E0DE0691F7FFEF5F1A6F0A7F0AC20108
:100F90009A956AE262DA820101501109C8014EDABB
:100FA00090917001891709F41AC4C80147DA2DE03D
:100FB0002A95F1F7000090916000913089F70FC4F5
:100FC0009A3709F0BCC080E890E044D8939A69E071
:100FD00080E291E042DA6AEA81E291E03EDA65E598
:100FE00082E291E03ADA65EA8FE391E036DA8DE069
:100FF0008A95F1F7000061E180E291E02EDA65EA7E
:101000008FE391E02ADA9DE09A95F1F7000061E024
:1010100080E091E222DAADE0AA95F1F700006FE0FE
:1010200080E291E01ADA65E585E291E016DA65E59D
:1010300086E291E012DA6AEA87E291E00EDA65EA86
:101040008FE391E00ADABDE0BA95F1F700006FE0B6
:1010500080E291E002DA6AE285E291E0FED96AEA92
:1010600086E291E0FAD965E587E291E0F6D965EA92
:101070008FE391E0F2D9EDE0EA95F1F700006FE03F
:1010800080E291E0EAD965E585E291E0E6D965E59F
:1010900086E291E0E2D960EA87E291E0DED965EA92
:1010A0008FE391E0DAD9FDE0FA95F1F7000040E036
:1010B0006091610080E091E206D82DE02A95F1F779
:1010C000000060E180E291E0C8D965EA8FE391E039
:1010D000C4D98DE08A95F1F7000068E080E291E0E4
:1010E000BCD965EA8FE391E0B8D99DE09A95F1F714
:1010F000000001E710E081EF90E08017910779F0A0
:10110000D8016D918D01C201A8D9BDE0BA95F1F762
:101110000000EFEF4E1A5E0A6E0A7E0AECCF6FEF08
:10112000D301C2010197A109B10997D9AFE1BEE48A
:101130001197F1F700C0000081E388D7AECC993752
:1011400009F048C080E290E085D7939A820168EE6A
:10115000C20183D915DBC80171D9803821F0809193
:1011600060008130C1F780916000811189CB08DB7C
:101170006FE1C80172D941E7E42E40E0F42EC12CA2
:10118000D12CF70161917F01C601800F911F65D9B4
:10119000FFEFCF1ADF0A20E2C216D10491F780E2F6
:1011A000480E511C611C711C82010052110960ED36
:1011B000C80153D9A7E8B1E01197F1F700C00000CA
:1011C000C8013CD9803809F40AC38091600081309D
:1011D000B9F705C39E3619F552D740E150E060E0FB
:1011E00070E081E790E030D36B017C012BD78093D6
:1011F00071018E3609F044CB42D740E150E060E007
:1012000070E081E790E020D3939A94BA9ABA97BAA3
:10121000AB01C701B60110DA939881E3F6C29137AA
:1012200011F09437F1F5939A80917101843719F098
:1012300000E410E002C000E011E0C8010BD7A0DA22
:1012400031E7E32E30E0F32E63015201F7014181D3
:1012500050E0542F44278081482B4F3FFFEF5F071A
:1012600021F021E0C601B5015DDA2FEFA21AB20A22
:10127000C20AD20A82E0E80EF11CC70181579040F1
:10128000801791071CF39FEF491A590A690A790AD6
:101290000150110916950795400E511E611C711CD5
:1012A0009EC2963659F5939A80E091E0D3D668DADB
:1012B00001E710E073016201D80111964C9111977A
:1012C00050E0542F44278C91482B4F3FBFEF5B07D2
:1012D00021F020E0C701B60125DAEFEFCE1ADE0AD1
:1012E000EE0AFE0A0E5F1F4FF1E001371F0721F7DC
:1012F00020E8420E511C611C711C71C28DE9890FDE
:10130000823008F0B7C080E091E0A4D6939AF1E76C
:10131000AF2EF0E0BF2E34DA94BA9ABA97BA8E01A3
:101320000F5F1F4FF801D5018D9181932E163F0657
:10133000D9F780917101833689F44AEA50E065E576
:1013400075E080E090E078D945E550E06AEA72E027
:1013500080E090E071D945E250E010C049EA50E0E9
:1013600065E575E080E090E067D946E550E06AEA1F
:1013700072E080E090E060D946E250E0C301B20143
:101380005BD94FE050E0C301B20156D982E08A95A3
:10139000F1F700C0C301AA27BB2785BBBB27A72D38
:1013A000962D852D8BBB48BA9498D80111968C91B7
:1013B00011978BBB8C9188BB9698000000000000B1
:1013C000969A95980000959A0E5F1F4F2016310649
:1013D00061F773016201B0E1CB0ED11CE11CF11C7D
:1013E000D301C2010F96A11DB11D89A39AA3ABA37E
:1013F000BCA3949A20917101C301B2016F5F7F4F2A
:101400008F4F9F4F233619F449E250E002C04AE261
:1014100050E012D9AFE8B1E01197F1F700C0000039
:101420000F8D18A169A17AA18BA19CA180D68017EC
:10143000910769F069A17AA18BA19CA178D6B2E04D
:10144000BA95F1F700C020916000213081F78091BA
:101450006000813059F0E0E2AE0EB11C81E791E00E
:101460008A159B0519F02601370155CF98D9260119
:10147000370106CA9C3609F078C0939A80E490E060
:10148000E9D57ED994BA9ABA97BA40E650E0C3013A
:10149000B201D2D840ED50E0C301B201CDD848EE40
:1014A00050E0C301B201C8D895E89A95F1F7000061
:1014B000C301B2013CD68038910559F0C301B20195
:1014C00036D6A5E8AA95F1F70000209160002130FA
:1014D00091F794BA9ABA97BA4FE150E0C301B201BA
:1014E000ABD801E710E073016201F801418150E0DF
:1014F000542F44278081482BC701B6019DD8FFEFA8
:10150000CF1ADF0AEF0AFF0A0E5F1F4F81EB90E050
:101510008017910751F790E2490E511C611C711C14
:1015200040ED50E0C301B20187D8AFE6B3E01197B8
:10153000F1F700C00000C301B201F9D58038910570
:1015400059F0C301B201F3D5B5E8BA95F1F700003F
:1015500020916000213091F794BA9ABA97BA4FEF70
:1015600050E0C301B20168D83AC19537E1F5939ACA
:1015700080E490E06FD504D941E7E42E40E0F42EFA
:101580006301520194BA9ABA97BAF701018110E047
:10159000102F00278081082B40E450E0C601B501E0
:1015A0004BD8A801C601B50147D8C601B501BFD5C2
:1015B00087FD0BC0C601B501BAD5F5E0FA95F1F784
:1015C000000090916000913099F72FEFA21AB20AB3
:1015D000C20AD20A82E0E80EF11CA1EBB0E0AE151F
:1015E000BF0581F6F7C0963709F0B5C0939A80E041
:1015F00091E030D5C5D801E710E094BA9ABA97BA0D
:1016000048EE50E0C301B20117D873016201EFEF59
:10161000CE1ADE0AEE0AFE0A48EE50E0C701B60115
:101620000BD8C301B20183D58038910549F0809170
:1016300060008130B1F704C080916000813031F0EA
:10164000C701B60174D580389105B1F7809160006B
:1016500081116BC095D894BA9ABA97BA4FE050E00E
:10166000C301B201E9D74FE050E0C701B601E4D7AA
:101670001AA309A34FA258A669A67AA6A12CB12C39
:10168000A9A1BAA111964C91119750E0542F44276B
:101690008C91482B6FA178A589A59AA5CDD78FA14C
:1016A00098A5A9A5BAA50196A11DB11D8FA398A7BC
:1016B000A9A7BAA792E0A90EB11CA9A1BAA1129636
:1016C000BAA3A9A3B0E4AB16B104D1F6D301C20109
:1016D0008096A11DB11D89A39AA3ABA3BCA340ED25
:1016E00050E0C301B201A8D740ED50E0C701B601F8
:1016F000A3D769A17AA18BA19CA119D580389105A6
:1017000021F0809160008130A1F791E2490E511CD7
:10171000611C711CC301B2010AD58038910549F0E2
:10172000809160008130B1F704C049A25AA26BA237
:101730007CA2005C1F4FA1E7B1E0A017B10729F020
:1017400049A05AA06BA07CA058CF29D849A05AA084
:101750006BA07CA095C8983709F043C0939A80E4A9
:1017600090E078D40DD891E7E92E90E0F92E63014E
:101770005201812C94BA9ABA97BA87FC0AC040E702
:1017800050E0C601B50158D7C601B501D0D4882EA6
:10179000F1CFF701018110E0102F00278081082B85
:1017A00040E150E0C601B50147D7A801C601B50127
:1017B00043D7FAE6FA95F1F700C02FEFA21AB20A62
:1017C000C20AD20A82E0E80EF11CA1EBB0E0AE152D
:1017D000BF0581F6B0E24B0E511C611C711CDFD7B6
:1017E0004FC89D3459F42ED4813319F4A1E0AEA32F
:1017F0004AC8803309F044C81EA246C8983611F47E
:1018000082E003C0963519F486E120D439C89A32B3
:1018100009F036C834D440E150E060E070E081E780
:1018200090E012D0613E754E8740910509F028C8BE
:1018300084B7877F84BF88E181BD8CE081BD8FEF55
:101840009FEF0197F1F71CC8A0E0B0E0E9E2FCE0EF
:1018500078C15C016B017A016115710519F0FB011A
:1018600091838083E114F10429F0C70102978397E3
:1018700008F0E2C0E5012196F5011081812F90E08A
:1018800011D1892B11F05E01F5CF1D3229F421967B
:10189000F501118101E007C01B3221F4E501229618
:1018A000F501118100E0E114F10409F1F0E1EF1616
:1018B000F10429F43EC010E3E114F10421F128E021
:1018C000E216F10401F154F4E2E0EE16F10421F520
:1018D000812C912CA12CB0E4BB2E3DC0FAE0EF1678
:1018E000F10439F020E1E216F104B1F42FC0103315
:1018F00011F1FAE0EF2EF12CACEC8A2E982CA82CEA
:10190000ACE0BA2E28C078E0E72EF12C812C912C87
:10191000A12CE0E1BE2E1FC060E070E080E090E806
:1019200097010F2C000C440B550BDED049015A01D6
:1019300012C0103359F488818F7D883509F0BBCFF0
:1019400019812296026080E1E82EF12C812C912CE5
:10195000A12C68E0B62E40E060E070E0CB012701EA
:101960000F2C000C66087708FE0150ED352E310E65
:1019700029E0231570F42FEB210F2A3118F439ECEC
:10198000332E06C02FE9210F2A3110F529EA322E15
:10199000310E232D30E02E153F05D4F447FD15C040
:1019A00086169706A806B90668F0A30192018DD0A5
:1019B000630D711D811D911D61307105810520E848
:1019C000920710F04FEF01C041E021961081CCCF7B
:1019D000202F2170C114D10471F0442329F02197E4
:1019E000F601D183C08307C001FF19C02297F60119
:1019F000D183C08314C047FF12C0222329F060E0C6
:101A000070E080E090E804C06FEF7FEF8FEF9FE71A
:101A100022E230E030937C0120937B0109C0222335
:101A200081F090958095709561957F4F8F4F9F4F76
:101A3000462F372F282F12C040E030E020E090E002
:101A40000DC097FFF5CF82E290E090937C018093E8
:101A50007B016FEF7FEF8FEF9FE7EACF642F732F4C
:101A6000822FCDB7DEB7E1E188C0FC018827992736
:101A7000E89421912032E9F3293010F02E30C8F398
:101A80002B3239F02D3231F4689403C013D0820F19
:101A9000911D219120532A30C8F31EF49095819511
:101AA0009F4F089591110EC0803219F089508550D2
:101AB000D0F708957AE0979F902D879F802D910D04
:101AC00011240895992788270895DB018F939F9308
:101AD0002DD0BF91AF91A29F800D911DA39F900D1E
:101AE000B29F900D11240895A1E21A2EAA1BBB1BD0
:101AF000FD010DC0AA1FBB1FEE1FFF1FA217B307DA
:101B0000E407F50720F0A21BB30BE40BF50B661FEF
:101B1000771F881F991F1A9469F7609570958095B3
:101B200090959B01AC01BD01CF01089540D0A59FC8
:101B3000900DB49F900DA49F800D911D11240895C8
:101B40002F923F924F925F926F927F928F929F92CD
:101B5000AF92BF92CF92DF92EF92FF920F931F93BB
:101B6000CF93DF93CDB7DEB7CA1BDB0B0FB6F8946C
:101B7000DEBF0FBECDBF09942A88398848885F84AC
:101B80006E847D848C849B84AA84B984C884DF801D
:101B9000EE80FD800C811B81AA81B981CE0FD11D01
:101BA0000FB6F894DEBF0FBECDBFED010895A29F22
:101BB000B001B39FC001A39F01D0B29F700D811DE2
:0A1BC0001124911D0895F894FFCF41
:00000001FF
