:1000000010C02AC029C028C027C026C01CC424C0D4
:1000100023C022C021C020C01FC01EC01DC01CC0E4
:100020001BC011241FBECFE5D2E0DEBFCDBF10E064
:10003000A0E6B0E0EAE9FBE102C005900D92A2362D
:10004000B107D9F721E0A2E6B0E001C01D92AF37B9
:10005000B207E1F70DD49FCDD3CF5F9BFECF8CB11C
:1000600008955D9BFECF8CB908950F931F93CF9396
:10007000DF938C01C3E7D0E0CE0183579040801717
:1000800091071CF4EADF8993F7CFDF91CF911F919D
:100090000F910895CF93DF93C3E7D0E0DEDF89931C
:1000A0008111FCCFDF91CF9108953A9A949A959A55
:1000B000969A089515BA14BA18BA1BBA8FEF87BB6F
:1000C0008ABB08959BBB88BB0895FCDF9598000010
:1000D000000083B3959A0895F5DF949895980000F1
:1000E000000083B3959A949A0895CF93DF93D62F07
:1000F000C42FE8DF8FEF84BBD5BBC13009F49498DF
:1001000096980000969AC13009F4949A15BA14BAD8
:10011000DF91CF91089518BA1BBA15BA8FEF87BB3C
:100120008ABB84BB08950F931F9315BA1BBA18BAE4
:100130002FEF24BB2ABB27BB8C012227332705BB0B
:10014000072F182F292F33270BBB68BB1F910F9147
:100150000895E9DF94981BBA18BA1ABA17BA959895
:10016000000029B386B3959A949A90E0922B089553
:10017000A9DF3A9895980000000083B3959A3A9ABF
:100180000895CF93C62F9EDF8FEF84BBC5BB3A98EF
:10019000969800000000969A3A9A15BA14BACF9130
:1001A00008958FEF87BB8ABB84BB90E898BB8BBB5D
:1001B00085BB08959498623049F4411105C0906C54
:1001C0002FE0E1E0F0E013C09068FACF411102C0E7
:1001D000806C01C0806827E0F4CFC098969800003A
:1001E0000000969A00000000215027FD0DC0BF01BD
:1001F000022E02C0660F771F0A94E2F76823792364
:10020000672B59F3C09AEACF411107C0C09800008C
:10021000969800000000969A949A089540E0CADFEC
:10022000C098B898949884E0959800000000959A3A
:10023000000000008150C1F7E4E7F1E041E050E048
:1002400087E090E020E0959800000000959AB09B30
:1002500007C0BA01082E01C0660F0A94EAF7262BE0
:10026000019788F7219381E0EC37F80749F7949AD2
:10027000C09AB89A089541E09DDFE4E7F1E048E0D4
:1002800027E030E0808190E0022E02C095958795AE
:100290000A94E2F780FF02C0C09A01C0C098969805
:1002A00000000000969A000000002150310950F72C
:1002B000415031964111E4CFC0989698000000005B
:1002C000969A00000000949A0895CF93C62F2FEFBE
:1002D00024BBF8DEC5BB3A98969800003A9A969AE5
:1002E000CF910895CF93DF936AEA85E595E5EDDF39
:1002F00065E58AEA9AE2E9DF60E985E595E5E5DF0B
:100300008FE39CE90197F1F700C0000015BA14BA19
:1003100080E090E02DDFC1E7D0E0888381E090E0CD
:1003200027DF89836AEA85E595E5CFDF65E58AEA17
:100330009AE2CBDF60EF85E595E5C7DF8FE39CE9C7
:100340000197F1F700C0000060EF80E090E0DF91DE
:10035000CF91BBCFCF93C82F6AEA85E595E5B5DF8E
:1003600065E58AEA9AE2B1DF60EB85E595E5ADDF08
:100370006C2F80E090E0CF91A8CFCF93C82F6AEA8E
:1003800085E595E5A2DF65E58AEA9AE29EDF60E809
:1003900085E595E59ADF6AEA85E595E596DF65E509
:1003A0008AEA9AE292DF60E380E09C2F9295907F48
:1003B0008CDF8FE493EC0197F1F700C00000CF9140
:1003C00008951F93CF93DF93EC01162F6AEA85E51A
:1003D00095E57BDF65E58AEA9AE277DF60EA85E505
:1003E00095E573DF612FCE0170DF85E38A95F1F724
:1003F0000000DF91CF911F910895EF92FF920F932C
:100400001F93CF93DF938C016AEA85E595E55DDF65
:1004100065E58AEA9AE259DF60EA85E595E555DF08
:100420001695102F00271795079593E7E92E90E072
:10043000F92EC0E0D0E0F70161917F01CE01802B61
:10044000912B43DF2196C038D105A9F78FE39CE9B2
:100450000197F1F700C00000DF91CF911F910F913C
:10046000FF90EF90089515BA14BA2CDE959800000D
:10047000000083B3959A089595980000000083B317
:10048000959A0895CF93C62F2FEF24BB1BDEC5BBD3
:1004900080917C01813431F4399800000000000023
:1004A000399A0FC0823541F43A98969800000000BE
:1004B0000000969A3A9A05C0969800000000000045
:1004C000969A15BA14BACF9108959BBB88BB65BBA9
:1004D00080917C01813431F43998000000000000E3
:1004E000399A0895823541F43A98969800000000B0
:1004F0000000969A3A9A089596980000000000002D
:10050000969A08950F931F93CF938C01C62F8FEF68
:1005100084BB609167008091650090916600D5DF93
:1005200060916B008091690090916A00CEDF6091CC
:100530006F0080916D0090916E00C7DF6C2FC80135
:10054000C4DF8DE08A95F1F7000015BA14BA94DF84
:100550008C1749F091DF92E09A95F1F700C09091E5
:1005600062009130A9F7CF911F910F9108951F93C9
:10057000CF93DF93EC01162F80916400813051F40A
:1005800040E06091630080E091E2AFDD85E88A950C
:10059000F1F700006091670080916500909166001E
:1005A00071DF60916B008091690090916A006ADF51
:1005B00060916F0080916D0090916E0063DF612FFC
:1005C000CE0160DF83EF91E00197F1F700C00000FA
:1005D00015BA14BA3A9895E89A95F1F700003A9A44
:1005E00085E88A95F1F70000DF91CF911F9108957A
:1005F000FF920F931F93CF93DF93EC01162FFF24ED
:10060000FA94F4BA01E20BBB18BA81E085BB969864
:100610000000969A60916700809165009091660055
:1006200031DF60916B008091690090916A002ADF50
:1006300060916F0080916D0090916E0023DFF4BA9D
:100640000BBB18BA8091630085BB96980000969A00
:10065000612FCE0117DF8AE18A95F1F700C015BA44
:1006600014BACE0100DF811751F0CE01FCDE9DE00F
:100670009A95F1F70000909162009130A1F7DF9117
:10068000CF911F910F91FF9008950F931F938C01AD
:100690002227332705BB072F182F292F33270BBB02
:1006A00068BB94985BBB48BB9698000000000000B4
:1006B000969A949A1F910F9108959FEF94BB9ABBBD
:1006C00097BB15BA95E09BBB95E598BB94981BBA70
:1006D000811102C09AEA01C099EA98BB969800007D
:1006E00000000000969A949A15BA92E09BBB9AEA91
:1006F00098BB94981BBA811102C085E501C086E5BC
:1007000088BB9698000000000000969A949A15BA4B
:1007100085E08BBB85E588BB94981BBA80EA88BBD3
:100720009698000000000000969A949A0895CF923F
:10073000DF92EF92FF92CF93DF936B017C01EA018E
:10074000822FBBDFAE01C701B6019FDF25E02A95EE
:10075000F1F70000C701B601FCDC8C179D0759F0CA
:10076000C701B601F6DC25E02A95F1F700002091DB
:100770006200213091F7DF91CF91FF90EF90DF90F1
:10078000CF900895CF92DF92EF92FF926B017C01A0
:10079000E0DC8038910541F0C701B601DADC25E8DC
:1007A0002A95F1F70000F5CFFF90EF90DF90CF9002
:1007B0000895109262001DBC1CBC8EB583608EBD76
:1007C0000895109262001DBC1CBC1EBC9398089535
:1007D00080916200811104C0F4DF81E342DC9398D0
:1007E000089584B7877F84BF88E181BD11BC5DDC3B
:1007F00081B38C6F81BB86B1856086B915BA14BA96
:1008000018BA17BA1BBA1ABA80916000813019F46D
:10081000979A389802C0389A9798939A2FEF84E362
:100820009CE0215080409040E1F700C00000939888
:1008300019B8599A539A549A89B7806889BF1DBCD0
:100840001CBC789408951F920F920FB60F9211243A
:100850008F939F9392B388E0892782BB81E0809336
:1008600062009F918F910F900FBE0F901F9018956F
:10087000CF93DF93CDB7DEB7A7970FB6F894DEBF5F
:100880000FBECDBFAEDF21E02DA3412C512C320194
:10089000A1E32A2E33243A94CE0181969AA389A308
:1008A00004DCDBDB80937301833419F480916000F6
:1008B00094C7873429F4FEDB84DF10926400F0CF04
:1008C000873611F428DC08C0833341F4929882E023
:1008D00080936000389A979874DFE2CF853339F4BB
:1008E000929A81E080936000979A3898F5CF8A3386
:1008F00039F415BA14BA18BA17BA1BBA1ABAD0CF43
:10090000813459F4C7DB40E150E060E070E083E7F8
:1009100090E082D72B013C01C3CF8235A1F5CADB21
:100920002092730180917301813309F0B9CF939ABA
:10093000D301C201905AA109B10900E010E081156C
:100940009042A105B10558F4C801840D951DC4DB82
:1009500088DB0F5F1F4F00341105B1F70AC0C801D3
:10096000840D951DB2DB7DDB0F5F1F4F0034110539
:10097000B1F7939872DB80937301F0E44F0E511C32
:10098000611C711CCFCF8135A1F494DB939A00E0F8
:1009900010E0C801840D951D98DB63DB0F5F1F4FCE
:1009A000011520E41207A9F730E4530E611C711CF5
:1009B000B1C08735F1F47EDB80E490E056DB939A9A
:1009C000F3E7EF2EF0E0FF2E00E010E0F701619179
:1009D0007F01C801840D951D41E087DB0F5F1F4F2C
:1009E0000034110599F7F0E44F0E511C611C711C85
:1009F00036C0823411F0883421F55CDB4BDB40E1FA
:100A000050E060E070E083E790E006D76B017C0186
:100A100024DB80937301823419F0883409F040CFCD
:100A200039DB83E790E009D8682F809363008091D9
:100A30007301823411F440E001C041E0C60155DB8E
:100A40002FCF8D3279F4939A3A982FE738E381E0EB
:100A5000215030408040E1F700C000003A9A93985E
:100A600081E3BBC6823711F08A36B1F554DB809141
:100A700073018A3611F010E201C010E82092730170
:100A8000CC24CA94C10ED12CE12CF12C9FEFC91AB1
:100A9000D90AE90AF90A80917301813309F000CF7C
:100AA000939A53014201C501B40153DB092FD9DAEE
:100AB000802FD7DAEFEF8E1A9E0AAE0ABE0A882D73
:100AC0008419811780F34C0C5D1C6E1C7F1C93985D
:100AD000C4DA80937301DFCF8A35F1F41CDB939A7B
:100AE000C301B20120DB94981BBA18BA1ABA17BA1C
:100AF00000E010E017FD0AC09598000086B3B1DA57
:100B000089B3AFDA959A0F5F1F4FF4CFF0E85F0E0D
:100B1000611C711C9398C4CE8D36F1F4CBDA20920F
:100B20007301809173018133C1F5939A00E010E065
:100B3000C801840D951D1CDB94DA0F5F1F4F003434
:100B40001105B1F720E4420E511C611C711C9398F1
:100B500084DA80937301E5CF873709F5ABDA80E457
:100B600090E083DA939AE3E7EE2EE0E0FE2E00E0D9
:100B700010E0F70161917F01C801840D951D01DB33
:100B80000F5F1F4F00341105A1F7F0E44F0E511C09
:100B9000611C711C81E365DA9398BDDA81CE8F36D2
:100BA00031F488DA5ADA682FC201EBDA23C08936C9
:100BB00049F480DA97DB8091710053DA80917200FA
:100BC00050DAEBCF8B3649F465DA83E790E035D71E
:100BD000182F70DA812FBEDBE0CF833769F46ADA31
:100BE00059DA40E150E060E070E083E790E014D62D
:100BF000862FC3DB81E3E4CF8236C1F45BDA80E485
:100C000090E033DA939A73E7E72E70E0F72E00E076
:100C100010E0F70161917F01C801840D951DD1DBC2
:100C20000F5F1F4F00341105A1F7AFCF813669F474
:100C300041DA80E890E019DA939AC201DEDB2FEF07
:100C4000421A520A620A720AA5CF833551F422DA97
:100C500040E150E060E070E083E790E0DDD56DA317
:100C60001FCE853609F59DDA2092730180917301BC
:100C7000813309F092CF939A6DA1C201CFDA04E7D4
:100C800011E0F80181918F01ECD92CE731E02017B8
:100C90003107B9F73FEF431A530A630A730A93986F
:100CA000DCD980937301E2CF8037E1F47ADA04E78C
:100CB00011E0D3D9F80181938F012CE731E02E1791
:100CC0003F07B9F7939A6DA1C201D5DA3FEF431AF6
:100CD000530A630A730A8FE79EE30197F1F700C096
:100CE000000058CF803539F4B8D980937C01813425
:100CF00009F0D6CD63C58E3421F481E08093640081
:100D0000CFCD853419F505E610E0C4D940E150E0B7
:100D100060E070E083E790E07FD5F8017183608345
:100D200081E39FD9B7D940E150E060E070E083E70C
:100D300090E072D5F8017383628381E392D90C5FEE
:100D40001F4FF0E001371F0701F7AACD8634B1F439
:100D5000A1D940E150E060E070E083E790E05CD52D
:100D60006B017C0197D940E150E060E070E083E7DF
:100D700090E052D5939AC60185DB71CE843531F06F
:100D80008B3709F03FC000E011E002C000E410E042
:100D9000C8016BD90EDD939A8091640063E7E62E5B
:100DA00060E0F62EC12CD12C811115C0F7016191A4
:100DB0007F016F3F21F0C601840D951DA3DBFFEF7E
:100DC000CF1ADF0A0C151D0589F73FEF431A530AA6
:100DD000630A730A14C0F70161917F016F3F21F02C
:100DE000C601840D951D04DCFFEFCF1ADF0A0C1538
:100DF0001D0589F72FEF421A520A620A720A015042
:100E000011098FC2893509F04EC080E290E02DD9DA
:100E1000D0DC939A6AEA8AEA9AE034DB65E585E5F4
:100E200095E030DB720165E2C2012CDB6FE1C201AB
:100E300029DB82E08A95F1F700C003E710E0C12CBE
:100E4000D12CF80161918F01C7018C0D9D1D1ADB1A
:100E5000FFEFCF1ADF0A20E2C216D10491F730E289
:100E6000430E511C611C711CC201809769E20ADBB0
:100E700087EC90E00197F1F700C00000820101507B
:100E80001109C801F0DA90919200891709F492C40F
:100E9000C801E9DA9DE09A95F1F7000090916200AF
:100EA000913089F787C4853509F066C080E091E00C
:100EB000DCD87FDC939A43E7E42E40E0F42E58E040
:100EC000952E9E012F5F3F4F6901F901D7018D914A
:100ED000819329A13AA12E173F07C9F76AEA8AEA46
:100EE0009AE0D0DA65E585E595E0CCDA520165E275
:100EF000C201C8DA6FE1C201C5DA32E03A95F1F712
:100F000000C000E010E0F60161916F01C501800FA3
:100F1000911FB8DA0F5F1F4F00321105A1F7F0E201
:100F20004F0E511C611C711CC201809769E2AADA44
:100F300087EC90E00197F1F700C0000082010150BA
:100F40001109C80190DA98A1891751F0C8018BDA0C
:100F50009DE09A95F1F7000090916200913099F729
:100F600080916200813009F425C49A94E0E2EE0E8B
:100F7000F11C9110A6CF1EC48A34F9F480E490E0ED
:100F800074D817DC939A33E7E32E30E0F32E00E0B9
:100F900010E0F70161917F016F3F21F0C801840DDE
:100FA000951DE5DA0F5F1F4F0034110591F7F0E44E
:100FB0004F0E511C611C711CFDC3883509F047C0E0
:100FC00080E091E052D8F5DB939A69EA8AEA9AE0E8
:100FD00059DA66E585E595E055DA720166E2C20107
:100FE00051DA6FEFC2014EDA25E82A95F1F70000D9
:100FF00003E710E0C12CD12CF80161918F01C601EB
:101000008E0D9F1D3FDAFFEFCF1ADF0AC11421E0DA
:10101000D20691F73FEF531A630A730AC2019A95F9
:101020006AE230DA820101501109C8011CDA90919C
:101030007201891709F4BEC3C80115DA9DE09A95BB
:10104000F1F7000090916200913089F7B3C38A37BD
:1010500009F0BCC080E890E008D8939A69E080E28B
:1010600091E010DA6AEA81E291E00CDA65E582E269
:1010700091E008DA65EA8FE391E004DAEDE0EA95C1
:10108000F1F7000061E180E291E0FCD965EA8FE3CD
:1010900091E0F8D9FDE0FA95F1F7000061E080E019
:1010A00091E2F0D92DE02A95F1F700006FE080E29F
:1010B00091E0E8D965E585E291E0E4D965E586E26D
:1010C00091E0E0D96AEA87E291E0DCD965EA8FE352
:1010D00091E0D8D93DE03A95F1F700006FE080E269
:1010E00091E0D0D96AE285E291E0CCD96AEA86E261
:1010F00091E0C8D965E587E291E0C4D965EA8FE35C
:1011000091E0C0D98DE08A95F1F700006FE080E2B0
:1011100091E0B8D965E585E291E0B4D965E586E26C
:1011200091E0B0D960EA87E291E0ACD965EA8FE35B
:1011300091E0A8D99DE09A95F1F7000040E0609118
:10114000630080E091E2D1D7EDE0EA95F1F700008D
:1011500060E180E291E096D965EA8FE391E092D96F
:10116000FDE0FA95F1F7000068E080E291E08AD9AD
:1011700065EA8FE391E086D92DE02A95F1F700002A
:1011800003E710E083EF90E08017910779F0F80112
:1011900061918F01C20176D9FDE0FA95F1F7000067
:1011A0002FEF421A520A620A720AECCF6FEFD30194
:1011B000C2010197A109B10965D9EFE1FEE43197B8
:1011C000F1F700C0000081E34CD7A4CC893709F0C7
:1011D00048C080E290E049D7939A820168EEC2014C
:1011E00051D9E7DAC8013FD9803821F080916200F7
:1011F0008130C1F780916200811152CBDADA6FE160
:10120000C80140D923E7E22E20E0F22EC12CD12CD8
:10121000F70161917F01C601800F911F33D9FFEF64
:10122000CF1ADF0A20E2C216D10491F730E2430E52
:10123000511C611C711C82010052110960EDC80132
:1012400021D987E891E00197F1F700C00000C801BB
:101250000AD9803809F4AEC2809162008130B9F7B2
:10126000A9C28E3609F516D740E150E060E070E083
:1012700083E790E0D1D26B017C01EFD680937301BC
:101280008E3609F00DCB06D740E150E060E070E00B
:1012900083E790E0C1D2939A34BA3ABA37BAAB0135
:1012A000C701B601F2D9DBCB813711F08437F1F5F4
:1012B000939A80917301843719F000E410E002C022
:1012C00000E011E0C801D1D674DA93E7E92E90E08E
:1012D000F92E53014201F701418150E0542F442778
:1012E0008081482B4F3FFFEF5F0721F021E0C501D0
:1012F000B4011DDA2FEF821A920AA20AB20A32E072
:10130000E30EF11CC70183579040801791071CF32F
:101310008FEF481A580A680A780A01501109169581
:101320000795400E511E611C711C44C2863651F552
:10133000939A80E091E099D63CDA03E710E07301DC
:101340006201F801418150E0542F44278081482BED
:101350004F3FFFEF5F0721F020E0C701B601E7D95B
:101360002FEFC21AD20AE20AF20A0E5F1F4F83E77A
:1013700091E08017910729F790E8490E511C611CF4
:10138000711C18C28C3209F081C080E091E06DD6EA
:10139000939A0FDA34BA3ABA37BAE2E0EA95F1F73B
:1013A00000C04AEA50E065E575E080E090E06DD964
:1013B00045E550E06AEA72E080E090E066D945E2F7
:1013C00050E0C301B20161D94FE750E0C301B2015F
:1013D0005CD9F2E0FA95F1F700C0E3E7F0E0D30161
:1013E000C201AD016627772745BB492F5A2F6B2FC6
:1013F00077274BBB88BB9498000021812BBB2081B1
:1014000028BB9698000000000000969A949A0196D6
:10141000A11DB11D329623E731E02E173F0709F7D2
:101420005301420130E8830E911CA11CB11C7301D1
:1014300062018FE7C80ED11CE11CF11CC301B2018F
:101440006F5F7F4F8F4F9F4F49E250E01ED9EFE80B
:10145000F1E03197F1F700C00000009171011091A7
:101460007201C701B60175D68017910759F0C701FF
:10147000B6016FD6F2E0FA95F1F700C02091620054
:10148000213091F7A5D9240135010ACA9DE9980FA9
:10149000923008F0B9C080E091E0E7D5939A23E755
:1014A00030E03CA32BA385D934BA3ABA37BA8E01BF
:1014B0000F5F1F4FF801ABA1BCA18D91819389A152
:1014C0009AA1E817F907C9F780917301833689F467
:1014D0004AEA50E065E575E080E090E0D6D845E561
:1014E00050E06AEA72E080E090E0CFD845E250E058
:1014F00010C049EA50E065E575E080E090E0C5D8AD
:1015000046E550E06AEA72E080E090E0BED846E24C
:1015100050E0C301B201B9D84FE050E0C301B201BD
:10152000B4D892E09A95F1F700C0D301C20120E04F
:10153000AD016627772745BB492F5A2F6B2F772799
:101540004BBB88BB94980000F80131813BBB3081D4
:1015500038BB9698000000000000969A949A019675
:10156000A11DB11D2E5F0E5F1F4F203209F77301C1
:101570006201F0E1CF0ED11CE11CF11C53014201CC
:101580002FE0820E911CA11CB11C20917301C3019C
:10159000B2016F5F7F4F8F4F9F4F233619F449E29F
:1015A00050E002C04AE250E070D88FE891E0019725
:1015B000F1F700C000000F8D18A1C501B401C9D515
:1015C0008017910759F0C501B401C3D5E2E0EA954F
:1015D000F1F700C020916200213091F78091620004
:1015E000813071F02BA13CA1205E3F4F3CA32BA387
:1015F00083E791E08217930719F02601370153CF53
:10160000E7D8260137014CC98C3619F08B3309F025
:101610008EC0939A809173018B3311F081E001C0E9
:1016200084E0E82FF0E0FFA3EEA3CF0136E0880FBF
:10163000991F3A95E1F719D5BCD823E730E03CA3D0
:101640002BA3C12CD12C8EA19FA1C816D90608F0BE
:1016500065C034BA3ABA37BA40E650E0C301B201C5
:1016600014D840ED50E0C301B2010FD848EE50E06D
:10167000C301B2010AD835E83A95F1F70000C30179
:10168000B20180D880916200813009F447C034BA39
:101690003ABA37BA4FE150E0C301B201F6D70BA115
:1016A0001CA153014201E12CF12CF801418150E0D1
:1016B000542F44278081482BC501B401E6D7FFEFA2
:1016C0008F1A9F0AAF0ABF0A22E0E20EF11C0E5FDA
:1016D0001F4F30E4E316F10441F780E2480E511C3D
:1016E000611C711C40ED50E0C301B201CED7EFE6A2
:1016F000F3E03197F1F700C00000C301B20142D816
:10170000809162002BA13CA1205C3F4F3CA32BA306
:10171000813021F03FEFC31AD30A95CF34BA3ABAD9
:1017200037BA4FEF50E0C301B201AFD743C085379E
:1017300009F042C0939A80E490E097D43AD893E7B6
:10174000E92E90E0F92E5301420134BA3ABA37BA81
:10175000F701018110E0102F00278081082B40E461
:1017600050E0C501B40191D7A801C501B4018DD7DE
:10177000C501B401EED487FD0BC0C501B401E9D4A5
:10178000F5E0FA95F1F7000090916200913099F739
:101790002FEF821A920AA20AB20A32E0E30EF11C7B
:1017A00083EB90E08E159F0581F690E2490E511C67
:1017B000611C711C0DD874C8883319F4319A399A98
:1017C0006FC8893319F4319A39986AC8883611F488
:1017D00084E003C0863519F48EE143D461C88A32AF
:1017E00009F05EC857D440E150E060E070E083E764
:1017F00090E012D0613E754E8740910509F050C8C7
:1018000084B7877F84BF88E181BD8CE081BD8FEF85
:101810009FEF0197F1F744C8A0E0B0E0E1E1FCE000
:1018200078C15C016B017A016115710519F0FB014A
:1018300091838083E114F10429F0C7010297839713
:1018400008F0E2C0E5012196F5011081812F90E0BA
:1018500011D1892B11F05E01F5CF1D3229F42196AB
:10186000F501118101E007C01B3221F4E501229648
:10187000F501118100E0E114F10409F1F0E1EF1646
:10188000F10429F43EC010E3E114F10421F128E051
:10189000E216F10401F154F4E2E0EE16F10421F550
:1018A000812C912CA12CB0E4BB2E3DC0FAE0EF16A8
:1018B000F10439F020E1E216F104B1F42FC0103345
:1018C00011F1FAE0EF2EF12CACEC8A2E982CA82C1A
:1018D000ACE0BA2E28C078E0E72EF12C812C912CB8
:1018E000A12CE0E1BE2E1FC060E070E080E090E837
:1018F00097010F2C000C440B550BDED049015A0107
:1019000012C0103359F488818F7D883509F0BBCF20
:1019100019812296026080E1E82EF12C812C912C15
:10192000A12C68E0B62E40E060E070E0CB0127011A
:101930000F2C000C66087708FE0150ED352E310E95
:1019400029E0231570F42FEB210F2A3118F439EC1C
:10195000332E06C02FE9210F2A3110F529EA322E45
:10196000310E232D30E02E153F05D4F447FD15C070
:1019700086169706A806B90668F0A30192018DD0D5
:10198000630D711D811D911D61307105810520E878
:10199000920710F04FEF01C041E021961081CCCFAB
:1019A000202F2170C114D10471F0442329F0219714
:1019B000F601D183C08307C001FF19C02297F60149
:1019C000D183C08314C047FF12C0222329F060E0F6
:1019D00070E080E090E804C06FEF7FEF8FEF9FE74B
:1019E00022E230E030937E0120937D0109C0222362
:1019F00081F090958095709561957F4F8F4F9F4FA7
:101A0000462F372F282F12C040E030E020E090E032
:101A10000DC097FFF5CF82E290E090937E01809316
:101A20007D016FEF7FEF8FEF9FE7EACF642F732F7A
:101A3000822FCDB7DEB7E1E188C0FC018827992766
:101A4000E89421912032E9F3293010F02E30C8F3C8
:101A50002B3239F02D3231F4689403C013D0820F49
:101A6000911D219120532A30C8F31EF49095819541
:101A70009F4F089591110EC0803219F08950855002
:101A8000D0F708957AE0979F902D879F802D910D34
:101A900011240895992788270895DB018F939F9338
:101AA0002DD0BF91AF91A29F800D911DA39F900D4E
:101AB000B29F900D11240895A1E21A2EAA1BBB1B00
:101AC000FD010DC0AA1FBB1FEE1FFF1FA217B3070A
:101AD000E407F50720F0A21BB30BE40BF50B661F20
:101AE000771F881F991F1A9469F7609570958095E4
:101AF00090959B01AC01BD01CF01089540D0A59FF9
:101B0000900DB49F900DA49F800D911D11240895F8
:101B10002F923F924F925F926F927F928F929F92FD
:101B2000AF92BF92CF92DF92EF92FF920F931F93EB
:101B3000CF93DF93CDB7DEB7CA1BDB0B0FB6F8949C
:101B4000DEBF0FBECDBF09942A88398848885F84DC
:101B50006E847D848C849B84AA84B984C884DF804D
:101B6000EE80FD800C811B81AA81B981CE0FD11D31
:101B70000FB6F894DEBF0FBECDBFED010895A29F52
:101B8000B001B39FC001A39F01D0B29F700D811D12
:0A1B90001124911D0895F894FFCF71
:021B9A00020047
:00000001FF
