:1000000010C02AC029C028C027C026C03CC424C0B4
:1000100023C022C021C020C01FC01EC01DC01CC0E4
:100020001BC011241FBECFE5D2E0DEBFCDBF10E064
:10003000A0E6B0E0E8E5FBE102C005900D92A23633
:10004000B107D9F721E0A2E6B0E001C01D92AF37B9
:10005000B207E1F72DD47ECDD3CF5F9BFECF8CB11D
:1000600008955D9BFECF8CB908950F931F93CF9396
:10007000DF938C01C3E7D0E0CE0183579040801717
:1000800091071CF4EADF8993F7CFDF91CF911F919D
:100090000F910895CF93DF93C3E7D0E0DEDF89931C
:1000A0008111FCCFDF91CF9108953A9A949A959A55
:1000B000969A0895809173018332D9F4EBDF40E181
:1000C00050E060E070E083E790E085DB6D3C7F40CE
:1000D0008946974051F4C1DF809373018C3411F449
:1000E000D9DF03C0823409F4B8DFB7DF809373012E
:1000F000E1CF089515BA14BA18BA1BBA8FEF87BBAF
:100100008ABB08959BBB88BB0895FCDF95980000CF
:10011000000083B3959A0895F5DF949895980000B0
:10012000000083B3959A949A0895CF93DF93D62FC6
:10013000C42FE8DF8FEF84BBD5BBC13009F494989E
:1001400096980000969AC13009F4949A15BA14BA98
:10015000DF91CF91089518BA1BBA15BA8FEF87BBFC
:100160008ABB84BB08950F931F9315BA1BBA18BAA4
:100170002FEF24BB2ABB27BB8C012227332705BBCB
:10018000072F182F292F33270BBB68BB1F910F9107
:100190000895E9DF94981BBA18BA1ABA17BA959855
:1001A000000029B386B3959A949A90E0922B089513
:1001B000A9DF3A9895980000000083B3959A3A9A7F
:1001C0000895CF93C62F9EDF8FEF84BBC5BB3A98AF
:1001D000969800000000969A3A9A15BA14BACF91F0
:1001E00008958FEF87BB8ABB84BB90E898BB8BBB1D
:1001F00085BB08959498623049F4411105C0906C14
:100200002FE0E1E0F0E013C09068FACF411102C0A6
:10021000806C01C0806827E0F4CFC09896980000F9
:100220000000969A00000000215027FD0DC0BF017C
:10023000022E02C0660F771F0A94E2F76823792323
:10024000672B59F3C09AEACF411107C0C09800004C
:10025000969800000000969A949A089540E0CADFAC
:10026000C098B898949884E0959800000000959AFA
:10027000000000008150C1F7E4E7F1E041E050E008
:1002800087E090E020E0959800000000959AB09BF0
:1002900007C0BA01082E01C0660F0A94EAF7262BA0
:1002A000019788F7219381E0EC37F80749F7949A92
:1002B000C09AB89A089541E09DDFE4E7F1E048E094
:1002C00027E030E0808190E0022E02C0959587956E
:1002D0000A94E2F780FF02C0C09A01C0C0989698C5
:1002E00000000000969A000000002150310950F7EC
:1002F000415031964111E4CFC0989698000000001B
:10030000969A00000000949A0895CF93C62F2FEF7D
:1003100024BBF8DEC5BB3A98969800003A9A969AA4
:10032000CF910895CF93DF936AEA85E595E5EDDFF8
:1003300065E58AEA9AE2E9DF60E985E595E5E5DFCA
:100340008FE39CE90197F1F700C0000015BA14BAD9
:1003500080E090E02DDFC1E7D0E0888381E090E08D
:1003600027DF89836AEA85E595E5CFDF65E58AEAD7
:100370009AE2CBDF60EF85E595E5C7DF8FE39CE987
:100380000197F1F700C0000060EF80E090E0DF919E
:10039000CF91BBCFCF93C82F6AEA85E595E5B5DF4E
:1003A00065E58AEA9AE2B1DF60EB85E595E5ADDFC8
:1003B0006C2F80E090E0CF91A8CFCF93C82F6AEA4E
:1003C00085E595E5A2DF65E58AEA9AE29EDF60E8C9
:1003D00085E595E59ADF6AEA85E595E596DF65E5C9
:1003E0008AEA9AE292DF60E380E09C2F9295907F08
:1003F0008CDF8FE493EC0197F1F700C00000CF9100
:1004000008951F93CF93DF93EC01162F6AEA85E5D9
:1004100095E57BDF65E58AEA9AE277DF60EA85E5C4
:1004200095E573DF612FCE0170DF85E38A95F1F7E3
:100430000000DF91CF911F910895EF92FF920F93EB
:100440001F93CF93DF938C016AEA85E595E55DDF25
:1004500065E58AEA9AE259DF60EA85E595E555DFC8
:100460001695102F00271795079593E7E92E90E032
:10047000F92EC0E0D0E0F70161917F01CE01802B21
:10048000912B43DF2196C038D105A9F78FE39CE972
:100490000197F1F700C00000DF91CF911F910F91FC
:1004A000FF90EF90089515BA14BA2CDE95980000CD
:1004B000000083B3959A089595980000000083B3D7
:1004C000959A0895CF93C62F2FEF24BB1BDEC5BB93
:1004D00080917C01813431F43998000000000000E3
:1004E000399A0FC0823541F43A989698000000007E
:1004F0000000969A3A9A05C0969800000000000005
:10050000969A15BA14BACF9108959BBB88BB65BB68
:1005100080917C01813431F43998000000000000A2
:10052000399A0895823541F43A989698000000006F
:100530000000969A3A9A08959698000000000000EC
:10054000969A08950F931F93CF938C01C62F8FEF28
:1005500084BB609167008091650090916600D5DF53
:1005600060916B008091690090916A00CEDF60918C
:100570006F0080916D0090916E00C7DF6C2FC801F5
:10058000C4DF8DE08A95F1F7000015BA14BA94DF44
:100590008C1749F091DF92E09A95F1F700C09091A5
:1005A00062009130A9F7CF911F910F9108951F9389
:1005B000CF93DF93EC01162F80916400813051F4CA
:1005C00040E06091630080E091E2AFDD85E88A95CC
:1005D000F1F70000609167008091650090916600DE
:1005E00071DF60916B008091690090916A006ADF11
:1005F00060916F0080916D0090916E0063DF612FBC
:10060000CE0160DF83EF91E00197F1F700C00000B9
:1006100015BA14BA3A9895E89A95F1F700003A9A03
:1006200085E88A95F1F70000DF91CF911F91089539
:10063000FF920F931F93CF93DF93EC01162FFF24AC
:10064000FA94F4BA01E20BBB18BA81E085BB969824
:100650000000969A60916700809165009091660015
:1006600031DF60916B008091690090916A002ADF10
:1006700060916F0080916D0090916E0023DFF4BA5D
:100680000BBB18BA8091630085BB96980000969AC0
:10069000612FCE0117DF8AE18A95F1F700C015BA04
:1006A00014BACE0100DF811751F0CE01FCDE9DE0CF
:1006B0009A95F1F70000909162009130A1F7DF91D7
:1006C000CF911F910F91FF9008950F931F938C016D
:1006D0002227332705BB072F182F292F33270BBBC2
:1006E00068BB94985BBB48BB969800000000000074
:1006F000969A949A1F910F9108959FEF94BB9ABB7D
:1007000097BB15BA95E09BBB95E598BB94981BBA2F
:10071000811102C09AEA01C099EA98BB969800003C
:1007200000000000969A949A15BA92E09BBB9AEA50
:1007300098BB94981BBA811102C085E501C086E57B
:1007400088BB9698000000000000969A949A15BA0B
:1007500085E08BBB85E588BB94981BBA80EA88BB93
:100760009698000000000000969A949A0895CF92FF
:10077000DF92EF92FF92CF93DF936B017C01EA014E
:10078000822FBBDFAE01C701B6019FDF25E02A95AE
:10079000F1F70000C701B601FCDC8C179D0759F08A
:1007A000C701B601F6DC25E02A95F1F7000020919B
:1007B0006200213091F7DF91CF91FF90EF90DF90B1
:1007C000CF900895CF92DF92EF92FF926B017C0160
:1007D000E0DC8038910541F0C701B601DADC25E89C
:1007E0002A95F1F70000F5CFFF90EF90DF90CF90C2
:1007F0000895109262001DBC1CBC8EB583608EBD36
:100800000895109262001DBC1CBC1EBC93980895F4
:1008100080916200811104C0F4DF81E322DC9398AF
:10082000089584B7877F84BF88E181BD11BC3DDC1A
:1008300081B38C6F81BB86B1856086B915BA14BA55
:1008400018BA17BA1BBA1ABA80916000813019F42D
:10085000979A389802C0389A9798939A2FEF84E322
:100860009CE0215080409040E1F700C00000939848
:1008700019B8599A539A549A89B7806889BF1DBC90
:100880001CBC789408951F920F920FB60F921124FA
:100890008F939F9392B388E0892782BB81E08093F6
:1008A00062009F918F910F900FBE0F901F9018952F
:1008B000CF93DF93CDB7DEB7A7970FB6F894DEBF1F
:1008C0000FBECDBFAEDF21E02DA3412C512C320154
:1008D000F1E32F2E33243A94CE0181969AA389A373
:1008E000E4DBBBDB80937301833419F480916000F7
:1008F00095C0873429F4FEDB84DF10926400F0CFCA
:10090000873609F461C1833339F4929882E0809389
:100910006000389A9798E4CF853339F4929A81E051
:1009200080936000979A3898DBCF813459F4B2DB1A
:1009300040E150E060E070E083E790E04CD72B01AD
:100940003C01CECF823599F5D5DB209273018091A1
:100950007301813329F6939AD301C2018827907BD2
:10096000AA27BB2700E010E0892B8A2B8B2B59F09C
:10097000C801840D951DD0DB74DB0F5F1F4F003461
:100980001105B1F70AC0C801840D951DBEDB69DBF6
:100990000F5F1F4F00341105B1F793985EDB809312
:1009A000730190E4490E511C611C711CD0CF81353C
:1009B000A1F4A0DB939A00E010E0C801840D951D1E
:1009C000A4DB4FDB0F5F1F4F0115E0E41E07A9F703
:1009D000F0E45F0E611C711CB3C0873509F58ADB3A
:1009E00080E490E042DB939AE3E7EE2EE0E0FE2E17
:1009F00000E010E0F70161917F01C801840D951DB1
:100A000041E093DB0F5F1F4F0034110599F7F0E4CD
:100A10004F0E511C611C711C939881E322DB60CF47
:100A2000823411F0883421F565DB34DB40E150E09D
:100A300060E070E083E790E0CED66B017C010DDBD7
:100A400080937301823419F0883409F049CF22DB96
:100A500083E790E0D1D7682F809363008091730182
:100A6000823411F440E001C041E0C6015EDB38CFC2
:100A70008D3269F4939A3A982FE738E381E0215058
:100A800030408040E1F700C000003A9AC5CF82377D
:100A900011F08A36B9F55FDB809173018A3611F067
:100AA00010E201C010E820927301CC24CA94C10E58
:100AB000D12CE12CF12C9FEFC91AD90AE90AF90AC5
:100AC00080917301813309F00BCF939A5301420156
:100AD000C501B4015EDB092FC4DA802FC2DAEFEF63
:100AE0008E1A9E0AAE0ABE0A882D8419811780F3D9
:100AF0004C0C5D1C6E1C7F1C9398AFDA80937301C5
:100B0000D9DADECF8A35F1F426DB939AC301B2013C
:100B10002ADB94981BBA18BA1ABA17BA00E010E088
:100B200017FD0AC09598000086B39BDA89B399DA5D
:100B3000959A0F5F1F4FF4CFF0E85F0E611C711C98
:100B40009398CECE8D36F9F4D5DA20927301809148
:100B500073018133C9F5939A00E010E0C801840D58
:100B6000951D26DB7EDA0F5F1F4F00341105B1F7AC
:100B700020E4420E511C611C711C93986EDA809324
:100B8000730198DAE4CF873709F5B4DA80E490E0AE
:100B90006CDA939A73E7E72E70E0F72E00E010E02E
:100BA000F70161917F01C801840D951D0ADB0F5F7C
:100BB0001F4F00341105A1F7F0E44F0E511C611CCA
:100BC000711C81E34EDA9398C6DA8ACE8F3631F4FF
:100BD00091DA43DA682FC201F4DA23C0893649F486
:100BE00089DAA0DB809171003CDA8091720039DAF9
:100BF000EBCF8B3649F44EDA83E790E0FDD6182F21
:100C000079DA812FC7DBE0CF833769F473DA42DA10
:100C100040E150E060E070E083E790E0DCD5862FB3
:100C2000CCDB81E3E4CF8236C1F464DA80E490E087
:100C30001CDA939A63E7E62E60E0F62E00E010E0FF
:100C4000F70161917F01C801840D951DDADB0F5F0B
:100C50001F4F00341105A1F7AFCF813669F44ADA8E
:100C600080E890E002DA939AC201E7DB2FEF421AA4
:100C7000520A620A720AA5CF833551F40BDA40E1B9
:100C800050E060E070E083E790E0A5D56DA328CE4A
:100C9000853611F5A6DA20927301809173018133B4
:100CA00009F092CF939A6DA1C201D8DA04E711E05E
:100CB000F80181918F01D5D92CE731E02017310758
:100CC000B9F73FEF431A530A630A730A9398C5D9D9
:100CD00080937301EFD9E1CF8037E1F482DA04E742
:100CE00011E0BBD9F80181938F012CE731E02E1779
:100CF0003F07B9F7939A6DA1C201DDDA3FEF431ABE
:100D0000530A630A730A8FE79EE30197F1F700C065
:100D1000000057CF803549F4A0D980937C018134FD
:100D200009F0DECD319A399ADBCD8E3421F481E0A1
:100D300080936400D5CD853419F505E610E0AAD975
:100D400040E150E060E070E083E790E044D5F801D6
:100D50007183608381E385D99DD940E150E060E0F3
:100D600070E083E790E037D5F8017383628381E315
:100D700078D90C5F1F4FF0E001371F0701F7B0CDA6
:100D80008634B1F487D940E150E060E070E083E759
:100D900090E021D56B017C017DD940E150E060E01D
:100DA00070E083E790E017D5939AC6018BDB34CED1
:100DB000843531F08B3709F03FC000E011E002C00C
:100DC00000E410E0C80151D914DD939A80916400C9
:100DD00053E7E52E50E0F52EC12CD12C811115C022
:100DE000F70161917F016F3F21F0C601840D951DD0
:100DF000A9DBFFEFCF1ADF0A0C151D0589F73FEFBE
:100E0000431A530A630A730A14C0F70161917F0100
:100E10006F3F21F0C601840D951D0ADCFFEFCF1A4C
:100E2000DF0A0C151D0589F72FEF421A520A620AD4
:100E3000720A0150110943C2893509F04EC080E29F
:100E400090E013D9D6DC939A6AEA8AEA9AE03ADB10
:100E500065E585E595E036DB720165E2C20132DBCE
:100E60006FE1C2012FDB82E08A95F1F700C003E752
:100E700010E0C12CD12CF80161918F01C6018E0DBB
:100E80009F1D20DBFFEFCF1ADF0A20E2C216D1043C
:100E900091F730E2430E511C611C711CC201809716
:100EA00069E210DB8FE891E00197F1F700C00000E4
:100EB000820101501109C801F6DA90919200891758
:100EC00009F446C4C801EFDA9DE09A95F1F70000F5
:100ED00090916200913089F73BC48A34F1F480E448
:100EE00090E0C3D8939A43E7E42E40E0F42E00E06C
:100EF00010E0F70161917F016F3F21F0C801840D7F
:100F0000951D55DB0F5F1F4F0034110591F7F0E47D
:100F10004F0E511C611C711C6FC1853509F066C0F4
:100F200080E091E0A2D865DC939A23E7E22E20E0EE
:100F3000F22E38E0932E9E012F5F3F4F6901F90199
:100F4000D7018D91819329A13AA1E217F307C9F73F
:100F50006AEA8AEA9AE0B6DA65E585E595E0B2DA0A
:100F6000520165E2C201AEDA6FE1C201ABDA32E0F2
:100F70003A95F1F700C000E010E0F60161916F01D1
:100F8000C8018A0D9B1D9EDA0F5F1F4F00321105AD
:100F9000A1F7F0E24F0E511C611C711CC201809739
:100FA00069E290DA8FE891E00197F1F700C0000064
:100FB000820101501109C80176DA98A1891751F010
:100FC000C80171DA9DE09A95F1F7000090916200F6
:100FD000913099F780916200813009F4B9C39A94F5
:100FE000E0E2EE0EF11C9110A6CFB2C3883509F0F5
:100FF00047C080E091E039D8FCDB939A69EA8AEA3D
:101000009AE060DA66E585E595E05CDA720166E211
:10101000C20158DA6FEFC20155DA35E83A95F1F7B7
:10102000000003E710E0C12CD12CF80161918F0181
:10103000C6018E0D9F1D46DAFFEFCF1ADF0AC114DD
:1010400021E0D20691F73FEF531A630A730AC201F7
:101050009A956AE237DA820101501109C80123DA50
:1010600090917201891709F473C3C8011CDA9DE0DD
:101070009A95F1F7000090916200913089F768C36A
:101080008A3709F0BCC080E890E0EFD7939A69E016
:1010900080E291E017DA6AEA81E291E013DA65E52D
:1010A00082E291E00FDA65EA8FE391E00BDAEDE09E
:1010B000EA95F1F7000061E180E291E003DA65EA88
:1010C0008FE391E0FFD9FDE0FA95F1F7000061E0D0
:1010D00080E091E2F7D92DE02A95F1F700006FE06A
:1010E00080E291E0EFD965E585E291E0EBD965E535
:1010F00086E291E0E7D96AEA87E291E0E3D965EA1E
:101100008FE391E0DFD93DE03A95F1F700006FE021
:1011100080E291E0D7D96AE285E291E0D3D96AEA28
:1011200086E291E0CFD965E587E291E0CBD965EA27
:101130008FE391E0C7D98DE08A95F1F700006FE069
:1011400080E291E0BFD965E585E291E0BBD965E534
:1011500086E291E0B7D960EA87E291E0B3D965EA27
:101160008FE391E0AFD99DE09A95F1F7000040E060
:101170006091630080E091E2D8D7EDE0EA95F1F765
:10118000000060E180E291E09DD965EA8FE391E0A3
:1011900099D9FDE0FA95F1F7000068E080E291E06E
:1011A00091D965EA8FE391E08DD92DE02A95F1F789
:1011B000000003E710E083EF90E08017910779F0DB
:1011C000F80161918F01C2017DD9FDE0FA95F1F737
:1011D00000002FEF421A520A620A720AECCF6FEF38
:1011E000D301C2010197A109B1096CD9EFE1FEE475
:1011F0003197F1F700C0000081E333D7A1CC8E36E0
:1012000009F548D740E150E060E070E083E790E006
:10121000E2D26B017C0121D7809373018E3609F0F5
:101220005FCB38D740E150E060E070E083E790E0CA
:10123000D2D2939A34BA3ABA37BAAB01C701B601DF
:1012400044DAEACB813711F08437F1F5939A809133
:101250007301843719F000E410E002C000E011E0EF
:10126000C80103D7C6DA93E7E92E90E0F92E5301BF
:101270004201F701418150E0542F44278081482BDF
:101280004F3FFFEF5F0721F021E0C501B4016FDAA6
:101290002FEF821A920AA20AB20A32E0E30EF11C80
:1012A000C70183579040801791071CF38FEF481AAE
:1012B000580A680A780A0150110916950795400ED8
:1012C000511E611C711C44C2863651F5939A80E010
:1012D00091E0CBD68EDA03E710E073016201F801EA
:1012E000418150E0542F44278081482B4F3FFFEF2E
:1012F0005F0721F020E0C701B60139DA2FEFC21AEB
:10130000D20AE20AF20A0E5F1F4F83E791E08017CC
:10131000910729F790E8490E511C611C711C18C2F5
:101320008C3209F081C080E091E09FD6939A61DA17
:1013300034BA3ABA37BAE2E0EA95F1F700C04AEABD
:1013400050E065E575E080E090E0BFD945E550E00C
:101350006AEA72E080E090E0B8D945E250E0C3016B
:10136000B201B3D94FE750E0C301B201AED9F2E008
:10137000FA95F1F700C0E3E7F0E0D301C201AD0157
:101380006627772745BB492F5A2F6B2F77274BBBF3
:1013900088BB9498000021812BBB208128BB9698A4
:1013A000000000000000969A949A0196A11DB11DBC
:1013B000329623E731E02E173F0709F75301420128
:1013C00030E8830E911CA11CB11C730162018FE7F0
:1013D000C80ED11CE11CF11CC301B2016F5F7F4F2D
:1013E0008F4F9F4F49E250E070D9EFE8F1E031971D
:1013F000F1F700C000000091710110917201C70166
:10140000B601C7D68017910759F0C701B601C1D6FA
:10141000F2E0FA95F1F700C020916200213091F7D7
:10142000F7D9240135015CCA9DE9980F923008F084
:10143000B9C080E091E019D6939A23E730E03CA34D
:101440002BA3D7D934BA3ABA37BA8E010F5F1F4FE0
:10145000F801ABA1BCA18D91819389A19AA1E81754
:10146000F907C9F780917301833689F44AEA50E09D
:1014700065E575E080E090E028D945E550E06AEA4E
:1014800072E080E090E021D945E250E010C049EAE6
:1014900050E065E575E080E090E017D946E550E062
:1014A0006AEA72E080E090E010D946E250E0C301C1
:1014B000B2010BD94FE050E0C301B20106D992E06E
:1014C0009A95F1F700C0D301C20120E0AD01662773
:1014D000772745BB492F5A2F6B2F77274BBB88BBEC
:1014E00094980000F80131813BBB308138BB96985D
:1014F000000000000000969A949A0196A11DB11D6B
:101500002E5F0E5F1F4F203209F773016201F0E179
:10151000CF0ED11CE11CF11C530142012FE0820EC1
:10152000911CA11CB11C20917301C301B2016F5F1A
:101530007F4F8F4F9F4F233619F449E250E002C08E
:101540004AE250E0C2D88FE891E00197F1F700C07D
:1015500000000F8D18A1C501B4011BD6801791079B
:1015600059F0C501B40115D6E2E0EA95F1F700C0E3
:1015700020916200213091F780916200813071F0FA
:101580002BA13CA1205E3F4F3CA32BA383E791E01E
:101590008217930719F02601370153CF39D9260155
:1015A00037019EC98C3619F08B3309F08EC0939A9F
:1015B000809173018B3311F081E001C084E0E82F4A
:1015C000F0E0FFA3EEA3CF0136E0880F991F3A9514
:1015D000E1F74BD50ED923E730E03CA32BA3C12C78
:1015E000D12C8EA19FA1C816D90608F065C034BAC7
:1015F0003ABA37BA40E650E0C301B20166D840EDCE
:1016000050E0C301B20161D848EE50E0C301B2011D
:101610005CD835E83A95F1F70000C301B201D2D8A1
:1016200080916200813009F447C034BA3ABA37BABF
:101630004FE150E0C301B20148D80BA11CA15301F6
:101640004201E12CF12CF801418150E0542F442754
:101650008081482BC501B40138D8FFEF8F1A9F0A4B
:10166000AF0ABF0A22E0E20EF11C0E5F1F4F30E40A
:10167000E316F10441F780E2480E511C611C711C15
:1016800040ED50E0C301B20120D8EFE6F3E031971E
:10169000F1F700C00000C301B20194D8809162004C
:1016A0002BA13CA1205C3F4F3CA32BA3813021F018
:1016B0003FEFC31AD30A95CF34BA3ABA37BA4FEFCD
:1016C00050E0C301B20101D843C0853709F042C0E0
:1016D000939A80E490E0C9D48CD893E7E92E90E007
:1016E000F92E5301420134BA3ABA37BAF7010181EF
:1016F00010E0102F00278081082B40E450E0C50146
:10170000B401E3D7A801C501B401DFD7C501B40115
:1017100040D587FD0BC0C501B4013BD5F5E0FA9576
:10172000F1F7000090916200913099F72FEF821A43
:10173000920AA20AB20A32E0E30EF11C83EB90E0B7
:101740008E159F0581F690E2490E511C611C711C9B
:101750005FD8C6C8883611F48AE560C9863511F4A9
:101760008EE15CC98A32D1F495D440E150E060E06A
:1017700070E083E790E02FD0613E754E8740910581
:1017800009F0AEC884B7877F84BF88E181BD8CE053
:1017900081BD8FEF9FEF0197F1F7A2C8833209F067
:1017A0009FC878D440E150E060E070E083E790E0CB
:1017B00012D06D3C7F408946974009F091C84DD4C6
:1017C000809373018C3411F465D48AC8823409F093
:1017D00087C843D485C8A0E0B0E0E0EFFBE078C163
:1017E0005C016B017A016115710519F0FB019183B0
:1017F0008083E114F10429F0C7010297839708F070
:10180000E2C0E5012196F5011081812F90E011D110
:10181000892B11F05E01F5CF1D3229F42196F501D7
:10182000118101E007C01B3221F4E5012296F50188
:10183000118100E0E114F10409F1F0E1EF16F10487
:1018400029F43EC010E3E114F10421F128E0E2168E
:10185000F10401F154F4E2E0EE16F10421F5812CDB
:10186000912CA12CB0E4BB2E3DC0FAE0EF16F104A0
:1018700039F020E1E216F104B1F42FC0103311F178
:10188000FAE0EF2EF12CACEC8A2E982CA82CACE0D0
:10189000BA2E28C078E0E72EF12C812C912CA12CB7
:1018A000E0E1BE2E1FC060E070E080E090E89701AC
:1018B0000F2C000C440B550BDED049015A0112C00D
:1018C000103359F488818F7D883509F0BBCF198199
:1018D0002296026080E1E82EF12C812C912CA12C23
:1018E00068E0B62E40E060E070E0CB0127010F2CED
:1018F000000C66087708FE0150ED352E310E29E008
:10190000231570F42FEB210F2A3118F439EC332E04
:1019100006C02FE9210F2A3110F529EA322E310EA7
:10192000232D30E02E153F05D4F447FD15C0861653
:101930009706A806B90668F0A30192018DD0630D41
:10194000711D811D911D61307105810520E892078F
:1019500010F04FEF01C041E021961081CCCF202F35
:101960002170C114D10471F0442329F02197F601AC
:10197000D183C08307C001FF19C02297F601D1832C
:10198000C08314C047FF12C0222329F060E070E03A
:1019900080E090E804C06FEF7FEF8FEF9FE722E2D7
:1019A00030E030937E0120937D0109C0222381F035
:1019B00090958095709561957F4F8F4F9F4F462FE3
:1019C000372F282F12C040E030E020E090E00DC01B
:1019D00097FFF5CF82E290E090937E0180937D01A6
:1019E0006FEF7FEF8FEF9FE7EACF642F732F822F88
:1019F000CDB7DEB7E1E188C0FC0188279927E894DC
:101A000021912032E9F3293010F02E30C8F32B3227
:101A100039F02D3231F4689403C013D0820F911D38
:101A2000219120532A30C8F31EF4909581959F4F41
:101A3000089591110EC0803219F089508550D0F769
:101A400008957AE0979F902D879F802D910D112406
:101A50000895992788270895DB018F939F932DD0B0
:101A6000BF91AF91A29F800D911DA39F900DB29F3A
:101A7000900D11240895A1E21A2EAA1BBB1BFD0193
:101A80000DC0AA1FBB1FEE1FFF1FA217B307E4075D
:101A9000F50720F0A21BB30BE40BF50B661F771FB5
:101AA000881F991F1A9469F7609570958095909595
:101AB0009B01AC01BD01CF01089540D0A59F900DC1
:101AC000B49F900DA49F800D911D112408952F9215
:101AD0003F924F925F926F927F928F929F92AF92BE
:101AE000BF92CF92DF92EF92FF920F931F93CF930B
:101AF000DF93CDB7DEB7CA1BDB0B0FB6F894DEBFA2
:101B00000FBECDBF09942A88398848885F846E84C7
:101B10007D848C849B84AA84B984C884DF80EE8011
:101B2000FD800C811B81AA81B981CE0FD11D0FB61A
:101B3000F894DEBF0FBECDBFED010895A29FB001A6
:101B4000B39FC001A39F01D0B29F700D811D1124CE
:081B5000911D0895F894FFCFE8
:021B5800020089
:00000001FF
