:1000000010C01FC01EC01DC01CC01BC01AC019C01C
:1000100018C017C016C015C014C013C012C011C03C
:1000200010C011241FBECFE5D2E0DEBFCDBF21E05E
:10003000A0E6B0E001C01D92AC37B207E1F7B4D33F
:1000400056CBDECF5F9BFECF8CB108955D9BFECF7C
:100050008CB908950F931F93CF93DF938C01C0E762
:10006000D0E0CE0180579040801791071CF4EADF62
:100070008993F7CFDF91CF911F910F910895CF937F
:10008000DF93C0E7D0E0DEDF89938111FCCFDF9101
:10009000CF9108953A9A949A959A969A089515BA96
:1000A00014BA18BA1BBA8FEF87BB8ABB08959BBBE3
:1000B00088BB0895FCDF949895980000000083B3F6
:1000C000959A949A0895CF93DF93D62FC42FEFDF9C
:1000D0008FEF84BBD5BB9698C13009F4949800008B
:1000E000C13009F4949A969A15BA14BADF91CF9157
:1000F000089518BA1BBA15BA8FEF87BB8ABB84BBA9
:1001000008950F931F9315BA1BBA18BA2FEF24BB8B
:100110002ABB27BB8C012227332705BB072F182FAB
:10012000292F33270BBB68BB1F910F910895E9DF7F
:1001300094981BBA18BA1ABA17BA9598000029B33E
:1001400086B3959A949A90E0922B0895B0DF959893
:100150003A980000000083B33A9A959A0895CF9395
:10016000C62FA5DF8FEF84BBC5BB96983A980000D9
:1001700000003A9A969A15BA14BACF9108958FEF63
:1001800087BB8ABB84BB90E898BB8BBB85BB0895BB
:100190009498623049F4411105C0906C2FE0E1E081
:1001A000F0E013C09068FACF411102C0806C01C02A
:1001B000806827E0F4CFC098969800000000969AD7
:1001C00000000000215027FD0DC0BF01022E02C01B
:1001D000660F771F0A94E2F768237923672B59F398
:1001E000C09AEACF411107C0C0980000969800005D
:1001F0000000969A949A089540E0CADFC098B89893
:10020000949884E0959800000000959A0000000002
:100210008150C1F7E1E7F1E041E050E087E090E094
:1002200020E0959800000000959AB09B07C0BA01A5
:10023000082E01C0660F0A94EAF7262B019788F76B
:10024000219381E0E937F80749F7949AC09AB89A60
:10025000089541E09DDFE1E7F1E048E027E030E08C
:10026000808190E0022E02C0959587950A94E2F76E
:1002700080FF02C0C09A01C0C0989698000000009C
:10028000969A000000002150310950F741503196F4
:100290004111E4CFC098969800000000969A0000A3
:1002A0000000949A0895CF93C62F2FEF24BBFFDE52
:1002B000C5BB96983A980000969A3A9ACF910895BD
:1002C000CF93DF936AEA85E595E5EDDF65E58AEA98
:1002D0009AE2E9DF60E985E595E5E5DF8FE39CE9F2
:1002E0000197F1F700C0000015BA14BA80E090E061
:1002F0002DDFCEE6D0E0888381E090E027DF8983A0
:100300006AEA85E595E5CFDF65E58AEA9AE2CBDF23
:1003100060EF85E595E5C7DF8FE39CE90197F1F78D
:1003200000C00000DF91CF910895CF93C82F6AEAF3
:1003300085E595E5B8DF65E58AEA9AE2B4DF60EB2A
:1003400085E595E5B0DF6C2F80E090E0CF91ABCFF5
:10035000CF93C82F6AEA85E595E5A5DF65E58AEACA
:100360009AE2A1DF60E885E595E59DDF6AEA85E52B
:1003700095E599DF65E58AEA9AE295DF60E380E03A
:100380009C2F9295907F8FDF8FE493EC0197F1F78C
:1003900000C00000CF9108951F93CF93DF93EC012D
:1003A000162F6AEA85E595E57EDF65E58AEA9AE239
:1003B0007ADF60EA85E595E576DF612FCE0173DFB0
:1003C00085E38A95F1F70000DF91CF911F910895A1
:1003D000EF92FF920F931F93CF93DF938C016AEA02
:1003E00085E595E560DF65E58AEA9AE25CDF60EA2B
:1003F00085E595E558DF1695102F00271795079589
:1004000090E7E92E90E0F92EC0E0D0E0F70161918D
:100410007F01CE01802B912B46DF2196C038D1057C
:10042000A9F78FE39CE90197F1F700C00000DF9185
:10043000CF911F910F91FF90EF90089515BA14BAC4
:1004400036DE95980000000083B3959A0895CF9307
:10045000C62F2FEF24BB2BDEC5BB809179018134E1
:1004600031F43998000000000000399A05C09698D0
:10047000000000000000969A15BA14BACF910895B2
:100480001F93CF93DF93EC01162F6091640080914E
:10049000620090916300DBDF6091680080916600EC
:1004A00090916700D4DF60916C0080916A00909118
:1004B0006B00CDDF612FCE01CADF8AE18A95F1F7AB
:1004C00000C015BA14BACE01B9DF811739F0CE01D8
:1004D000B5DF9DE09A95F1F70000F7CFDF91CF915E
:1004E0001F9108951F93CF93DF93EC01162F8091F6
:1004F0006100813051F440E06091600080E091E261
:10050000E2DD85E88A95F1F7000060916400809152
:100510006200909163009BDF6091680080916600AB
:100520009091670094DF60916C0080916A009091D7
:100530006B008DDF612FCE018ADF83EF91E00197A1
:10054000F1F700C0000015BA14BA3A9895E89A95E8
:10055000F1F700003A9A85E88A95F1F70000DF91FB
:10056000CF911F910895FF920F931F93CF93DF9325
:10057000EC01162FFF24FA94F4BA01E20BBB18BA6F
:1005800081E085BB96980000969A60916400809106
:100590006200909163005BDF60916800809166006B
:1005A0009091670054DF60916C0080916A00909197
:1005B0006B004DDFF4BA0BBB18BA8091600085BBAD
:1005C00096980000969A612FCE0141DF8AE18A95C4
:1005D000F1F700C015BA14BACE0130DF811739F037
:1005E000CE012CDF9DE09A95F1F70000F7CFDF9167
:1005F000CF911F910F91FF9008950F931F938C013E
:100600002227332705BB072F182F292F33270BBB92
:1006100068BB94985BBB48BB969800000000000044
:10062000969A949A1F910F9108958FEF84BB8ABB7D
:1006300087BB15BA95E09BBB85E588BB94981BBA30
:1006400029EA28BB9698000000000000969A949A28
:1006500015BA22E02BBB2AEA28BB94981BBA26E5E0
:1006600028BB9698000000000000969A949A15BA4C
:100670009BBB88BB94981BBA80EA88BB9698000005
:1006800000000000969A949A08958FEF84BB8ABB6D
:1006900087BB15BA95E09BBB85E588BB94981BBAD0
:1006A0002AEA28BB9698000000000000969A949AC7
:1006B00015BA32E03BBB28BB94981BBA88BB96980E
:1006C000000000000000969A949A15BA9BBB88BB64
:1006D00094981BBA80EA88BB96980000000000003E
:1006E000969A949A0895CF92DF92EF92FF92CF93C9
:1006F000DF936B017C01EA01211102C0C6DF01C05A
:1007000094DFAE01C701B60178DF25E02A95F1F745
:100710000000C701B6010BDD8C179D0741F0C70132
:10072000B60105DD25E02A95F1F70000F5CFDF9150
:10073000CF91FF90EF90DF90CF90089584B7877F9F
:1007400084BF88E181BD11BCA5DC81B3886F81BB0A
:1007500086B1856086B915BA14BA18BA17BA1BBA29
:100760001ABA829B0EC0979A38983A982FE788E376
:1007700091E0215080409040E1F700C000003A9A9B
:1007800002C0389A9798939A2FEF84E39CE0215007
:1007900080409040E1F700C00000939819B8599A42
:1007A000539A549A78940895C9DF22242394D1E06F
:1007B000C12CD12C760181E3382ECFEF21E022121B
:1007C00001C068DC3FDC80937001829B04C0979A73
:1007D000389881E003C0389A979882E09091700130
:1007E000933409F4A6C5973411F459DCE7CF973652
:1007F00009F4E6C0913459F442DC40E150E060E095
:1008000070E080E790E0B4D56B017C01D7CF9235E2
:10081000F1F445DC3092700180917001813371F602
:10082000939A00E010E0C8018C0D9D1D43DC0EDCA6
:100830000F5F1F4F00341105B1F780E4C80ED11CC3
:10084000E11CF11C9398FEDB80937001E5CF973596
:10085000F1F425DC80E490E0FDDB939A00E7A02E24
:1008600000E0B02E00E010E0F50161915F01C801E9
:100870008C0D9D1D41E027DC0F5F1F4F00341105DB
:1008800099F7F0E4CF0ED11CE11CF11C57C3923450
:10089000E1F405DCF4DB40E150E060E070E080E78B
:1008A00090E066D54B015C01CDDB80937001823412
:1008B00009F084CFE4DB80E790E06BD680936000A2
:1008C00040E0682FC401FFDB79CF923711F09A36F0
:1008D000B1F50FDC809170018A3611F410E801C087
:1008E00010E23092700188248A94810E912CA12C00
:1008F000B12C2FEF821A920AA20AB20A80917001DB
:10090000813309F05BCF939A26013701C301B2010D
:100910000EDC092F9BDB802F99DB8FEF481A580ADA
:10092000680A780A842D8C19811780F3C80CD91CA9
:10093000EA1CFB1C939886DB80937001DFCF9D3609
:10094000F1F4ADDB30927001809170018133C1F51B
:10095000939A00E010E0C8018C0D9D1DF7DB76DB5B
:100960000F5F1F4F00341105B1F790E4C90ED11C81
:10097000E11CF11C939866DB80937001E5CF9737FB
:1009800009F58DDB80E490E065DB939A10E7A12EFA
:1009900010E0B12E00E010E0F50161915F01C801A7
:1009A0008C0D9D1DDCDB0F5F1F4F00341105A1F77F
:1009B000F0E4CF0ED11CE11CF11C81E347DB9398DE
:1009C00098DBFCCE9F3631F46ADB3CDB682FC60136
:1009D000C6DB23C0993649F462DB72DC80916E007D
:1009E00035DB80916F0032DBEBCF9B3649F447DB80
:1009F00080E790E0CED5182F52DB812F96DCE0CF38
:100A0000933769F44CDB3BDB40E150E060E070E0A1
:100A100080E790E0ADD4862F9BDC81E3E4CF923673
:100A2000C1F43DDB80E490E015DB939AB0E7AB2E98
:100A3000B0E0BB2E00E010E0F50161915F01C8015C
:100A40008C0D9D1DA9DC0F5F1F4F00341105A1F710
:100A5000AFCF913669F423DB80E890E0FBDA939A1C
:100A6000C601B6DC2FEFC21AD20AE20AF20AA5CFFB
:100A7000933551F404DB40E150E060E070E080E742
:100A800090E076D4D62F9ACE953609F578DB309261
:100A9000700180917001813309F092CF939A6D2F8C
:100AA000C601AADB01E711E0F80181918F01CEDADE
:100AB00089E791E080179107B9F79FEFC91AD90A22
:100AC000E90AF90A9398BEDA80937001E2CF903771
:100AD000E1F455DB01E711E0B5DAF80181938F010C
:100AE00089E791E08E179F07B9F7939A6D2FC6019A
:100AF000B0DB9FEFC91AD90AE90AF90AEFE7FEE36A
:100B00003197F1F700C0000058CF903549F49ADAD8
:100B100080937901813409F051CE319A399A4ECEC1
:100B20009E3421F4F1E0F093610048CE953419F53C
:100B300002E610E0A4DA40E150E060E070E080E717
:100B400090E016D4F8017183608381E37FDA97DA4D
:100B500040E150E060E070E080E790E009D4F80107
:100B60007383628381E372DA0C5F1F4FF0E00E360D
:100B70001F0701F723CE9634B1F481DA40E150E04B
:100B800060E070E080E790E0F3D34B015C0177DA3E
:100B900040E150E060E070E080E790E0E9D3939AB4
:100BA000C40155DCCBC1943569F580E490E052DA9C
:100BB000939A80916100A0E7AA2EA0E0BA2E00E0EF
:100BC00010E0811115C0F50161915F016F3F21F0C7
:100BD000C8018C0D9D1D54DC0F5F1F4F00341105A3
:100BE00091F782C00F5F1F4F0034110509F47CC0DC
:100BF000F50161915F016F3FA9F3C8018C0D9D1D47
:100C0000B2DCF0CF993509F055C080E290E022DAED
:100C1000939A6AEA8AEA9AE01ADC65E585E595E046
:100C200016DC560165E2C60112DC6FE1C6010FDC7D
:100C300022E02A95F1F700C000E710E0812C912C0A
:100C4000F80161918F01C4018A0D9B1D00DCFFEF4B
:100C50008F1A9F0A20E28216910491F780E2C80E53
:100C6000D11CE11CF11CC601809769E2F0DBEFE8C2
:100C7000F1E03197F1F700C0000086010150110941
:100C8000C801DCDBF8ECBF2E90918F00891709F4C6
:100C900074C2C801D3DBFDE0FA95F1F70000BA9405
:100CA000B110F2CF2FEF84E39CE0215080409040C0
:100CB000E1F71FC19A34F1F480E490E0CBD9939A24
:100CC000E0E7AE2EE0E0BE2E00E010E0F50161911D
:100CD0005F016F3F21F0C8018C0D9D1D03DC0F5F8C
:100CE0001F4F0034110591F7F0E4CF0ED11CE11C29
:100CF000F11C43C2983509F042C080E091E0AAD9C6
:100D0000939A69EA8AEA9AE0A2DB66E585E595E0CE
:100D10009EDB560166E2C6019ADB6FEFC60197DBE8
:100D200025E82A95F1F7000000E710E0812C912CCE
:100D3000F80161918F01C4018A0D9B1D88DBFFEFD3
:100D40008F1A9F0A811421E0920691F78FEFD81A2B
:100D5000E80AF80AC6019A956AE279DB8601015031
:100D60001109C8016BDB90916F01891709F405C265
:100D7000C80164DB9DE09A95F1F70000F4CF9A3545
:100D800009F0BAC080E890E065D9939A69E080E202
:100D900091E05DDB6AEA81E291E059DB65E582E2A0
:100DA00091E055DB65EA8FE391E051DBEDE0EA95F8
:100DB000F1F7000061E180E291E049DB65EA8FE351
:100DC00091E045DBFDE0FA95F1F7000061E080E09D
:100DD00091E23DDB2DE02A95F1F700006FE080E223
:100DE00091E035DB65E585E291E031DB65E586E2A2
:100DF00091E02DDB6AEA87E291E029DB65EA8FE387
:100E000091E025DB8DE08A95F1F700006FE080E24C
:100E100091E01DDB6AE285E291E019DB6AEA86E295
:100E200091E015DB65E587E291E011DB65EA8FE390
:100E300091E00DDB9DE09A95F1F700006FE080E214
:100E400091E005DB65E585E291E001DB65E586E2A1
:100E500091E0FDDA60EA87E291E0F9DA65EA8FE392
:100E600091E0F5DAEDE0EA95F1F7000040E06091FD
:100E7000600080E091E227D9FDE0FA95F1F70000EB
:100E800060E180E291E0E3DA65EA8FE391E0DFDAA6
:100E90002DE02A95F1F7000068E080E291E0D7DAD2
:100EA00065EA8FE391E0D3DA8DE08A95F1F70000EF
:100EB00000E710E080EF90E08017910779F0F801EB
:100EC00061918F01C601C3DAFDE0FA95F1F70000E8
:100ED0002FEFC21AD20AE20AF20AECCF6FEFD70163
:100EE000C6010197A109B109B2DAEFE1FEE4319739
:100EF000F1F700C0000041C19E3619F5C0D840E1AD
:100F000050E060E070E080E790E032D24B015C019D
:100F100099D8809370018E3609F050CCB0D840E15A
:100F200050E060E070E080E790E022D2939AC4BB8A
:100F3000CABBC7BBAB01C501B4015FDB939881E3BA
:100F4000F8C1913711F09437E9F5939A80917001C7
:100F5000843719F400E011E002C000E410E0C80199
:100F600079D870E7A72E70E0B72E26013701F5017A
:100F7000418150E0542F44278081482B4F3FFFEFA1
:100F80005F0721F021E0C301B201ADDB2FEF421A70
:100F9000520A620A720A82E0A80EB11CC50180578B
:100FA0009040801791071CF39FEFC91AD90AE90AEC
:100FB000F90A0150110916950795C00ED11EE11CC2
:100FC000F11CDBC0963641F5939A80E091E042D85F
:100FD00000E710E046015701F801418150E0542F2D
:100FE00044278081482B4F3FFFEF5F0721F020E02F
:100FF000C501B40178DB2FEF821A920AA20AB20A65
:101000000E5F1F4F81E00037180731F790E8C90ED7
:10101000D11CE11CF11CB1C09C3609F070C0939A40
:1010200080E490E017D8C4BBCABBC7BB40E650E021
:10103000C701B601E2DA40ED50E0C701B601DDDAE2
:1010400048EE50E0C701B601D8DAE5E8EA95F1F7D5
:101050000000C701B6016BD88038910541F0C70187
:10106000B60165D8F5E8FA95F1F70000F5CFC4BBF5
:10107000CABBC7BB4FE150E0C701B601BEDA00E70B
:1010800010E046015701F801418150E0542F4427F8
:101090008081482BC501B401B0DAFFEF8F1A9F0A97
:1010A000AF0ABF0A0E5F1F4F20E0003B120759F73F
:1010B00080E2C80ED11CE11CF11C40ED50E0C701DC
:1010C000B6019BDAEFE6F3E03197F1F700C00000DC
:1010D000C701B6012CD88038910541F0C701B6018F
:1010E00026D8F5E8FA95F1F70000F5CFC4BBCABBE6
:1010F000C7BB4FEF50E0C701B6017FDA3EC095375E
:10110000F1F5939A80E490E0A5D790E7A92E90E0BE
:10111000B92E26013701C4BBCABBC7BBF50101818B
:1011200010E0102F00278081082B40E450E0C3011D
:10113000B20163DAA801C301B2015FDAC301B201EF
:10114000F6D787FD08C0C301B201F1D7F5E0FA95E3
:10115000F1F70000F6CF2FEF421A520A620A720A24
:1011600082E0A80EB11C90EBA91690E0B90699F6A2
:10117000E0E2CE0ED11CE11CF11C81E3C3C0993426
:1011800019F09F3409F050C05DD7182F78D740E18F
:1011900050E060E070E080E790E0EAD0939A8091C0
:1011A00070018934F9F4113421F48AB3609568230D
:1011B00020C0123421F487B36095682320C0133413
:1011C00021F484B36095682320C0143421F481B3E2
:1011D0006095682320C0153409F095C086B16095EC
:1011E000682320C08F3409F08EC0113421F48AB3F3
:1011F000682B6ABB88C0123421F487B3682B67BBA5
:1012000082C0133421F484B3682B64BB7CC01434D3
:1012100021F481B3682B61BB76C0153409F073C02B
:1012200086B1682B66B96FC09C3451F50BD7182F67
:1012300026D740E150E060E070E080E790E098D091
:10124000939A113421F48BB3609568232AC0123429
:1012500021F488B3609568232AC0133421F485B340
:10126000609568232AC0143421F482B36095682302
:101270002AC0153409F047C087B16095682329C09A
:10128000983449F5DFD6182FFAD640E150E060E0F7
:1012900070E080E790E06CD0939A113421F48BB326
:1012A000682B6BBB30C0123421F488B3682B68BB49
:1012B0002AC0133421F485B3682B65BB24C01434D1
:1012C00021F482B3682B62BB1EC01534E1F487B1F0
:1012D000682B67B918C09434C1F4B4D6939A81349A
:1012E00011F489B30FC0823411F486B30BC0833478
:1012F00011F483B307C0843411F480B303C0853480
:1013000011F485B1A3D6939859CA9D3459F49AD64D
:10131000813319F42224239454CA803309F04ECA2D
:10132000212C50CA983611F482E003C0963519F486
:1013300080E18CD643CA9A3209F040CAA0D640E177
:1013400050E060E070E080E790E012D0613E754EC2
:101350008740910509F032CA84B7877F84BF28E1AE
:1013600021BD8CE081BD8FEF9FEF0197F1F726CA79
:10137000A0E0B0E0EDEBF9E078C15C016B017A012F
:101380006115710519F0FB0191838083E114F1046B
:1013900029F0C7010297839708F0E2C0E501219682
:1013A000F5011081812F90E011D1892B11F05E01A0
:1013B000F5CF1D3229F42196F501118101E007C016
:1013C0001B3221F4E5012296F501118100E0E114C0
:1013D000F10409F1F0E1EF16F10429F43EC010E345
:1013E000E114F10421F128E0E216F10401F154F4D2
:1013F000E2E0EE16F10421F5812C912CA12CB0E451
:10140000BB2E3DC0FAE0EF16F10439F020E1E21600
:10141000F104B1F42FC0103311F1FAE0EF2EF12CEA
:10142000ACEC8A2E982CA82CACE0BA2E28C078E020
:10143000E72EF12C812C912CA12CE0E1BE2E1FC0B7
:1014400060E070E080E090E897010F2C000C440B06
:10145000550BDED049015A0112C0103359F488816E
:101460008F7D883509F0BBCF19812296026080E11B
:10147000E82EF12C812C912CA12C68E0B62E40E0B6
:1014800060E070E0CB0127010F2C000C66087708A4
:10149000FE0150ED352E310E29E0231570F42FEBAF
:1014A000210F2A3118F439EC332E06C02FE9210F11
:1014B0002A3110F529EA322E310E232D30E02E1577
:1014C0003F05D4F447FD15C086169706A806B90651
:1014D00068F0A30192018DD0630D711D811D911DD6
:1014E00061307105810520E8920710F04FEF01C0CF
:1014F00041E021961081CCCF202F2170C114D1045E
:1015000071F0442329F02197F601D183C08307C0ED
:1015100001FF19C02297F601D183C08314C047FF91
:1015200012C0222329F060E070E080E090E804C05F
:101530006FEF7FEF8FEF9FE722E230E030937B0188
:1015400020937A0109C0222381F0909580957095AF
:1015500061957F4F8F4F9F4F462F372F282F12C0F7
:1015600040E030E020E090E00DC097FFF5CF82E250
:1015700090E090937B0180937A016FEF7FEF8FEF84
:101580009FE7EACF642F732F822FCDB7DEB7E1E15B
:1015900088C0FC0188279927E89421912032E9F33B
:1015A000293010F02E30C8F32B3239F02D3231F4BF
:1015B000689403C013D0820F911D219120532A30CB
:1015C000C8F31EF4909581959F4F089591110EC018
:1015D000803219F089508550D0F708957AE0979FAE
:1015E000902D879F802D910D11240895992788278C
:1015F0000895DB018F939F932DD0BF91AF91A29F50
:10160000800D911DA39F900DB29F900D1124089500
:10161000A1E21A2EAA1BBB1BFD010DC0AA1FBB1FF6
:10162000EE1FFF1FA217B307E407F50720F0A21B68
:10163000B30BE40BF50B661F771F881F991F1A94D5
:1016400069F760957095809590959B01AC01BD01FF
:10165000CF01089540D0A59F900DB49F900DA49FF9
:10166000800D911D112408952F923F924F925F9209
:101670006F927F928F929F92AF92BF92CF92DF92A2
:10168000EF92FF920F931F93CF93DF93CDB7DEB707
:10169000CA1BDB0B0FB6F894DEBF0FBECDBF09949B
:1016A0002A88398848885F846E847D848C849B84F2
:1016B000AA84B984C884DF80EE80FD800C811B8100
:1016C000AA81B981CE0FD11D0FB6F894DEBF0FBE2F
:1016D000CDBFED010895A29FB001B39FC001A39FAC
:1016E00001D0B29F700D811D1124911D0895F894B1
:0216F000FFCF2A
:00000001FF
